{
  "address": "0xC7cf47fA740ec7358fF48157013727Bb3C675E77",
  "abi": [
    {
      "anonymous": false,
      "inputs": [
        {
          "indexed": false,
          "internalType": "address",
          "name": "dao",
          "type": "address"
        },
        {
          "indexed": false,
          "internalType": "address",
          "name": "depositContract",
          "type": "address"
        }
      ],
      "name": "DepositContractCreated",
      "type": "event"
    },
    {
      "anonymous": false,
      "inputs": [
        {
          "indexed": true,
          "internalType": "address",
          "name": "previousOwner",
          "type": "address"
        },
        {
          "indexed": true,
          "internalType": "address",
          "name": "newOwner",
          "type": "address"
        }
      ],
      "name": "OwnershipTransferred",
      "type": "event"
    },
    {
      "anonymous": false,
      "inputs": [
        {
          "indexed": false,
          "internalType": "address",
          "name": "dao",
          "type": "address"
        },
        {
          "indexed": false,
          "internalType": "address",
          "name": "representative",
          "type": "address"
        },
        {
          "indexed": false,
          "internalType": "bool",
          "name": "status",
          "type": "bool"
        }
      ],
      "name": "RepresentativeStatusChanged",
      "type": "event"
    },
    {
      "inputs": [
        {
          "internalType": "address",
          "name": "_address",
          "type": "address"
        }
      ],
      "name": "addressIsModule",
      "outputs": [
        {
          "internalType": "bool",
          "name": "",
          "type": "bool"
        }
      ],
      "stateMutability": "view",
      "type": "function"
    },
    {
      "inputs": [
        {
          "internalType": "address",
          "name": "_dao",
          "type": "address"
        }
      ],
      "name": "createDepositContract",
      "outputs": [],
      "stateMutability": "nonpayable",
      "type": "function"
    },
    {
      "inputs": [
        {
          "internalType": "address",
          "name": "_moduleAddress",
          "type": "address"
        }
      ],
      "name": "deactivateModule",
      "outputs": [],
      "stateMutability": "nonpayable",
      "type": "function"
    },
    {
      "inputs": [
        {
          "internalType": "address",
          "name": "",
          "type": "address"
        }
      ],
      "name": "depositContract",
      "outputs": [
        {
          "internalType": "address",
          "name": "",
          "type": "address"
        }
      ],
      "stateMutability": "view",
      "type": "function"
    },
    {
      "inputs": [],
      "name": "depositContractImplementation",
      "outputs": [
        {
          "internalType": "address",
          "name": "",
          "type": "address"
        }
      ],
      "stateMutability": "view",
      "type": "function"
    },
    {
      "inputs": [
        {
          "internalType": "address",
          "name": "_dao",
          "type": "address"
        }
      ],
      "name": "getDepositContract",
      "outputs": [
        {
          "internalType": "address",
          "name": "",
          "type": "address"
        }
      ],
      "stateMutability": "view",
      "type": "function"
    },
    {
      "inputs": [
        {
          "internalType": "string",
          "name": "_module",
          "type": "string"
        }
      ],
      "name": "getLatestModule",
      "outputs": [
        {
          "internalType": "address",
          "name": "",
          "type": "address"
        }
      ],
      "stateMutability": "view",
      "type": "function"
    },
    {
      "inputs": [
        {
          "internalType": "address",
          "name": "_dao",
          "type": "address"
        }
      ],
      "name": "hasDepositContract",
      "outputs": [
        {
          "internalType": "bool",
          "name": "",
          "type": "bool"
        }
      ],
      "stateMutability": "view",
      "type": "function"
    },
    {
      "inputs": [
        {
          "internalType": "address",
          "name": "_caller",
          "type": "address"
        },
        {
          "internalType": "address",
          "name": "_dao",
          "type": "address"
        }
      ],
      "name": "isDAOorOwner",
      "outputs": [
        {
          "internalType": "bool",
          "name": "",
          "type": "bool"
        }
      ],
      "stateMutability": "view",
      "type": "function"
    },
    {
      "inputs": [
        {
          "internalType": "address",
          "name": "_caller",
          "type": "address"
        },
        {
          "internalType": "address[]",
          "name": "_involvedDAOs",
          "type": "address[]"
        }
      ],
      "name": "isDAOorOwnerFromArray",
      "outputs": [
        {
          "internalType": "bool",
          "name": "",
          "type": "bool"
        }
      ],
      "stateMutability": "view",
      "type": "function"
    },
    {
      "inputs": [
        {
          "internalType": "address",
          "name": "",
          "type": "address"
        }
      ],
      "name": "isModule",
      "outputs": [
        {
          "internalType": "bool",
          "name": "",
          "type": "bool"
        }
      ],
      "stateMutability": "view",
      "type": "function"
    },
    {
      "inputs": [
        {
          "internalType": "bytes32",
          "name": "",
          "type": "bytes32"
        },
        {
          "internalType": "uint256",
          "name": "",
          "type": "uint256"
        }
      ],
      "name": "modules",
      "outputs": [
        {
          "internalType": "address",
          "name": "",
          "type": "address"
        }
      ],
      "stateMutability": "view",
      "type": "function"
    },
    {
      "inputs": [],
      "name": "owner",
      "outputs": [
        {
          "internalType": "address",
          "name": "",
          "type": "address"
        }
      ],
      "stateMutability": "view",
      "type": "function"
    },
    {
      "inputs": [
        {
          "internalType": "address",
          "name": "_moduleAddress",
          "type": "address"
        }
      ],
      "name": "registerModule",
      "outputs": [],
      "stateMutability": "nonpayable",
      "type": "function"
    },
    {
      "inputs": [],
      "name": "renounceOwnership",
      "outputs": [],
      "stateMutability": "nonpayable",
      "type": "function"
    },
    {
      "inputs": [
        {
          "internalType": "address",
          "name": "",
          "type": "address"
        },
        {
          "internalType": "address",
          "name": "",
          "type": "address"
        }
      ],
      "name": "representative",
      "outputs": [
        {
          "internalType": "bool",
          "name": "",
          "type": "bool"
        }
      ],
      "stateMutability": "view",
      "type": "function"
    },
    {
      "inputs": [
        {
          "internalType": "address",
          "name": "_newImplementation",
          "type": "address"
        }
      ],
      "name": "setDepositContractImplementation",
      "outputs": [],
      "stateMutability": "nonpayable",
      "type": "function"
    },
    {
      "inputs": [
        {
          "internalType": "address",
          "name": "_dao",
          "type": "address"
        },
        {
          "internalType": "address",
          "name": "_representative",
          "type": "address"
        },
        {
          "internalType": "bool",
          "name": "_active",
          "type": "bool"
        }
      ],
      "name": "setRepresentative",
      "outputs": [],
      "stateMutability": "nonpayable",
      "type": "function"
    },
    {
      "inputs": [
        {
          "internalType": "address",
          "name": "_dao",
          "type": "address"
        },
        {
          "internalType": "address[]",
          "name": "_representatives",
          "type": "address[]"
        },
        {
          "internalType": "bool[]",
          "name": "_active",
          "type": "bool[]"
        }
      ],
      "name": "setRepresentatives",
      "outputs": [],
      "stateMutability": "nonpayable",
      "type": "function"
    },
    {
      "inputs": [
        {
          "internalType": "address",
          "name": "_newWETH",
          "type": "address"
        }
      ],
      "name": "setWETHAddress",
      "outputs": [],
      "stateMutability": "nonpayable",
      "type": "function"
    },
    {
      "inputs": [
        {
          "internalType": "address",
          "name": "newOwner",
          "type": "address"
        }
      ],
      "name": "transferOwnership",
      "outputs": [],
      "stateMutability": "nonpayable",
      "type": "function"
    },
    {
      "inputs": [],
      "name": "weth",
      "outputs": [
        {
          "internalType": "address",
          "name": "",
          "type": "address"
        }
      ],
      "stateMutability": "view",
      "type": "function"
    }
  ],
  "transactionHash": "0x0768ce694f3fad321fac1e3579880a73d015815c2562062a5fa66a1c89e24ee5",
  "args": [],
  "solcInputHash": "ef94f2d2ae3f74c38ba485bdec7deb52",
  "bytecode": "0x608060405234801561001057600080fd5b5061001a3361001f565b61006f565b600080546001600160a01b038381166001600160a01b0319831681178455604051919092169283917f8be0079c531659141344cd1fd0a4f28419497f9722a3daafe3b4186f6b6457e09190a35050565b61149b8061007e6000396000f3fe608060405234801561001057600080fd5b50600436106101425760003560e01c80638da5cb5b116100b8578063baaded7a1161007c578063baaded7a1461030c578063bedae7821461031f578063e0daf0c914610332578063e81bbf5514610345578063eabce66814610358578063f2fde38b1461036b57600080fd5b80638da5cb5b1461027e578063923b86681461028f5780639cd347b2146102b8578063aba9650e146102e6578063ad64ae4b146102f957600080fd5b806365f6b0821161010a57806365f6b082146101fe5780636a4234eb146102115780636bafdaac14610224578063715018a614610237578063852f26a01461023f5780638606c9031461026b57600080fd5b80631b5fc511146101475780631ee2a3f71461018857806322320a951461019d5780633fc8cef3146101b057806342f6e389146101db575b600080fd5b610173610155366004611008565b6001600160a01b031660009081526006602052604090205460ff1690565b60405190151581526020015b60405180910390f35b61019b61019636600461103c565b61037e565b005b61019b6101ab3660046110cf565b610457565b6002546101c3906001600160a01b031681565b6040516001600160a01b03909116815260200161017f565b6101736101e9366004611008565b60066020526000908152604090205460ff1681565b6101c361020c366004611152565b61057f565b61019b61021f366004611008565b6105b7565b610173610232366004611008565b610663565b61019b6106a7565b6101c361024d366004611008565b6001600160a01b039081166000908152600360205260409020541690565b61017361027936600461118a565b6106dd565b6000546001600160a01b03166101c3565b6101c361029d366004611008565b6003602052600090815260409020546001600160a01b031681565b6101736102c6366004611264565b600460209081526000928352604080842090915290825290205460ff1681565b61019b6102f4366004611008565b6107e7565b61019b610307366004611008565b610a1a565b6001546101c3906001600160a01b031681565b61017361032d366004611264565b610bf5565b61019b610340366004611008565b610c85565b6101c361035336600461129d565b610cf6565b61019b610366366004611008565b610daa565b61019b610379366004611008565b610e60565b826103893382610bf5565b6103da5760405162461bcd60e51b815260206004820152601b60248201527f42415345434f4e54524143542d4e4f542d41555448524f495a4544000000000060448201526064015b60405180910390fd5b6001600160a01b03848116600081815260046020908152604080832094881680845294825291829020805460ff19168715159081179091558251938452908301939093528101919091527fb3facfe74cfb8b568b17fc8715f7dd3dcc8100a5905142f215ce03486223431f9060600160405180910390a150505050565b846104623382610bf5565b6104ae5760405162461bcd60e51b815260206004820152601b60248201527f42415345434f4e54524143542d4e4f542d41555448524f495a4544000000000060448201526064016103d1565b8382146105075760405162461bcd60e51b815260206004820152602160248201527f42415345434f4e54524143542d494e56414c49442d41525241592d4c454e47546044820152600960fb1b60648201526084016103d1565b60005b8481101561057657610564878787848181106105285761052861130f565b905060200201602081019061053d9190611008565b86868581811061054f5761054f61130f565b90506020020160208101906101969190611325565b8061056e81611356565b91505061050a565b50505050505050565b6005602052816000526040600020818154811061059b57600080fd5b6000918252602090912001546001600160a01b03169150829050565b6000546001600160a01b031633146105e15760405162461bcd60e51b81526004016103d190611371565b6001600160a01b0381166106415760405162461bcd60e51b815260206004820152602160248201527f42415345434f4e54524143542d494e56414c49442d574554482d4144445245536044820152605360f81b60648201526084016103d1565b600280546001600160a01b0319166001600160a01b0392909216919091179055565b600080610688836001600160a01b039081166000908152600360205260409020541690565b6001600160a01b0316141561069e5760006106a1565b60015b92915050565b6000546001600160a01b031633146106d15760405162461bcd60e51b81526004016103d190611371565b6106db6000610efb565b565b600080546001600160a01b03848116911614156106fc575060016106a1565b60005b82518110156107dd5782818151811061071a5761071a61130f565b60200260200101516001600160a01b0316846001600160a01b031614801561075f575061075f8382815181106107525761075261130f565b6020026020010151610663565b1561076e5760019150506106a1565b600460008483815181106107845761078461130f565b6020908102919091018101516001600160a01b0390811683528282019390935260409182016000908120938816815292905290205460ff16156107cb5760019150506106a1565b806107d581611356565b9150506106ff565b5060009392505050565b6001600160a01b03811661083d5760405162461bcd60e51b815260206004820181905260248201527f42415345434f4e54524143542d494e56414c49442d44414f2d4144445245535360448201526064016103d1565b6001600160a01b0381811660009081526003602052604090205416156108ba5760405162461bcd60e51b815260206004820152602c60248201527f42415345434f4e54524143542d4445504f5349542d434f4e54524143542d414c60448201526b52454144592d45584953545360a01b60648201526084016103d1565b6001546001600160a01b03166109385760405162461bcd60e51b815260206004820152603760248201527f42415345434f4e54524143542d4445504f5349542d434f4e54524143542d494d60448201527f504c454d454e544154494f4e2d49532d4e4f542d53455400000000000000000060648201526084016103d1565b600154600090610950906001600160a01b0316610f4b565b60405163189acdbd60e31b81526001600160a01b0384811660048301529192509082169063c4d66de890602401600060405180830381600087803b15801561099757600080fd5b505af11580156109ab573d6000803e3d6000fd5b505050506001600160a01b0382811660008181526003602090815260409182902080546001600160a01b031916948616948517905581519283528201929092527fe192afc32378e7405a89630724deae4e717d9b6b99493d6e914dbfc1d40e7b71910160405180910390a15050565b6000546001600160a01b03163314610a445760405162461bcd60e51b81526004016103d190611371565b6001600160a01b038116610a6a5760405162461bcd60e51b81526004016103d1906113a6565b306001600160a01b0316816001600160a01b0316635b32619c6040518163ffffffff1660e01b8152600401602060405180830381865afa158015610ab2573d6000803e3d6000fd5b505050506040513d601f19601f82011682018060405250810190610ad691906113e9565b6001600160a01b031614610b365760405162461bcd60e51b815260206004820152602160248201527f42415345434f4e54524143542d4d4f44554c452d53455455502d494e56414c496044820152601160fa1b60648201526084016103d1565b60056000826001600160a01b03166379573cf96040518163ffffffff1660e01b8152600401602060405180830381865afa158015610b78573d6000803e3d6000fd5b505050506040513d601f19601f82011682018060405250810190610b9c9190611406565b8152602080820192909252604090810160009081208054600181810183559183528483200180546001600160a01b039096166001600160a01b03199096168617905593815260069092529020805460ff19169091179055565b600080546001600160a01b0384811691161415610c14575060016106a1565b816001600160a01b0316836001600160a01b0316148015610c395750610c3982610663565b15610c46575060016106a1565b6001600160a01b0380831660009081526004602090815260408083209387168352929052205460ff1615610c7c575060016106a1565b50600092915050565b6000546001600160a01b03163314610caf5760405162461bcd60e51b81526004016103d190611371565b6001600160a01b038116610cd55760405162461bcd60e51b81526004016103d1906113a6565b6001600160a01b03166000908152600660205260409020805460ff19169055565b6000600560008484604051602001610d0f92919061141f565b6040516020818303038152906040528051906020012081526020019081526020016000206001600560008686604051602001610d4c92919061141f565b60405160208183030381529060405280519060200120815260200190815260200160002080549050610d7e919061144e565b81548110610d8e57610d8e61130f565b6000918252602090912001546001600160a01b03169392505050565b6000546001600160a01b03163314610dd45760405162461bcd60e51b81526004016103d190611371565b6001600160a01b038116610e3e5760405162461bcd60e51b815260206004820152602b60248201527f42415345434f4e54524143542d494e56414c49442d494d504c454d454e54415460448201526a494f4e2d4144445245535360a81b60648201526084016103d1565b600180546001600160a01b0319166001600160a01b0392909216919091179055565b6000546001600160a01b03163314610e8a5760405162461bcd60e51b81526004016103d190611371565b6001600160a01b038116610eef5760405162461bcd60e51b815260206004820152602660248201527f4f776e61626c653a206e6577206f776e657220697320746865207a65726f206160448201526564647265737360d01b60648201526084016103d1565b610ef881610efb565b50565b600080546001600160a01b038381166001600160a01b0319831681178455604051919092169283917f8be0079c531659141344cd1fd0a4f28419497f9722a3daafe3b4186f6b6457e09190a35050565b6000604051733d602d80600a3d3981f3363d3d373d3d3d363d7360601b81528260601b60148201526e5af43d82803e903d91602b57fd5bf360881b60288201526037816000f09150506001600160a01b038116610fe35760405162461bcd60e51b8152602060048201526016602482015275115490cc4c4d8dce8818dc99585d194819985a5b195960521b60448201526064016103d1565b919050565b6001600160a01b0381168114610ef857600080fd5b8035610fe381610fe8565b60006020828403121561101a57600080fd5b813561102581610fe8565b9392505050565b80358015158114610fe357600080fd5b60008060006060848603121561105157600080fd5b833561105c81610fe8565b9250602084013561106c81610fe8565b915061107a6040850161102c565b90509250925092565b60008083601f84011261109557600080fd5b50813567ffffffffffffffff8111156110ad57600080fd5b6020830191508360208260051b85010111156110c857600080fd5b9250929050565b6000806000806000606086880312156110e757600080fd5b85356110f281610fe8565b9450602086013567ffffffffffffffff8082111561110f57600080fd5b61111b89838a01611083565b9096509450604088013591508082111561113457600080fd5b5061114188828901611083565b969995985093965092949392505050565b6000806040838503121561116557600080fd5b50508035926020909101359150565b634e487b7160e01b600052604160045260246000fd5b6000806040838503121561119d57600080fd5b82356111a881610fe8565b915060208381013567ffffffffffffffff808211156111c657600080fd5b818601915086601f8301126111da57600080fd5b8135818111156111ec576111ec611174565b8060051b604051601f19603f8301168101818110858211171561121157611211611174565b60405291825284820192508381018501918983111561122f57600080fd5b938501935b828510156112545761124585610ffd565b84529385019392850192611234565b8096505050505050509250929050565b6000806040838503121561127757600080fd5b823561128281610fe8565b9150602083013561129281610fe8565b809150509250929050565b600080602083850312156112b057600080fd5b823567ffffffffffffffff808211156112c857600080fd5b818501915085601f8301126112dc57600080fd5b8135818111156112eb57600080fd5b8660208285010111156112fd57600080fd5b60209290920196919550909350505050565b634e487b7160e01b600052603260045260246000fd5b60006020828403121561133757600080fd5b6110258261102c565b634e487b7160e01b600052601160045260246000fd5b600060001982141561136a5761136a611340565b5060010190565b6020808252818101527f4f776e61626c653a2063616c6c6572206973206e6f7420746865206f776e6572604082015260600190565b60208082526023908201527f42415345434f4e54524143542d494e56414c49442d4d4f44554c452d4144445260408201526245535360e81b606082015260800190565b6000602082840312156113fb57600080fd5b815161102581610fe8565b60006020828403121561141857600080fd5b5051919050565b60208152816020820152818360408301376000818301604090810191909152601f909201601f19160101919050565b60008282101561146057611460611340565b50039056fea2646970667358221220f54ed8652e40f7d2155b538a2ccb6bff24917cdd6300525005f3d769d45f2c0864736f6c634300080a0033",
  "devdoc": {
    "details": "Smart contract to serve as the base of the PrimeDeals architecture",
    "kind": "dev",
    "methods": {
      "owner()": {
        "details": "Returns the address of the current owner."
      },
      "renounceOwnership()": {
        "details": "Leaves the contract without owner. It will not be possible to call `onlyOwner` functions anymore. Can only be called by the current owner. NOTE: Renouncing ownership will leave the contract without an owner, thereby removing any functionality that is only available to the owner."
      },
      "transferOwnership(address)": {
        "details": "Transfers ownership of the contract to a new account (`newOwner`). Can only be called by the current owner."
      }
    },
    "title": "PrimeDeals Base Contract",
    "version": 1
  },
  "userdoc": {
    "kind": "user",
    "methods": {},
    "version": 1
  },
  "storageLayout": {
    "storage": [
      {
        "astId": 7,
        "contract": "contracts/BaseContract.sol:BaseContract",
        "label": "_owner",
        "offset": 0,
        "slot": "0",
        "type": "t_address"
      },
      {
        "astId": 867,
        "contract": "contracts/BaseContract.sol:BaseContract",
        "label": "depositContractImplementation",
        "offset": 0,
        "slot": "1",
        "type": "t_address"
      },
      {
        "astId": 869,
        "contract": "contracts/BaseContract.sol:BaseContract",
        "label": "weth",
        "offset": 0,
        "slot": "2",
        "type": "t_address"
      },
      {
        "astId": 873,
        "contract": "contracts/BaseContract.sol:BaseContract",
        "label": "depositContract",
        "offset": 0,
        "slot": "3",
        "type": "t_mapping(t_address,t_address)"
      },
      {
        "astId": 879,
        "contract": "contracts/BaseContract.sol:BaseContract",
        "label": "representative",
        "offset": 0,
        "slot": "4",
        "type": "t_mapping(t_address,t_mapping(t_address,t_bool))"
      },
      {
        "astId": 884,
        "contract": "contracts/BaseContract.sol:BaseContract",
        "label": "modules",
        "offset": 0,
        "slot": "5",
        "type": "t_mapping(t_bytes32,t_array(t_address)dyn_storage)"
      },
      {
        "astId": 888,
        "contract": "contracts/BaseContract.sol:BaseContract",
        "label": "isModule",
        "offset": 0,
        "slot": "6",
        "type": "t_mapping(t_address,t_bool)"
      }
    ],
    "types": {
      "t_address": {
        "encoding": "inplace",
        "label": "address",
        "numberOfBytes": "20"
      },
      "t_array(t_address)dyn_storage": {
        "base": "t_address",
        "encoding": "dynamic_array",
        "label": "address[]",
        "numberOfBytes": "32"
      },
      "t_bool": {
        "encoding": "inplace",
        "label": "bool",
        "numberOfBytes": "1"
      },
      "t_bytes32": {
        "encoding": "inplace",
        "label": "bytes32",
        "numberOfBytes": "32"
      },
      "t_mapping(t_address,t_address)": {
        "encoding": "mapping",
        "key": "t_address",
        "label": "mapping(address => address)",
        "numberOfBytes": "32",
        "value": "t_address"
      },
      "t_mapping(t_address,t_bool)": {
        "encoding": "mapping",
        "key": "t_address",
        "label": "mapping(address => bool)",
        "numberOfBytes": "32",
        "value": "t_bool"
      },
      "t_mapping(t_address,t_mapping(t_address,t_bool))": {
        "encoding": "mapping",
        "key": "t_address",
        "label": "mapping(address => mapping(address => bool))",
        "numberOfBytes": "32",
        "value": "t_mapping(t_address,t_bool)"
      },
      "t_mapping(t_bytes32,t_array(t_address)dyn_storage)": {
        "encoding": "mapping",
        "key": "t_bytes32",
        "label": "mapping(bytes32 => address[])",
        "numberOfBytes": "32",
        "value": "t_array(t_address)dyn_storage"
      }
    }
  }
}