{
  "address": "0x7431c9bfA33add7BccCfbAEF79B597bea54702d6",
  "abi": [
    {
      "anonymous": false,
      "inputs": [
        {
          "indexed": false,
          "internalType": "address",
          "name": "dao",
          "type": "address"
        },
        {
          "indexed": false,
          "internalType": "address",
          "name": "depositContract",
          "type": "address"
        }
      ],
      "name": "DepositContractCreated",
      "type": "event"
    },
    {
      "anonymous": false,
      "inputs": [
        {
          "indexed": true,
          "internalType": "address",
          "name": "previousOwner",
          "type": "address"
        },
        {
          "indexed": true,
          "internalType": "address",
          "name": "newOwner",
          "type": "address"
        }
      ],
      "name": "OwnershipTransferred",
      "type": "event"
    },
    {
      "anonymous": false,
      "inputs": [
        {
          "indexed": false,
          "internalType": "address",
          "name": "dao",
          "type": "address"
        },
        {
          "indexed": false,
          "internalType": "address",
          "name": "representative",
          "type": "address"
        },
        {
          "indexed": false,
          "internalType": "bool",
          "name": "status",
          "type": "bool"
        }
      ],
      "name": "RepresentativeStatusChanged",
      "type": "event"
    },
    {
      "inputs": [
        {
          "internalType": "address",
          "name": "_address",
          "type": "address"
        }
      ],
      "name": "addressIsModule",
      "outputs": [
        {
          "internalType": "bool",
          "name": "",
          "type": "bool"
        }
      ],
      "stateMutability": "view",
      "type": "function"
    },
    {
      "inputs": [
        {
          "internalType": "address",
          "name": "_dao",
          "type": "address"
        }
      ],
      "name": "createDepositContract",
      "outputs": [],
      "stateMutability": "nonpayable",
      "type": "function"
    },
    {
      "inputs": [
        {
          "internalType": "address",
          "name": "_moduleAddress",
          "type": "address"
        }
      ],
      "name": "deactivateModule",
      "outputs": [],
      "stateMutability": "nonpayable",
      "type": "function"
    },
    {
      "inputs": [
        {
          "internalType": "address",
          "name": "",
          "type": "address"
        }
      ],
      "name": "depositContract",
      "outputs": [
        {
          "internalType": "address",
          "name": "",
          "type": "address"
        }
      ],
      "stateMutability": "view",
      "type": "function"
    },
    {
      "inputs": [],
      "name": "depositContractImplementation",
      "outputs": [
        {
          "internalType": "address",
          "name": "",
          "type": "address"
        }
      ],
      "stateMutability": "view",
      "type": "function"
    },
    {
      "inputs": [
        {
          "internalType": "address",
          "name": "_dao",
          "type": "address"
        }
      ],
      "name": "getDepositContract",
      "outputs": [
        {
          "internalType": "address",
          "name": "",
          "type": "address"
        }
      ],
      "stateMutability": "view",
      "type": "function"
    },
    {
      "inputs": [
        {
          "internalType": "string",
          "name": "_module",
          "type": "string"
        }
      ],
      "name": "getLatestModule",
      "outputs": [
        {
          "internalType": "address",
          "name": "",
          "type": "address"
        }
      ],
      "stateMutability": "view",
      "type": "function"
    },
    {
      "inputs": [
        {
          "internalType": "address",
          "name": "_dao",
          "type": "address"
        }
      ],
      "name": "hasDepositContract",
      "outputs": [
        {
          "internalType": "bool",
          "name": "",
          "type": "bool"
        }
      ],
      "stateMutability": "view",
      "type": "function"
    },
    {
      "inputs": [
        {
          "internalType": "address",
          "name": "",
          "type": "address"
        }
      ],
      "name": "isModule",
      "outputs": [
        {
          "internalType": "bool",
          "name": "",
          "type": "bool"
        }
      ],
      "stateMutability": "view",
      "type": "function"
    },
    {
      "inputs": [
        {
          "internalType": "bytes32",
          "name": "",
          "type": "bytes32"
        },
        {
          "internalType": "uint256",
          "name": "",
          "type": "uint256"
        }
      ],
      "name": "modules",
      "outputs": [
        {
          "internalType": "address",
          "name": "",
          "type": "address"
        }
      ],
      "stateMutability": "view",
      "type": "function"
    },
    {
      "inputs": [],
      "name": "owner",
      "outputs": [
        {
          "internalType": "address",
          "name": "",
          "type": "address"
        }
      ],
      "stateMutability": "view",
      "type": "function"
    },
    {
      "inputs": [
        {
          "internalType": "address",
          "name": "_moduleAddress",
          "type": "address"
        }
      ],
      "name": "registerModule",
      "outputs": [],
      "stateMutability": "nonpayable",
      "type": "function"
    },
    {
      "inputs": [],
      "name": "renounceOwnership",
      "outputs": [],
      "stateMutability": "nonpayable",
      "type": "function"
    },
    {
      "inputs": [
        {
          "internalType": "address",
          "name": "",
          "type": "address"
        },
        {
          "internalType": "address",
          "name": "",
          "type": "address"
        }
      ],
      "name": "representative",
      "outputs": [
        {
          "internalType": "bool",
          "name": "",
          "type": "bool"
        }
      ],
      "stateMutability": "view",
      "type": "function"
    },
    {
      "inputs": [
        {
          "internalType": "address",
          "name": "_newImplementation",
          "type": "address"
        }
      ],
      "name": "setDepositContractImplementation",
      "outputs": [],
      "stateMutability": "nonpayable",
      "type": "function"
    },
    {
      "inputs": [
        {
          "internalType": "address",
          "name": "_newWETH",
          "type": "address"
        }
      ],
      "name": "setWETHAddress",
      "outputs": [],
      "stateMutability": "nonpayable",
      "type": "function"
    },
    {
      "inputs": [
        {
          "internalType": "address",
          "name": "newOwner",
          "type": "address"
        }
      ],
      "name": "transferOwnership",
      "outputs": [],
      "stateMutability": "nonpayable",
      "type": "function"
    },
    {
      "inputs": [],
      "name": "weth",
      "outputs": [
        {
          "internalType": "address",
          "name": "",
          "type": "address"
        }
      ],
      "stateMutability": "view",
      "type": "function"
    }
  ],
  "transactionHash": "0x9f568091045d4412c614a01aaec56e09ca377b44f15a1bb0d7c9bc83b2a0c351",
  "args": [],
  "solcInputHash": "cfb4d5c1adc8b1c777f04cbfe46f0a57",
  "bytecode": "0x608060405234801561001057600080fd5b5061001a3361001f565b61006f565b600080546001600160a01b038381166001600160a01b0319831681178455604051919092169283917f8be0079c531659141344cd1fd0a4f28419497f9722a3daafe3b4186f6b6457e09190a35050565b610e328061007e6000396000f3fe608060405234801561001057600080fd5b50600436106101165760003560e01c8063923b8668116100a2578063baaded7a11610071578063baaded7a146102a7578063e0daf0c9146102ba578063e81bbf55146102cd578063eabce668146102e0578063f2fde38b146102f357600080fd5b8063923b86681461022a5780639cd347b214610253578063aba9650e14610281578063ad64ae4b1461029457600080fd5b80636a4234eb116100e95780636a4234eb146101bd5780636bafdaac146101d2578063715018a6146101e5578063852f26a0146101ed5780638da5cb5b1461021957600080fd5b80631b5fc5111461011b5780633fc8cef31461015c57806342f6e3891461018757806365f6b082146101aa575b600080fd5b610147610129366004610bf3565b6001600160a01b031660009081526006602052604090205460ff1690565b60405190151581526020015b60405180910390f35b60025461016f906001600160a01b031681565b6040516001600160a01b039091168152602001610153565b610147610195366004610bf3565b60066020526000908152604090205460ff1681565b61016f6101b8366004610c17565b610306565b6101d06101cb366004610bf3565b61033e565b005b6101476101e0366004610bf3565b6103f3565b6101d0610437565b61016f6101fb366004610bf3565b6001600160a01b039081166000908152600360205260409020541690565b6000546001600160a01b031661016f565b61016f610238366004610bf3565b6003602052600090815260409020546001600160a01b031681565b610147610261366004610c39565b600460209081526000928352604080842090915290825290205460ff1681565b6101d061028f366004610bf3565b61046d565b6101d06102a2366004610bf3565b6106a0565b60015461016f906001600160a01b031681565b6101d06102c8366004610bf3565b61087b565b61016f6102db366004610c72565b6108ec565b6101d06102ee366004610bf3565b6109a0565b6101d0610301366004610bf3565b610a56565b6005602052816000526040600020818154811061032257600080fd5b6000918252602090912001546001600160a01b03169150829050565b6000546001600160a01b031633146103715760405162461bcd60e51b815260040161036890610ce4565b60405180910390fd5b6001600160a01b0381166103d15760405162461bcd60e51b815260206004820152602160248201527f42415345434f4e54524143542d494e56414c49442d574554482d4144445245536044820152605360f81b6064820152608401610368565b600280546001600160a01b0319166001600160a01b0392909216919091179055565b600080610418836001600160a01b039081166000908152600360205260409020541690565b6001600160a01b0316141561042e576000610431565b60015b92915050565b6000546001600160a01b031633146104615760405162461bcd60e51b815260040161036890610ce4565b61046b6000610af1565b565b6001600160a01b0381166104c35760405162461bcd60e51b815260206004820181905260248201527f42415345434f4e54524143542d494e56414c49442d44414f2d414444524553536044820152606401610368565b6001600160a01b0381811660009081526003602052604090205416156105405760405162461bcd60e51b815260206004820152602c60248201527f42415345434f4e54524143542d4445504f5349542d434f4e54524143542d414c60448201526b52454144592d45584953545360a01b6064820152608401610368565b6001546001600160a01b03166105be5760405162461bcd60e51b815260206004820152603760248201527f42415345434f4e54524143542d4445504f5349542d434f4e54524143542d494d60448201527f504c454d454e544154494f4e2d49532d4e4f542d5345540000000000000000006064820152608401610368565b6001546000906105d6906001600160a01b0316610b41565b60405163189acdbd60e31b81526001600160a01b0384811660048301529192509082169063c4d66de890602401600060405180830381600087803b15801561061d57600080fd5b505af1158015610631573d6000803e3d6000fd5b505050506001600160a01b0382811660008181526003602090815260409182902080546001600160a01b031916948616948517905581519283528201929092527fe192afc32378e7405a89630724deae4e717d9b6b99493d6e914dbfc1d40e7b71910160405180910390a15050565b6000546001600160a01b031633146106ca5760405162461bcd60e51b815260040161036890610ce4565b6001600160a01b0381166106f05760405162461bcd60e51b815260040161036890610d19565b306001600160a01b0316816001600160a01b0316635b32619c6040518163ffffffff1660e01b8152600401602060405180830381865afa158015610738573d6000803e3d6000fd5b505050506040513d601f19601f8201168201806040525081019061075c9190610d5c565b6001600160a01b0316146107bc5760405162461bcd60e51b815260206004820152602160248201527f42415345434f4e54524143542d4d4f44554c452d53455455502d494e56414c496044820152601160fa1b6064820152608401610368565b60056000826001600160a01b03166379573cf96040518163ffffffff1660e01b8152600401602060405180830381865afa1580156107fe573d6000803e3d6000fd5b505050506040513d601f19601f820116820180604052508101906108229190610d79565b8152602080820192909252604090810160009081208054600181810183559183528483200180546001600160a01b039096166001600160a01b03199096168617905593815260069092529020805460ff19169091179055565b6000546001600160a01b031633146108a55760405162461bcd60e51b815260040161036890610ce4565b6001600160a01b0381166108cb5760405162461bcd60e51b815260040161036890610d19565b6001600160a01b03166000908152600660205260409020805460ff19169055565b6000600560008484604051602001610905929190610d92565b6040516020818303038152906040528051906020012081526020019081526020016000206001600560008686604051602001610942929190610d92565b604051602081830303815290604052805190602001208152602001908152602001600020805490506109749190610dc1565b8154811061098457610984610de6565b6000918252602090912001546001600160a01b03169392505050565b6000546001600160a01b031633146109ca5760405162461bcd60e51b815260040161036890610ce4565b6001600160a01b038116610a345760405162461bcd60e51b815260206004820152602b60248201527f42415345434f4e54524143542d494e56414c49442d494d504c454d454e54415460448201526a494f4e2d4144445245535360a81b6064820152608401610368565b600180546001600160a01b0319166001600160a01b0392909216919091179055565b6000546001600160a01b03163314610a805760405162461bcd60e51b815260040161036890610ce4565b6001600160a01b038116610ae55760405162461bcd60e51b815260206004820152602660248201527f4f776e61626c653a206e6577206f776e657220697320746865207a65726f206160448201526564647265737360d01b6064820152608401610368565b610aee81610af1565b50565b600080546001600160a01b038381166001600160a01b0319831681178455604051919092169283917f8be0079c531659141344cd1fd0a4f28419497f9722a3daafe3b4186f6b6457e09190a35050565b6000604051733d602d80600a3d3981f3363d3d373d3d3d363d7360601b81528260601b60148201526e5af43d82803e903d91602b57fd5bf360881b60288201526037816000f09150506001600160a01b038116610bd95760405162461bcd60e51b8152602060048201526016602482015275115490cc4c4d8dce8818dc99585d194819985a5b195960521b6044820152606401610368565b919050565b6001600160a01b0381168114610aee57600080fd5b600060208284031215610c0557600080fd5b8135610c1081610bde565b9392505050565b60008060408385031215610c2a57600080fd5b50508035926020909101359150565b60008060408385031215610c4c57600080fd5b8235610c5781610bde565b91506020830135610c6781610bde565b809150509250929050565b60008060208385031215610c8557600080fd5b823567ffffffffffffffff80821115610c9d57600080fd5b818501915085601f830112610cb157600080fd5b813581811115610cc057600080fd5b866020828501011115610cd257600080fd5b60209290920196919550909350505050565b6020808252818101527f4f776e61626c653a2063616c6c6572206973206e6f7420746865206f776e6572604082015260600190565b60208082526023908201527f42415345434f4e54524143542d494e56414c49442d4d4f44554c452d4144445260408201526245535360e81b606082015260800190565b600060208284031215610d6e57600080fd5b8151610c1081610bde565b600060208284031215610d8b57600080fd5b5051919050565b60208152816020820152818360408301376000818301604090810191909152601f909201601f19160101919050565b600082821015610de157634e487b7160e01b600052601160045260246000fd5b500390565b634e487b7160e01b600052603260045260246000fdfea26469706673582212209304684ddd23fb706a08b71cdc57bc15ff2d92b4d41d41baf16e483484028b7f64736f6c634300080a0033",
  "devdoc": {
    "details": "Smart contract to serve as the base of the PrimeDeals architecture",
    "kind": "dev",
    "methods": {
      "owner()": {
        "details": "Returns the address of the current owner."
      },
      "renounceOwnership()": {
        "details": "Leaves the contract without owner. It will not be possible to call `onlyOwner` functions anymore. Can only be called by the current owner. NOTE: Renouncing ownership will leave the contract without an owner, thereby removing any functionality that is only available to the owner."
      },
      "transferOwnership(address)": {
        "details": "Transfers ownership of the contract to a new account (`newOwner`). Can only be called by the current owner."
      }
    },
    "title": "PrimeDeals Base Contract",
    "version": 1
  },
  "userdoc": {
    "kind": "user",
    "methods": {},
    "version": 1
  },
  "storageLayout": {
    "storage": [
      {
        "astId": 7,
        "contract": "contracts/BaseContract.sol:BaseContract",
        "label": "_owner",
        "offset": 0,
        "slot": "0",
        "type": "t_address"
      },
      {
        "astId": 932,
        "contract": "contracts/BaseContract.sol:BaseContract",
        "label": "depositContractImplementation",
        "offset": 0,
        "slot": "1",
        "type": "t_address"
      },
      {
        "astId": 934,
        "contract": "contracts/BaseContract.sol:BaseContract",
        "label": "weth",
        "offset": 0,
        "slot": "2",
        "type": "t_address"
      },
      {
        "astId": 938,
        "contract": "contracts/BaseContract.sol:BaseContract",
        "label": "depositContract",
        "offset": 0,
        "slot": "3",
        "type": "t_mapping(t_address,t_address)"
      },
      {
        "astId": 944,
        "contract": "contracts/BaseContract.sol:BaseContract",
        "label": "representative",
        "offset": 0,
        "slot": "4",
        "type": "t_mapping(t_address,t_mapping(t_address,t_bool))"
      },
      {
        "astId": 949,
        "contract": "contracts/BaseContract.sol:BaseContract",
        "label": "modules",
        "offset": 0,
        "slot": "5",
        "type": "t_mapping(t_bytes32,t_array(t_address)dyn_storage)"
      },
      {
        "astId": 953,
        "contract": "contracts/BaseContract.sol:BaseContract",
        "label": "isModule",
        "offset": 0,
        "slot": "6",
        "type": "t_mapping(t_address,t_bool)"
      }
    ],
    "types": {
      "t_address": {
        "encoding": "inplace",
        "label": "address",
        "numberOfBytes": "20"
      },
      "t_array(t_address)dyn_storage": {
        "base": "t_address",
        "encoding": "dynamic_array",
        "label": "address[]",
        "numberOfBytes": "32"
      },
      "t_bool": {
        "encoding": "inplace",
        "label": "bool",
        "numberOfBytes": "1"
      },
      "t_bytes32": {
        "encoding": "inplace",
        "label": "bytes32",
        "numberOfBytes": "32"
      },
      "t_mapping(t_address,t_address)": {
        "encoding": "mapping",
        "key": "t_address",
        "label": "mapping(address => address)",
        "numberOfBytes": "32",
        "value": "t_address"
      },
      "t_mapping(t_address,t_bool)": {
        "encoding": "mapping",
        "key": "t_address",
        "label": "mapping(address => bool)",
        "numberOfBytes": "32",
        "value": "t_bool"
      },
      "t_mapping(t_address,t_mapping(t_address,t_bool))": {
        "encoding": "mapping",
        "key": "t_address",
        "label": "mapping(address => mapping(address => bool))",
        "numberOfBytes": "32",
        "value": "t_mapping(t_address,t_bool)"
      },
      "t_mapping(t_bytes32,t_array(t_address)dyn_storage)": {
        "encoding": "mapping",
        "key": "t_bytes32",
        "label": "mapping(bytes32 => address[])",
        "numberOfBytes": "32",
        "value": "t_array(t_address)dyn_storage"
      }
    }
  }
}