{
  "address": "0x4621eC063FA5C199BFdd2aC1f7a7fF3A1EdB0ef2",
  "abi": [
    {
      "anonymous": false,
      "inputs": [
        {
          "indexed": true,
          "internalType": "address",
          "name": "dealModule",
          "type": "address"
        },
        {
          "indexed": true,
          "internalType": "uint32",
          "name": "dealId",
          "type": "uint32"
        },
        {
          "indexed": true,
          "internalType": "address",
          "name": "depositor",
          "type": "address"
        },
        {
          "indexed": false,
          "internalType": "uint32",
          "name": "depositId",
          "type": "uint32"
        },
        {
          "indexed": false,
          "internalType": "address",
          "name": "token",
          "type": "address"
        },
        {
          "indexed": false,
          "internalType": "uint256",
          "name": "amount",
          "type": "uint256"
        }
      ],
      "name": "Deposited",
      "type": "event"
    },
    {
      "anonymous": false,
      "inputs": [
        {
          "indexed": true,
          "internalType": "address",
          "name": "dealModule",
          "type": "address"
        },
        {
          "indexed": true,
          "internalType": "uint32",
          "name": "dealId",
          "type": "uint32"
        },
        {
          "indexed": true,
          "internalType": "address",
          "name": "dao",
          "type": "address"
        },
        {
          "indexed": false,
          "internalType": "address",
          "name": "token",
          "type": "address"
        },
        {
          "indexed": false,
          "internalType": "uint256",
          "name": "claimed",
          "type": "uint256"
        }
      ],
      "name": "VestingClaimed",
      "type": "event"
    },
    {
      "anonymous": false,
      "inputs": [
        {
          "indexed": true,
          "internalType": "address",
          "name": "dealModule",
          "type": "address"
        },
        {
          "indexed": true,
          "internalType": "uint32",
          "name": "dealId",
          "type": "uint32"
        },
        {
          "indexed": true,
          "internalType": "uint256",
          "name": "vestingStart",
          "type": "uint256"
        },
        {
          "indexed": false,
          "internalType": "uint32",
          "name": "vestingCliff",
          "type": "uint32"
        },
        {
          "indexed": false,
          "internalType": "uint32",
          "name": "vestingDuration",
          "type": "uint32"
        },
        {
          "indexed": false,
          "internalType": "address",
          "name": "token",
          "type": "address"
        },
        {
          "indexed": false,
          "internalType": "uint256",
          "name": "amount",
          "type": "uint256"
        }
      ],
      "name": "VestingStarted",
      "type": "event"
    },
    {
      "anonymous": false,
      "inputs": [
        {
          "indexed": true,
          "internalType": "address",
          "name": "dealModule",
          "type": "address"
        },
        {
          "indexed": true,
          "internalType": "uint32",
          "name": "dealId",
          "type": "uint32"
        },
        {
          "indexed": true,
          "internalType": "address",
          "name": "depositor",
          "type": "address"
        },
        {
          "indexed": false,
          "internalType": "uint32",
          "name": "depositId",
          "type": "uint32"
        },
        {
          "indexed": false,
          "internalType": "address",
          "name": "token",
          "type": "address"
        },
        {
          "indexed": false,
          "internalType": "uint256",
          "name": "amount",
          "type": "uint256"
        }
      ],
      "name": "Withdrawn",
      "type": "event"
    },
    {
      "stateMutability": "payable",
      "type": "fallback"
    },
    {
      "inputs": [
        {
          "internalType": "address",
          "name": "",
          "type": "address"
        },
        {
          "internalType": "address",
          "name": "",
          "type": "address"
        },
        {
          "internalType": "uint32",
          "name": "",
          "type": "uint32"
        }
      ],
      "name": "availableDealBalances",
      "outputs": [
        {
          "internalType": "uint256",
          "name": "",
          "type": "uint256"
        }
      ],
      "stateMutability": "view",
      "type": "function"
    },
    {
      "inputs": [
        {
          "internalType": "address",
          "name": "_module",
          "type": "address"
        },
        {
          "internalType": "uint32",
          "name": "_dealId",
          "type": "uint32"
        }
      ],
      "name": "claimDealVestings",
      "outputs": [
        {
          "internalType": "address[]",
          "name": "tokens",
          "type": "address[]"
        },
        {
          "internalType": "uint256[]",
          "name": "amounts",
          "type": "uint256[]"
        }
      ],
      "stateMutability": "nonpayable",
      "type": "function"
    },
    {
      "inputs": [],
      "name": "claimVestings",
      "outputs": [
        {
          "internalType": "address[]",
          "name": "tokens",
          "type": "address[]"
        },
        {
          "internalType": "uint256[]",
          "name": "amounts",
          "type": "uint256[]"
        }
      ],
      "stateMutability": "nonpayable",
      "type": "function"
    },
    {
      "inputs": [],
      "name": "dao",
      "outputs": [
        {
          "internalType": "address",
          "name": "",
          "type": "address"
        }
      ],
      "stateMutability": "view",
      "type": "function"
    },
    {
      "inputs": [],
      "name": "dealManager",
      "outputs": [
        {
          "internalType": "contract IDealManager",
          "name": "",
          "type": "address"
        }
      ],
      "stateMutability": "view",
      "type": "function"
    },
    {
      "inputs": [
        {
          "internalType": "address",
          "name": "_module",
          "type": "address"
        },
        {
          "internalType": "uint32",
          "name": "_dealId",
          "type": "uint32"
        },
        {
          "internalType": "address",
          "name": "_token",
          "type": "address"
        },
        {
          "internalType": "uint256",
          "name": "_amount",
          "type": "uint256"
        }
      ],
      "name": "deposit",
      "outputs": [],
      "stateMutability": "payable",
      "type": "function"
    },
    {
      "inputs": [
        {
          "internalType": "address",
          "name": "",
          "type": "address"
        },
        {
          "internalType": "uint256",
          "name": "",
          "type": "uint256"
        },
        {
          "internalType": "uint256",
          "name": "",
          "type": "uint256"
        }
      ],
      "name": "deposits",
      "outputs": [
        {
          "internalType": "address",
          "name": "depositor",
          "type": "address"
        },
        {
          "internalType": "address",
          "name": "token",
          "type": "address"
        },
        {
          "internalType": "uint256",
          "name": "amount",
          "type": "uint256"
        },
        {
          "internalType": "uint256",
          "name": "used",
          "type": "uint256"
        },
        {
          "internalType": "uint32",
          "name": "depositedAt",
          "type": "uint32"
        }
      ],
      "stateMutability": "view",
      "type": "function"
    },
    {
      "inputs": [
        {
          "internalType": "address",
          "name": "_module",
          "type": "address"
        },
        {
          "internalType": "uint32",
          "name": "_dealId",
          "type": "uint32"
        },
        {
          "internalType": "address",
          "name": "_token",
          "type": "address"
        }
      ],
      "name": "getAvailableDealBalance",
      "outputs": [
        {
          "internalType": "uint256",
          "name": "",
          "type": "uint256"
        }
      ],
      "stateMutability": "view",
      "type": "function"
    },
    {
      "inputs": [
        {
          "internalType": "address",
          "name": "_token",
          "type": "address"
        }
      ],
      "name": "getBalance",
      "outputs": [
        {
          "internalType": "uint256",
          "name": "",
          "type": "uint256"
        }
      ],
      "stateMutability": "view",
      "type": "function"
    },
    {
      "inputs": [
        {
          "internalType": "address",
          "name": "_module",
          "type": "address"
        },
        {
          "internalType": "uint32",
          "name": "_dealId",
          "type": "uint32"
        },
        {
          "internalType": "uint32",
          "name": "_depositId",
          "type": "uint32"
        }
      ],
      "name": "getDeposit",
      "outputs": [
        {
          "internalType": "address",
          "name": "",
          "type": "address"
        },
        {
          "internalType": "address",
          "name": "",
          "type": "address"
        },
        {
          "internalType": "uint256",
          "name": "",
          "type": "uint256"
        },
        {
          "internalType": "uint256",
          "name": "",
          "type": "uint256"
        },
        {
          "internalType": "uint32",
          "name": "",
          "type": "uint32"
        }
      ],
      "stateMutability": "view",
      "type": "function"
    },
    {
      "inputs": [
        {
          "internalType": "address",
          "name": "_module",
          "type": "address"
        },
        {
          "internalType": "uint32",
          "name": "_dealId",
          "type": "uint32"
        },
        {
          "internalType": "uint32",
          "name": "_fromDepositId",
          "type": "uint32"
        },
        {
          "internalType": "uint32",
          "name": "_toDepositId",
          "type": "uint32"
        }
      ],
      "name": "getDepositRange",
      "outputs": [
        {
          "internalType": "address[]",
          "name": "depositors",
          "type": "address[]"
        },
        {
          "internalType": "address[]",
          "name": "tokens",
          "type": "address[]"
        },
        {
          "internalType": "uint256[]",
          "name": "amounts",
          "type": "uint256[]"
        },
        {
          "internalType": "uint256[]",
          "name": "usedAmounts",
          "type": "uint256[]"
        },
        {
          "internalType": "uint256[]",
          "name": "times",
          "type": "uint256[]"
        }
      ],
      "stateMutability": "view",
      "type": "function"
    },
    {
      "inputs": [
        {
          "internalType": "address",
          "name": "_module",
          "type": "address"
        },
        {
          "internalType": "uint32",
          "name": "_dealId",
          "type": "uint32"
        }
      ],
      "name": "getTotalDepositCount",
      "outputs": [
        {
          "internalType": "uint32",
          "name": "",
          "type": "uint32"
        }
      ],
      "stateMutability": "view",
      "type": "function"
    },
    {
      "inputs": [
        {
          "internalType": "address",
          "name": "_module",
          "type": "address"
        },
        {
          "internalType": "uint32",
          "name": "_dealId",
          "type": "uint32"
        },
        {
          "internalType": "address",
          "name": "_depositor",
          "type": "address"
        },
        {
          "internalType": "address",
          "name": "_token",
          "type": "address"
        }
      ],
      "name": "getWithdrawableAmountOfDepositor",
      "outputs": [
        {
          "internalType": "uint256",
          "name": "",
          "type": "uint256"
        }
      ],
      "stateMutability": "view",
      "type": "function"
    },
    {
      "inputs": [
        {
          "internalType": "address",
          "name": "_dao",
          "type": "address"
        }
      ],
      "name": "initialize",
      "outputs": [],
      "stateMutability": "nonpayable",
      "type": "function"
    },
    {
      "inputs": [
        {
          "internalType": "address",
          "name": "_module",
          "type": "address"
        },
        {
          "internalType": "uint32",
          "name": "_dealId",
          "type": "uint32"
        },
        {
          "internalType": "address[]",
          "name": "_tokens",
          "type": "address[]"
        },
        {
          "internalType": "uint256[]",
          "name": "_amounts",
          "type": "uint256[]"
        }
      ],
      "name": "multipleDeposits",
      "outputs": [],
      "stateMutability": "payable",
      "type": "function"
    },
    {
      "inputs": [
        {
          "internalType": "uint32",
          "name": "_dealId",
          "type": "uint32"
        },
        {
          "internalType": "address",
          "name": "_token",
          "type": "address"
        },
        {
          "internalType": "uint256",
          "name": "_amount",
          "type": "uint256"
        }
      ],
      "name": "sendToModule",
      "outputs": [],
      "stateMutability": "nonpayable",
      "type": "function"
    },
    {
      "inputs": [
        {
          "internalType": "address",
          "name": "_newDealManager",
          "type": "address"
        }
      ],
      "name": "setDealManager",
      "outputs": [],
      "stateMutability": "nonpayable",
      "type": "function"
    },
    {
      "inputs": [
        {
          "internalType": "uint32",
          "name": "_dealId",
          "type": "uint32"
        },
        {
          "internalType": "address",
          "name": "_token",
          "type": "address"
        },
        {
          "internalType": "uint256",
          "name": "_amount",
          "type": "uint256"
        },
        {
          "internalType": "uint32",
          "name": "_vestingCliff",
          "type": "uint32"
        },
        {
          "internalType": "uint32",
          "name": "_vestingDuration",
          "type": "uint32"
        }
      ],
      "name": "startVesting",
      "outputs": [],
      "stateMutability": "payable",
      "type": "function"
    },
    {
      "inputs": [
        {
          "internalType": "address",
          "name": "",
          "type": "address"
        }
      ],
      "name": "tokenBalances",
      "outputs": [
        {
          "internalType": "uint256",
          "name": "",
          "type": "uint256"
        }
      ],
      "stateMutability": "view",
      "type": "function"
    },
    {
      "inputs": [
        {
          "internalType": "address",
          "name": "",
          "type": "address"
        },
        {
          "internalType": "uint256",
          "name": "",
          "type": "uint256"
        }
      ],
      "name": "tokensPerDeal",
      "outputs": [
        {
          "internalType": "uint256",
          "name": "",
          "type": "uint256"
        }
      ],
      "stateMutability": "view",
      "type": "function"
    },
    {
      "inputs": [
        {
          "internalType": "address",
          "name": "_token",
          "type": "address"
        }
      ],
      "name": "verifyBalance",
      "outputs": [],
      "stateMutability": "view",
      "type": "function"
    },
    {
      "inputs": [
        {
          "internalType": "address",
          "name": "",
          "type": "address"
        }
      ],
      "name": "vestedBalances",
      "outputs": [
        {
          "internalType": "uint256",
          "name": "",
          "type": "uint256"
        }
      ],
      "stateMutability": "view",
      "type": "function"
    },
    {
      "inputs": [
        {
          "internalType": "uint256",
          "name": "",
          "type": "uint256"
        }
      ],
      "name": "vestedTokenAddresses",
      "outputs": [
        {
          "internalType": "address",
          "name": "",
          "type": "address"
        }
      ],
      "stateMutability": "view",
      "type": "function"
    },
    {
      "inputs": [
        {
          "internalType": "address",
          "name": "",
          "type": "address"
        }
      ],
      "name": "vestedTokenAmounts",
      "outputs": [
        {
          "internalType": "uint256",
          "name": "",
          "type": "uint256"
        }
      ],
      "stateMutability": "view",
      "type": "function"
    },
    {
      "inputs": [
        {
          "internalType": "uint256",
          "name": "",
          "type": "uint256"
        }
      ],
      "name": "vestings",
      "outputs": [
        {
          "internalType": "address",
          "name": "dealModule",
          "type": "address"
        },
        {
          "internalType": "uint32",
          "name": "dealId",
          "type": "uint32"
        },
        {
          "internalType": "address",
          "name": "token",
          "type": "address"
        },
        {
          "internalType": "uint256",
          "name": "totalVested",
          "type": "uint256"
        },
        {
          "internalType": "uint256",
          "name": "totalClaimed",
          "type": "uint256"
        },
        {
          "internalType": "uint32",
          "name": "startTime",
          "type": "uint32"
        },
        {
          "internalType": "uint32",
          "name": "cliff",
          "type": "uint32"
        },
        {
          "internalType": "uint32",
          "name": "duration",
          "type": "uint32"
        }
      ],
      "stateMutability": "view",
      "type": "function"
    },
    {
      "inputs": [
        {
          "internalType": "address",
          "name": "_module",
          "type": "address"
        },
        {
          "internalType": "uint32",
          "name": "_dealId",
          "type": "uint32"
        },
        {
          "internalType": "uint32",
          "name": "_depositId",
          "type": "uint32"
        }
      ],
      "name": "withdraw",
      "outputs": [
        {
          "internalType": "address",
          "name": "",
          "type": "address"
        },
        {
          "internalType": "address",
          "name": "",
          "type": "address"
        },
        {
          "internalType": "uint256",
          "name": "",
          "type": "uint256"
        }
      ],
      "stateMutability": "nonpayable",
      "type": "function"
    },
    {
      "stateMutability": "payable",
      "type": "receive"
    }
  ],
  "transactionHash": "0xaa0648f8b9b9ad28994aae29a26659dfcf70db44d7cf6b885e8343460b7f9ad7",
  "args": [],
  "numDeployments": 1,
  "solcInputHash": "7bfbbf30ca5a5618b1d18e7a63f720e7",
  "bytecode": "0x608060405234801561001057600080fd5b50612dbf806100206000396000f3fe6080604052600436106101735760003560e01c8063836d21b5116100c8578063d405929211610084578063ee697a4811610061578063ee697a48146105be578063f42a7590146105de578063f8b2cb4f1461060f578063f9f77a0b1461062f57005b8063d40592921461054d578063db07300814610560578063e20f3f3a1461059e57005b8063836d21b51461048a578063a00ddad1146104ad578063c4d66de8146104cd578063c51a0b33146104ed578063ca516cab14610500578063cb3fdb611461052057005b80634ab92e491161012f578063523fba7f1161010c578063523fba7f1461036757806362a6a82d1461039457806364650503146103f4578063821bee731461041457005b80634ab92e49146102b55780634cccfee9146102fb5780634d6e1fcb1461030e57005b806301df538d1461017c57806315b5a59e146101b95780632162a70c146101ff578063246cd5741461021f578063342c7d28146102755780634162169f1461029557005b3661017a57005b005b34801561018857600080fd5b5060015461019c906001600160a01b031681565b6040516001600160a01b0390911681526020015b60405180910390f35b3480156101c557600080fd5b506101f16101d43660046126bd565b600960209081526000928352604080842090915290825290205481565b6040519081526020016101b0565b34801561020b57600080fd5b5061017a61021a3660046126fb565b61065c565b34801561022b57600080fd5b506101f161023a366004612737565b6001600160a01b038082166000908152600360209081526040808320938716835292815282822063ffffffff86168352905220549392505050565b34801561028157600080fd5b5061017a61029036600461277a565b6108de565b3480156102a157600080fd5b5060005461019c906001600160a01b031681565b3480156102c157600080fd5b506102d56102d036600461279c565b6109c7565b604080516001600160a01b039485168152939092166020840152908201526060016101b0565b61017a6103093660046127d6565b610c82565b34801561031a57600080fd5b5061032e61032936600461279c565b610fb6565b604080516001600160a01b03968716815295909416602086015292840191909152606083015263ffffffff16608082015260a0016101b0565b34801561037357600080fd5b506101f161038236600461277a565b60026020526000908152604090205481565b3480156103a057600080fd5b506103df6103af366004612821565b6001600160a01b038216600090815260056020908152604080832063ffffffff8516845290915290205492915050565b60405163ffffffff90911681526020016101b0565b34801561040057600080fd5b5061019c61040f366004612854565b611078565b34801561042057600080fd5b5061043461042f366004612854565b6110a2565b604080516001600160a01b03998a16815263ffffffff9889166020820152989096169588019590955260608701939093526080860191909152831660a0850152821660c08401521660e0820152610100016101b0565b34801561049657600080fd5b5061049f611117565b6040516101b09291906128e1565b3480156104b957600080fd5b5061017a6104c836600461277a565b6112f2565b3480156104d957600080fd5b5061017a6104e836600461277a565b61137b565b61017a6104fb366004612954565b61146c565b34801561050c57600080fd5b5061032e61051b3660046129e5565b61152b565b34801561052c57600080fd5b506101f161053b36600461277a565b60046020526000908152604090205481565b61017a61055b366004612a18565b611598565b34801561056c57600080fd5b506101f161057b366004612a76565b600360209081526000938452604080852082529284528284209052825290205481565b3480156105aa57600080fd5b506101f16105b9366004612aa2565b611a6e565b3480156105ca57600080fd5b5061049f6105d9366004612821565b611c32565b3480156105ea57600080fd5b506105fe6105f9366004612af6565b611dd1565b6040516101b0959493929190612b3f565b34801561061b57600080fd5b506101f161062a36600461277a565b612059565b34801561063b57600080fd5b506101f161064a36600461277a565b60086020526000908152604090205481565b6001546040516342f6e38960e01b81523360048201526001600160a01b03909116906342f6e38990602401602060405180830381865afa1580156106a4573d6000803e3d6000fd5b505050506040513d601f19601f820116820180604052508101906106c89190612bac565b6107195760405162461bcd60e51b815260206004820152601c60248201527f44616f4465706f7369744d616e616765723a204572726f72203232300000000060448201526064015b60405180910390fd5b33600090815260056020908152604080832063ffffffff8716845290915281205482915b818110156108885733600090815260056020908152604080832063ffffffff8a168452909152812080548390811061077757610777612bce565b6000918252602090912060059091020160018101549091506001600160a01b0387811691161415610877576000816003015482600201546107b89190612bfa565b9050848111156107c55750835b6107cf8186612bfa565b9450808260030160008282546107e59190612c11565b909155505084610875576107fa8733886120de565b6001600160a01b03871660009081526002602052604081208054889290610822908490612bfa565b90915550506001600160a01b0387166000908152600360209081526040808320338452825280832063ffffffff8c16845290915281208054889290610868908490612bfa565b9091555061088892505050565b505b5061088181612c29565b905061073d565b5081156108d75760405162461bcd60e51b815260206004820152601c60248201527f44616f4465706f7369744d616e616765723a204572726f7220323632000000006044820152606401610710565b5050505050565b6001546001600160a01b031633146109385760405162461bcd60e51b815260206004820152601c60248201527f44616f4465706f7369744d616e616765723a204572726f7220323231000000006044820152606401610710565b6001600160a01b0381161580159061095957506001600160a01b0381163014155b6109a55760405162461bcd60e51b815260206004820152601c60248201527f44616f4465706f7369744d616e616765723a204572726f7220313030000000006044820152606401610710565b600180546001600160a01b0319166001600160a01b0392909216919091179055565b6001600160a01b038316600090815260056020908152604080832063ffffffff868116855292528220548291829190851610610a455760405162461bcd60e51b815260206004820152601c60248201527f44616f4465706f7369744d616e616765723a204572726f7220323030000000006044820152606401610710565b6001600160a01b038616600090815260056020908152604080832063ffffffff808a16855292528220805490918716908110610a8357610a83612bce565b6000918252602090912060059091020180549091506001600160a01b03163314610aef5760405162461bcd60e51b815260206004820152601c60248201527f44616f4465706f7369744d616e616765723a204572726f7220323232000000006044820152606401610710565b600081600301548260020154610b059190612bfa565b905080610b545760405162461bcd60e51b815260206004820152601c60248201527f44616f4465706f7369744d616e616765723a204572726f7220323430000000006044820152606401610710565b600282015460038084019190915560018301546001600160a01b03908116600090815260209283526040808220928c16825291835281812063ffffffff8b16825290925281208054839290610baa908490612bfa565b909155505060018201546001600160a01b031660009081526002602052604081208054839290610bdb908490612bfa565b909155505060018201548254610bfe916001600160a01b039081169116836120de565b815460018301546040805163ffffffff8a811682526001600160a01b03938416602083015291810185905292821692908a16918b16907f51d6741c321e9a89b9c34b21ddee7615692c2790cc53d71cc9153bc4154e26999060600160405180910390a481546001909201546001600160a01b03928316999216975095509350505050565b80610ccf5760405162461bcd60e51b815260206004820152601c60248201527f44616f4465706f7369744d616e616765723a204572726f7220313031000000006044820152606401610710565b6001600160a01b03821615610cef57610cea8233308461223a565b610d3e565b348114610d3e5760405162461bcd60e51b815260206004820152601c60248201527f44616f4465706f7369744d616e616765723a204572726f7220323032000000006044820152606401610710565b6001600160a01b03821660009081526002602052604081208054839290610d66908490612c11565b90915550506001600160a01b038083166000908152600360209081526040808320938816835292815282822063ffffffff8716835290529081208054839290610db0908490612c11565b90915550610dbf9050826112f2565b60056000856001600160a01b03166001600160a01b0316815260200190815260200160002060008463ffffffff1681526020019081526020016000206040518060a00160405280336001600160a01b03168152602001846001600160a01b03168152602001838152602001600081526020014263ffffffff16815250908060018154018082558091505060019003906000526020600020906005020160009091909190915060008201518160000160006101000a8154816001600160a01b0302191690836001600160a01b0316021790555060208201518160010160006101000a8154816001600160a01b0302191690836001600160a01b03160217905550604082015181600201556060820151816003015560808201518160040160006101000a81548163ffffffff021916908363ffffffff1602179055505050336001600160a01b03168363ffffffff16856001600160a01b03167f38c8c4e2262895d41b568d97d77d9378f0ede467ceb6295791f7b8305ad387046001600560008a6001600160a01b03166001600160a01b0316815260200190815260200160002060008963ffffffff16815260200190815260200160002080549050610f839190612bfa565b6040805163ffffffff90921682526001600160a01b0388166020830152810186905260600160405180910390a450505050565b6001600160a01b038316600090815260056020908152604080832063ffffffff80871685529252822080548392839283928392839291908916908110610ffe57610ffe612bce565b60009182526020918290206040805160a08101825260059390930290910180546001600160a01b039081168085526001830154909116948401859052600282015492840183905260038201546060850181905260049092015463ffffffff1660809094018490529d939c50909a5098509650945050505050565b6007818154811061108857600080fd5b6000918252602090912001546001600160a01b0316905081565b600681815481106110b257600080fd5b6000918252602090912060059091020180546001820154600283015460038401546004909401546001600160a01b03808516965063ffffffff600160a01b909504851695931693919291818116916401000000008104821691600160401b9091041688565b60075460609081908067ffffffffffffffff81111561113857611138612c44565b604051908082528060200260200182016040528015611161578160200160208202803683370190505b5092508067ffffffffffffffff81111561117d5761117d612c44565b6040519080825280602002602001820160405280156111a6578160200160208202803683370190505b50915060005b8181101561121f57600781815481106111c7576111c7612bce565b9060005260206000200160009054906101000a90046001600160a01b03168482815181106111f7576111f7612bce565b6001600160a01b039092166020928302919091019091015261121881612c29565b90506111ac565b5060065460005b818110156112eb5760008061125a6006848154811061124757611247612bce565b90600052602060002090600502016122e6565b9150915060005b858110156112d75787818151811061127b5761127b612bce565b60200260200101516001600160a01b0316836001600160a01b031614156112c757818782815181106112af576112af612bce565b602002602001018181516112c39190612c11565b9052505b6112d081612c29565b9050611261565b505050806112e490612c29565b9050611226565b5050509091565b6001600160a01b0381166000908152600460209081526040808320546002909252909120546113219190612c11565b61132a82612059565b10156113785760405162461bcd60e51b815260206004820152601c60248201527f44616f4465706f7369744d616e616765723a204572726f7220323435000000006044820152606401610710565b50565b6000546001600160a01b0316156113d45760405162461bcd60e51b815260206004820152601c60248201527f44616f4465706f7369744d616e616765723a204572726f7220303031000000006044820152606401610710565b6001600160a01b038116158015906113f557506001600160a01b0381163014155b6114415760405162461bcd60e51b815260206004820152601c60248201527f44616f4465706f7369744d616e616765723a204572726f7220313030000000006044820152606401610710565b600080546001600160a01b039092166001600160a01b03199283161790556001805490911633179055565b8281146114bb5760405162461bcd60e51b815260206004820152601c60248201527f44616f4465706f7369744d616e616765723a204572726f7220313032000000006044820152606401610710565b8260005b818110156115215761151188888888858181106114de576114de612bce565b90506020020160208101906114f3919061277a565b87878681811061150557611505612bce565b90506020020135610c82565b61151a81612c29565b90506114bf565b5050505050505050565b6005602052826000526040600020602052816000526040600020818154811061155357600080fd5b6000918252602090912060059091020180546001820154600283015460038401546004909401546001600160a01b039384169750929091169450925063ffffffff1685565b6001546040516342f6e38960e01b81523360048201526001600160a01b03909116906342f6e38990602401602060405180830381865afa1580156115e0573d6000803e3d6000fd5b505050506040513d601f19601f820116820180604052508101906116049190612bac565b6116505760405162461bcd60e51b815260206004820152601c60248201527f44616f4465706f7369744d616e616765723a204572726f7220323230000000006044820152606401610710565b8261169d5760405162461bcd60e51b815260206004820152601c60248201527f44616f4465706f7369744d616e616765723a204572726f7220313031000000006044820152606401610710565b8063ffffffff168263ffffffff1611156116f95760405162461bcd60e51b815260206004820152601c60248201527f44616f4465706f7369744d616e616765723a204572726f7220323031000000006044820152606401610710565b6001600160a01b03841615611719576117148433308661223a565b611768565b3483146117685760405162461bcd60e51b815260206004820152601c60248201527f44616f4465706f7369744d616e616765723a204572726f7220323032000000006044820152606401610710565b6001600160a01b03841660009081526004602052604081208054859290611790908490612c11565b9091555061179f9050846112f2565b604080516101008101825233815263ffffffff80881660208084019182526001600160a01b03898116858701818152606087018b815260006080890181815242891660a08b019081528d8a1660c08c019081528d8b1660e08d01908152600680546001810182559086529c516005909d027ff652222313e28459528d920b65115c16c04f3efc82aaedc97be59f3f377c0d3f810180549c518e16600160a01b026001600160c01b0319909d169e8b169e909e179b909b17909c5594517ff652222313e28459528d920b65115c16c04f3efc82aaedc97be59f3f377c0d408a018054919098166001600160a01b0319919091161790965591517ff652222313e28459528d920b65115c16c04f3efc82aaedc97be59f3f377c0d4188015590517ff652222313e28459528d920b65115c16c04f3efc82aaedc97be59f3f377c0d4287015592517ff652222313e28459528d920b65115c16c04f3efc82aaedc97be59f3f377c0d439095018054915197518716600160401b026bffffffff0000000000000000199888166401000000000267ffffffffffffffff199093169690971695909517179590951693909317909155918152600890915220546119a857600780546001810182556000919091527fa66cc928b5edb82af9bd49922954155ab7b0942694bea4ce44661d9a8736c6880180546001600160a01b0319166001600160a01b0386161790555b6001600160a01b038416600090815260086020526040812080548592906119d0908490612c11565b909155505033600090815260096020908152604080832063ffffffff8916845290915281208054909190611a0390612c29565b909155506040805163ffffffff848116825283811660208301526001600160a01b038716828401526060820186905291514283169288169133917fa493d6c9e0b25f100e3bcacc5e236c14199bbdfe5e194c067081619b0998b9829181900360800190a45050505050565b60008060005b6001600160a01b038716600090815260056020908152604080832063ffffffff8a168452909152902054811015611c28576001600160a01b03878116600090815260056020908152604080832063ffffffff8b168452909152902080549187169183908110611ae557611ae5612bce565b60009182526020909120600590910201546001600160a01b0316148015611b6657506001600160a01b03878116600090815260056020908152604080832063ffffffff8b168452909152902080549186169183908110611b4757611b47612bce565b60009182526020909120600160059092020101546001600160a01b0316145b15611c18576001600160a01b038716600090815260056020908152604080832063ffffffff8a1684529091529020805482908110611ba657611ba6612bce565b60009182526020808320600592830201600301546001600160a01b038b168452918152604080842063ffffffff8b168552909152909120805483908110611bef57611bef612bce565b906000526020600020906005020160020154611c0b9190612bfa565b611c159083612c11565b91505b611c2181612c29565b9050611a74565b5095945050505050565b6001600160a01b038216600090815260096020908152604080832063ffffffff8516845290915290205460609081908067ffffffffffffffff811115611c7a57611c7a612c44565b604051908082528060200260200182016040528015611ca3578160200160208202803683370190505b5092508067ffffffffffffffff811115611cbf57611cbf612c44565b604051908082528060200260200182016040528015611ce8578160200160208202803683370190505b50915060008115611dc75760005b600654811015611dc557600060068281548110611d1557611d15612bce565b6000918252602090912060059091020180549091506001600160a01b038981169116148015611d545750805463ffffffff888116600160a01b90920416145b15611db457611d62816122e6565b878581518110611d7457611d74612bce565b60200260200101878681518110611d8d57611d8d612bce565b60209081029190910101919091526001600160a01b039091169052611db183612c29565b92505b50611dbe81612c29565b9050611cf6565b505b50505b9250929050565b606080808080600087611de5886001612c5a565b611def9190612c82565b90508063ffffffff1667ffffffffffffffff811115611e1057611e10612c44565b604051908082528060200260200182016040528015611e39578160200160208202803683370190505b5095508063ffffffff1667ffffffffffffffff811115611e5b57611e5b612c44565b604051908082528060200260200182016040528015611e84578160200160208202803683370190505b5094508063ffffffff1667ffffffffffffffff811115611ea657611ea6612c44565b604051908082528060200260200182016040528015611ecf578160200160208202803683370190505b5093508063ffffffff1667ffffffffffffffff811115611ef157611ef1612c44565b604051908082528060200260200182016040528015611f1a578160200160208202803683370190505b5092508063ffffffff1667ffffffffffffffff811115611f3c57611f3c612c44565b604051908082528060200260200182016040528015611f65578160200160208202803683370190505b5091506000885b8863ffffffff168163ffffffff161161204b57611f8a8c8c83610fb6565b8063ffffffff1690508c8781518110611fa557611fa5612bce565b602002602001018c8881518110611fbe57611fbe612bce565b602002602001018c8981518110611fd757611fd7612bce565b602002602001018c8a81518110611ff057611ff0612bce565b602002602001018c8b8151811061200957612009612bce565b602090810291909101019490945293909252929091526001600160a01b0392831690529116905261203982612c29565b915061204481612ca7565b9050611f6c565b505050945094509450945094565b60006001600160a01b038216612070575047919050565b6040516370a0823160e01b81523060048201526001600160a01b038316906370a0823190602401602060405180830381865afa1580156120b4573d6000803e3d6000fd5b505050506040513d601f19601f820116820180604052508101906120d89190612ccb565b92915050565b6001600160a01b038316156121975760405163a9059cbb60e01b81526001600160a01b0383811660048301526024820183905284169063a9059cbb906044016020604051808303816000875af1925050508015612158575060408051601f3d908101601f1916820190925261215591810190612bac565b60015b6121745760405162461bcd60e51b815260040161071090612ce4565b806121915760405162461bcd60e51b815260040161071090612ce4565b50505050565b6000826001600160a01b03168260405160006040518083038185875af1925050503d80600081146121e4576040519150601f19603f3d011682016040523d82523d6000602084013e6121e9565b606091505b50509050806121915760405162461bcd60e51b815260206004820152601c60248201527f44616f4465706f7369744d616e616765723a204572726f7220323432000000006044820152606401610710565b6040516323b872dd60e01b81526001600160a01b0384811660048301528381166024830152604482018390528516906323b872dd906064016020604051808303816000875af19250505080156122ad575060408051601f3d908101601f191682019092526122aa91810190612bac565b60015b6122c95760405162461bcd60e51b815260040161071090612ce4565b806108d75760405162461bcd60e51b815260040161071090612ce4565b60008082600201548360030154101561269c5760048301546000906123119063ffffffff1642612c82565b600485015490915063ffffffff6401000000009091048116908216101561234857505050600101546001600160a01b031690600090565b600484015463ffffffff600160401b9091048116908216106123ce57836003015484600201546123789190612bfa565b6002850154600386015584546001600160a01b0381166000908152600960209081526040808320600160a01b90940463ffffffff1683529290529081208054929450906123c483612d1b565b919050555061242d565b6004840154600285015463ffffffff600160401b9092048216916123f59190841690612d32565b6123ff9190612d51565b91508360030154826124119190612bfa565b9150818460030160008282546124279190612c11565b90915550505b60018401546001600160a01b031660008181526008602052604081208054929550849290919061245e908490612bfa565b90915550506001600160a01b0383166000908152600860205260409020546125a15760075460005b8181101561259e57846001600160a01b0316600782815481106124ab576124ab612bce565b6000918252602090912001546001600160a01b0316141561258e576124d1600183612bfa565b811461254f5760076124e4600184612bfa565b815481106124f4576124f4612bce565b600091825260209091200154600780546001600160a01b03909216918390811061252057612520612bce565b9060005260206000200160006101000a8154816001600160a01b0302191690836001600160a01b031602179055505b600780548061256057612560612d73565b600082815260209020810160001990810180546001600160a01b031916905501905561258b82612d1b565b91505b61259781612c29565b9050612486565b50505b8360020154846003015411156125f95760405162461bcd60e51b815260206004820152601c60248201527f44616f4465706f7369744d616e616765723a204572726f7220323434000000006044820152606401610710565b6001600160a01b03831660009081526004602052604081208054849290612621908490612bfa565b909155505060005461263e9084906001600160a01b0316846120de565b6000548454604080516001600160a01b0387811682526020820187905293841693600160a01b840463ffffffff169316917f965de25c186a7b2d3d49b5ced5c89058b0a7bf8779da6ebe45ea019ec9e7cdf6910160405180910390a4505b915091565b80356001600160a01b03811681146126b857600080fd5b919050565b600080604083850312156126d057600080fd5b6126d9836126a1565b946020939093013593505050565b803563ffffffff811681146126b857600080fd5b60008060006060848603121561271057600080fd5b612719846126e7565b9250612727602085016126a1565b9150604084013590509250925092565b60008060006060848603121561274c57600080fd5b612755846126a1565b9250612763602085016126e7565b9150612771604085016126a1565b90509250925092565b60006020828403121561278c57600080fd5b612795826126a1565b9392505050565b6000806000606084860312156127b157600080fd5b6127ba846126a1565b92506127c8602085016126e7565b9150612771604085016126e7565b600080600080608085870312156127ec57600080fd5b6127f5856126a1565b9350612803602086016126e7565b9250612811604086016126a1565b9396929550929360600135925050565b6000806040838503121561283457600080fd5b61283d836126a1565b915061284b602084016126e7565b90509250929050565b60006020828403121561286657600080fd5b5035919050565b600081518084526020808501945080840160005b838110156128a65781516001600160a01b031687529582019590820190600101612881565b509495945050505050565b600081518084526020808501945080840160005b838110156128a6578151875295820195908201906001016128c5565b6040815260006128f4604083018561286d565b828103602084015261290681856128b1565b95945050505050565b60008083601f84011261292157600080fd5b50813567ffffffffffffffff81111561293957600080fd5b6020830191508360208260051b8501011115611dca57600080fd5b6000806000806000806080878903121561296d57600080fd5b612976876126a1565b9550612984602088016126e7565b9450604087013567ffffffffffffffff808211156129a157600080fd5b6129ad8a838b0161290f565b909650945060608901359150808211156129c657600080fd5b506129d389828a0161290f565b979a9699509497509295939492505050565b6000806000606084860312156129fa57600080fd5b612a03846126a1565b95602085013595506040909401359392505050565b600080600080600060a08688031215612a3057600080fd5b612a39866126e7565b9450612a47602087016126a1565b935060408601359250612a5c606087016126e7565b9150612a6a608087016126e7565b90509295509295909350565b600080600060608486031215612a8b57600080fd5b612a94846126a1565b92506127c8602085016126a1565b60008060008060808587031215612ab857600080fd5b612ac1856126a1565b9350612acf602086016126e7565b9250612add604086016126a1565b9150612aeb606086016126a1565b905092959194509250565b60008060008060808587031215612b0c57600080fd5b612b15856126a1565b9350612b23602086016126e7565b9250612b31604086016126e7565b9150612aeb606086016126e7565b60a081526000612b5260a083018861286d565b8281036020840152612b64818861286d565b90508281036040840152612b7881876128b1565b90508281036060840152612b8c81866128b1565b90508281036080840152612ba081856128b1565b98975050505050505050565b600060208284031215612bbe57600080fd5b8151801515811461279557600080fd5b634e487b7160e01b600052603260045260246000fd5b634e487b7160e01b600052601160045260246000fd5b600082821015612c0c57612c0c612be4565b500390565b60008219821115612c2457612c24612be4565b500190565b6000600019821415612c3d57612c3d612be4565b5060010190565b634e487b7160e01b600052604160045260246000fd5b600063ffffffff808316818516808303821115612c7957612c79612be4565b01949350505050565b600063ffffffff83811690831681811015612c9f57612c9f612be4565b039392505050565b600063ffffffff80831681811415612cc157612cc1612be4565b6001019392505050565b600060208284031215612cdd57600080fd5b5051919050565b6020808252601c908201527f44616f4465706f7369744d616e616765723a204572726f722032343100000000604082015260600190565b600081612d2a57612d2a612be4565b506000190190565b6000816000190483118215151615612d4c57612d4c612be4565b500290565b600082612d6e57634e487b7160e01b600052601260045260246000fd5b500490565b634e487b7160e01b600052603160045260246000fdfea2646970667358221220aa6fb896daf72aa50ac9501c0330a8424ffd7adacd1ac66c57d8c48e4f90d76264736f6c634300080a0033",
  "devdoc": {
    "events": {
      "Deposited(address,uint32,address,uint32,address,uint256)": {
        "params": {
          "amount": "The amount that is deposited",
          "dealId": "A specific deal, that is part of the dealModule, for which a deposit is made",
          "dealModule": "The module address of which the dealId is part off",
          "depositId": "The ID of the deposit action (position in array)",
          "depositor": "The address of the depositor",
          "token": "The address of the ERC20 token or ETH (ZERO address)deposited"
        }
      },
      "VestingClaimed(address,uint32,address,address,uint256)": {
        "params": {
          "claimed": "The amount that is being claimed",
          "dao": "The address of the DAO, to which the claimed vesting is sent",
          "dealId": "A specific deal, that is part of the dealModule, for which a vesting is claimed",
          "dealModule": "The module address of which the dealId is part off",
          "token": "The address of the ERC20 token or ETH (ZERO address)"
        }
      },
      "VestingStarted(address,uint32,uint256,uint32,uint32,address,uint256)": {
        "params": {
          "amount": "The amount that is being vested",
          "dealId": "A specific deal, that is part of the dealModule, for which a vesting is started",
          "dealModule": "The module address of which the dealId is part off",
          "token": "The address of the ERC20 token or ETH (ZERO address)",
          "vestingCliff": "The vesting cliff, after which tokens can be claimed",
          "vestingDuration": "The duration the tokens are vested, in seconds",
          "vestingStart": "The Unix timestamp of when the vesting has been initiated"
        }
      },
      "Withdrawn(address,uint32,address,uint32,address,uint256)": {
        "params": {
          "amount": "The amount that is withdrawn",
          "dealId": "A specific deal, that is part of the dealModule, for which a withdraw is made",
          "dealModule": "The module address of which the dealId is part off",
          "depositId": "The ID of the deposit action (position in array)",
          "depositor": "The address of the depositor of the funds that are withdrawn",
          "token": "The address of the ERC20 token or ETH (ZERO address) withdrawn"
        }
      }
    },
    "kind": "dev",
    "methods": {
      "claimDealVestings(address,uint32)": {
        "details": "This function can be called to retrieve the claimable amount, to show in the frontend for example",
        "params": {
          "_dealId": "A specific deal, that is part of the dealModule",
          "_module": "The module address of which the dealId is part off"
        },
        "returns": {
          "amounts": "     Array of amounts claimed, in the same order as the tokens array",
          "tokens": "      Array of addresses of the claimed tokens, in the same order as the amounts array"
        }
      },
      "claimVestings()": {
        "details": "This function can be called to retrieve the claimable amounts, to show in the frontend for example",
        "returns": {
          "amounts": "     Array of amounts claimed, in the same order as the tokens array",
          "tokens": "      Array of addresses of the claimed tokens"
        }
      },
      "deposit(address,uint32,address,uint256)": {
        "details": "Note: if ETH is deposited, the token address should be ZERO (0)",
        "params": {
          "_amount": "The amount that is deposited",
          "_dealId": "The dealId to which this deposit is part of",
          "_module": "The address of the module for which is being deposited",
          "_token": "The address of the ERC20 token or ETH (ZERO address)"
        }
      },
      "getAvailableDealBalance(address,uint32,address)": {
        "params": {
          "_dealId": "The dealId that relates to the ERC20 token or ETH balance",
          "_module": "The address of the module to which the dealId is part of",
          "_token": "The address of the ERC20 token or ETH (ZERO address)"
        },
        "returns": {
          "_0": "uint256      The balance amount of the ERC20 token or ETH, specific to the dealId"
        }
      },
      "getBalance(address)": {
        "params": {
          "_token": "The address of the ERC20 token or ETH (ZERO address)"
        },
        "returns": {
          "_0": "uint256      The balance the contracts holds for the _token parameter"
        }
      },
      "getDeposit(address,uint32,uint32)": {
        "details": "If ETH has been deposited, the token address returned will show ZERO (0)",
        "params": {
          "_dealId": "The dealId to for which the deposit has been made",
          "_depositId": "The ID of the deposit action (position in array)",
          "_module": "The address of the module of which the dealId is part of"
        },
        "returns": {
          "_0": "address      The depositor address",
          "_1": "address      The address of the ERC20 token or ETH (ZERO address)",
          "_2": "uint256      The amount that has been deposited",
          "_3": "uint256      The amount already used in a deal",
          "_4": "uint32       The Unix timestamp of the deposit"
        }
      },
      "getDepositRange(address,uint32,uint32,uint32)": {
        "details": "If ETH has been deposited, the token address returned will show ZERO (0)",
        "params": {
          "_dealId": "The dealId to for which the deposits have been made",
          "_fromDepositId": "First depositId (element in array) of the range IDs",
          "_module": "The address of the module of which the dealId is part of",
          "_toDepositId": "Last depositId (element in array) of the range of IDs"
        },
        "returns": {
          "amounts": "         Array of amounts, sorted similar as tokens array, for the given deposit range",
          "depositors": "      Array of addresses of the depositors in the deposit range",
          "times": "           Array of Unix timestamps of the deposits, for the given deposit range",
          "tokens": "          Array of token addresses or ETH (ZERO address) in the deposit range",
          "usedAmounts": "     Array of amounts already used in a deal, for the given deposit range"
        }
      },
      "getTotalDepositCount(address,uint32)": {
        "params": {
          "_dealId": "The dealId for which deposits have been made",
          "_module": "The address of the module to which the dealId is part of"
        },
        "returns": {
          "_0": "uint32       The total amount of deposits made, for a given dealId"
        }
      },
      "getWithdrawableAmountOfDepositor(address,uint32,address,address)": {
        "details": "If ETH has been deposited, the token address used should be ZERO (0)",
        "params": {
          "_dealId": "The dealId for which a deposit has been made, to check for withdrawable amounts",
          "_depositor": "The address of the depositor that is able to withdraw, deposited amounts",
          "_module": "The address of the module of which the dealId is part of",
          "_token": "The address of the ERC20 token or ETH (ZERO address)"
        },
        "returns": {
          "_0": "uint256      The available amount that can be withdrawn by the depositor"
        }
      },
      "initialize(address)": {
        "params": {
          "_dao": "The DAO address to which this contract belongs"
        }
      },
      "multipleDeposits(address,uint32,address[],uint256[])": {
        "details": "Note: if ETH is deposited, the token address should be ZERO (0) Note: when calling this function, it is only possible to have 1 ETH deposit, meaning only 1  of the token addresses can be a ZERO address     ",
        "params": {
          "_amounts": "Array of amounts that are deposited",
          "_dealId": "The dealId to which the deposits are part of",
          "_module": "The address of the module for which is being deposited",
          "_tokens": "Array of addresses of the ERC20 tokens or ETH (ZERO address)"
        }
      },
      "sendToModule(uint32,address,uint256)": {
        "params": {
          "_amount": "The amount that is sent to the module",
          "_token": "The address of the ERC20 token or ETH (ZERO address)"
        }
      },
      "setDealManager(address)": {
        "params": {
          "_newDealManager": "The address of the new DealManager"
        }
      },
      "startVesting(uint32,address,uint256,uint32,uint32)": {
        "params": {
          "_amount": "The total amount being vested",
          "_token": "The address of the ERC20 token or ETH (ZERO address)",
          "_vestingCliff": "The duration after which tokens can be claimed starting from the vesting start, in seconds",
          "_vestingDuration": "The duration the tokens are vested, in seconds"
        }
      },
      "verifyBalance(address)": {
        "params": {
          "_token": "Address of the ERC20 token or ETH (ZERO address)"
        }
      },
      "withdraw(address,uint32,uint32)": {
        "params": {
          "_dealId": "The dealId to for which the deposit has been made, that is being withdrawn",
          "_depositId": "The ID of the deposit action (position in array)",
          "_module": "The address of the module to which the dealId is part of"
        },
        "returns": {
          "_0": "address      The address of the depositor",
          "_1": "address      The address of the ERC20 token or ETH (ZERO address)",
          "_2": "uint256      The available amount that is withdrawn"
        }
      }
    },
    "title": "PrimeDeals Dao Deposit Manager",
    "version": 1
  },
  "userdoc": {
    "events": {
      "Deposited(address,uint32,address,uint32,address,uint256)": {
        "notice": "This event is emitted when a deposit is made"
      },
      "VestingClaimed(address,uint32,address,address,uint256)": {
        "notice": "This event is emitted when a vesting is claimed"
      },
      "VestingStarted(address,uint32,uint256,uint32,uint32,address,uint256)": {
        "notice": "This event is emitted when a vesting is started"
      },
      "Withdrawn(address,uint32,address,uint32,address,uint256)": {
        "notice": "This event is emitted when a withdraw is made"
      }
    },
    "kind": "user",
    "methods": {
      "availableDealBalances(address,address,uint32)": {
        "notice": "token address => deal module address => deal module id => balance"
      },
      "claimDealVestings(address,uint32)": {
        "notice": "Claims all the possible ERC20 tokens and ETH, associated with a single dealId"
      },
      "claimVestings()": {
        "notice": "Claims all the possible ERC20 tokens and ETH, across all deals that are part of this DaoDepositManager"
      },
      "dao()": {
        "notice": "DAO address to which this DaoDepositContract is linked"
      },
      "dealManager()": {
        "notice": "Address of the DealManager"
      },
      "deposit(address,uint32,address,uint256)": {
        "notice": "Transfers the token amount to the DaoDepositManager and stores the parameters in a Deposit structure."
      },
      "deposits(address,uint256,uint256)": {
        "notice": "deal module address => deal id => deposits array"
      },
      "getAvailableDealBalance(address,uint32,address)": {
        "notice": "Returns the stored amount of an ERC20 token or ETH, for a given deal"
      },
      "getBalance(address)": {
        "notice": "Returns the balance the DaoDepositContract holds, for a given ERC20 token or ETH (ZERO address)"
      },
      "getDeposit(address,uint32,uint32)": {
        "notice": "Returns all the members in the Deposit struct for a given depositId"
      },
      "getDepositRange(address,uint32,uint32,uint32)": {
        "notice": "Returns all the members from all the Deposits within a given range of depositIds"
      },
      "getTotalDepositCount(address,uint32)": {
        "notice": "Returns the total number of deposits made, for a given dealId"
      },
      "getWithdrawableAmountOfDepositor(address,uint32,address,address)": {
        "notice": "Returns the withdrawable amount of a specifc token and dealId, for a given address"
      },
      "initialize(address)": {
        "notice": "Initialize the DaoDepositManager"
      },
      "multipleDeposits(address,uint32,address[],uint256[])": {
        "notice": "Transfers multiple tokens and amounts to the DaoDepositManager and stores the parameters for each deposit in a Deposit structure."
      },
      "sendToModule(uint32,address,uint256)": {
        "notice": "Sends the token and amount associated with the dealId into the Deal module"
      },
      "setDealManager(address)": {
        "notice": "Sets a new address for the DealManager"
      },
      "startVesting(uint32,address,uint256,uint32,uint32)": {
        "notice": "Starts the vesting periode for a given token plus amount, associated to a dealId"
      },
      "tokenBalances(address)": {
        "notice": "token address => balance"
      },
      "tokensPerDeal(address,uint256)": {
        "notice": "deal module address => deal id => token counter"
      },
      "verifyBalance(address)": {
        "notice": "Verifies if the DaoDepositContract holds the balance as expected"
      },
      "vestedBalances(address)": {
        "notice": "token address => balance"
      },
      "vestedTokenAddresses(uint256)": {
        "notice": "Array of all the token addresses that are vested"
      },
      "vestedTokenAmounts(address)": {
        "notice": "token address => amount"
      },
      "vestings(uint256)": {
        "notice": "Array of vestings where the index is the vesting ID"
      },
      "withdraw(address,uint32,uint32)": {
        "notice": "Sends the token and amount, stored in the Deposit associated with the depositId to the depositor"
      }
    },
    "notice": "Smart contract to manage the deposits, withdraws and vestings of a DAO",
    "version": 1
  },
  "storageLayout": {
    "storage": [
      {
        "astId": 929,
        "contract": "contracts/DaoDepositManager.sol:DaoDepositManager",
        "label": "dao",
        "offset": 0,
        "slot": "0",
        "type": "t_address"
      },
      {
        "astId": 933,
        "contract": "contracts/DaoDepositManager.sol:DaoDepositManager",
        "label": "dealManager",
        "offset": 0,
        "slot": "1",
        "type": "t_contract(IDealManager)3150"
      },
      {
        "astId": 938,
        "contract": "contracts/DaoDepositManager.sol:DaoDepositManager",
        "label": "tokenBalances",
        "offset": 0,
        "slot": "2",
        "type": "t_mapping(t_address,t_uint256)"
      },
      {
        "astId": 947,
        "contract": "contracts/DaoDepositManager.sol:DaoDepositManager",
        "label": "availableDealBalances",
        "offset": 0,
        "slot": "3",
        "type": "t_mapping(t_address,t_mapping(t_address,t_mapping(t_uint32,t_uint256)))"
      },
      {
        "astId": 952,
        "contract": "contracts/DaoDepositManager.sol:DaoDepositManager",
        "label": "vestedBalances",
        "offset": 0,
        "slot": "4",
        "type": "t_mapping(t_address,t_uint256)"
      },
      {
        "astId": 961,
        "contract": "contracts/DaoDepositManager.sol:DaoDepositManager",
        "label": "deposits",
        "offset": 0,
        "slot": "5",
        "type": "t_mapping(t_address,t_mapping(t_uint256,t_array(t_struct(Deposit)998_storage)dyn_storage))"
      },
      {
        "astId": 966,
        "contract": "contracts/DaoDepositManager.sol:DaoDepositManager",
        "label": "vestings",
        "offset": 0,
        "slot": "6",
        "type": "t_array(t_struct(Vesting)1023_storage)dyn_storage"
      },
      {
        "astId": 970,
        "contract": "contracts/DaoDepositManager.sol:DaoDepositManager",
        "label": "vestedTokenAddresses",
        "offset": 0,
        "slot": "7",
        "type": "t_array(t_address)dyn_storage"
      },
      {
        "astId": 975,
        "contract": "contracts/DaoDepositManager.sol:DaoDepositManager",
        "label": "vestedTokenAmounts",
        "offset": 0,
        "slot": "8",
        "type": "t_mapping(t_address,t_uint256)"
      },
      {
        "astId": 982,
        "contract": "contracts/DaoDepositManager.sol:DaoDepositManager",
        "label": "tokensPerDeal",
        "offset": 0,
        "slot": "9",
        "type": "t_mapping(t_address,t_mapping(t_uint256,t_uint256))"
      }
    ],
    "types": {
      "t_address": {
        "encoding": "inplace",
        "label": "address",
        "numberOfBytes": "20"
      },
      "t_array(t_address)dyn_storage": {
        "base": "t_address",
        "encoding": "dynamic_array",
        "label": "address[]",
        "numberOfBytes": "32"
      },
      "t_array(t_struct(Deposit)998_storage)dyn_storage": {
        "base": "t_struct(Deposit)998_storage",
        "encoding": "dynamic_array",
        "label": "struct DaoDepositManager.Deposit[]",
        "numberOfBytes": "32"
      },
      "t_array(t_struct(Vesting)1023_storage)dyn_storage": {
        "base": "t_struct(Vesting)1023_storage",
        "encoding": "dynamic_array",
        "label": "struct DaoDepositManager.Vesting[]",
        "numberOfBytes": "32"
      },
      "t_contract(IDealManager)3150": {
        "encoding": "inplace",
        "label": "contract IDealManager",
        "numberOfBytes": "20"
      },
      "t_mapping(t_address,t_mapping(t_address,t_mapping(t_uint32,t_uint256)))": {
        "encoding": "mapping",
        "key": "t_address",
        "label": "mapping(address => mapping(address => mapping(uint32 => uint256)))",
        "numberOfBytes": "32",
        "value": "t_mapping(t_address,t_mapping(t_uint32,t_uint256))"
      },
      "t_mapping(t_address,t_mapping(t_uint256,t_array(t_struct(Deposit)998_storage)dyn_storage))": {
        "encoding": "mapping",
        "key": "t_address",
        "label": "mapping(address => mapping(uint256 => struct DaoDepositManager.Deposit[]))",
        "numberOfBytes": "32",
        "value": "t_mapping(t_uint256,t_array(t_struct(Deposit)998_storage)dyn_storage)"
      },
      "t_mapping(t_address,t_mapping(t_uint256,t_uint256))": {
        "encoding": "mapping",
        "key": "t_address",
        "label": "mapping(address => mapping(uint256 => uint256))",
        "numberOfBytes": "32",
        "value": "t_mapping(t_uint256,t_uint256)"
      },
      "t_mapping(t_address,t_mapping(t_uint32,t_uint256))": {
        "encoding": "mapping",
        "key": "t_address",
        "label": "mapping(address => mapping(uint32 => uint256))",
        "numberOfBytes": "32",
        "value": "t_mapping(t_uint32,t_uint256)"
      },
      "t_mapping(t_address,t_uint256)": {
        "encoding": "mapping",
        "key": "t_address",
        "label": "mapping(address => uint256)",
        "numberOfBytes": "32",
        "value": "t_uint256"
      },
      "t_mapping(t_uint256,t_array(t_struct(Deposit)998_storage)dyn_storage)": {
        "encoding": "mapping",
        "key": "t_uint256",
        "label": "mapping(uint256 => struct DaoDepositManager.Deposit[])",
        "numberOfBytes": "32",
        "value": "t_array(t_struct(Deposit)998_storage)dyn_storage"
      },
      "t_mapping(t_uint256,t_uint256)": {
        "encoding": "mapping",
        "key": "t_uint256",
        "label": "mapping(uint256 => uint256)",
        "numberOfBytes": "32",
        "value": "t_uint256"
      },
      "t_mapping(t_uint32,t_uint256)": {
        "encoding": "mapping",
        "key": "t_uint32",
        "label": "mapping(uint32 => uint256)",
        "numberOfBytes": "32",
        "value": "t_uint256"
      },
      "t_struct(Deposit)998_storage": {
        "encoding": "inplace",
        "label": "struct DaoDepositManager.Deposit",
        "members": [
          {
            "astId": 985,
            "contract": "contracts/DaoDepositManager.sol:DaoDepositManager",
            "label": "depositor",
            "offset": 0,
            "slot": "0",
            "type": "t_address"
          },
          {
            "astId": 988,
            "contract": "contracts/DaoDepositManager.sol:DaoDepositManager",
            "label": "token",
            "offset": 0,
            "slot": "1",
            "type": "t_address"
          },
          {
            "astId": 991,
            "contract": "contracts/DaoDepositManager.sol:DaoDepositManager",
            "label": "amount",
            "offset": 0,
            "slot": "2",
            "type": "t_uint256"
          },
          {
            "astId": 994,
            "contract": "contracts/DaoDepositManager.sol:DaoDepositManager",
            "label": "used",
            "offset": 0,
            "slot": "3",
            "type": "t_uint256"
          },
          {
            "astId": 997,
            "contract": "contracts/DaoDepositManager.sol:DaoDepositManager",
            "label": "depositedAt",
            "offset": 0,
            "slot": "4",
            "type": "t_uint32"
          }
        ],
        "numberOfBytes": "160"
      },
      "t_struct(Vesting)1023_storage": {
        "encoding": "inplace",
        "label": "struct DaoDepositManager.Vesting",
        "members": [
          {
            "astId": 1001,
            "contract": "contracts/DaoDepositManager.sol:DaoDepositManager",
            "label": "dealModule",
            "offset": 0,
            "slot": "0",
            "type": "t_address"
          },
          {
            "astId": 1004,
            "contract": "contracts/DaoDepositManager.sol:DaoDepositManager",
            "label": "dealId",
            "offset": 20,
            "slot": "0",
            "type": "t_uint32"
          },
          {
            "astId": 1007,
            "contract": "contracts/DaoDepositManager.sol:DaoDepositManager",
            "label": "token",
            "offset": 0,
            "slot": "1",
            "type": "t_address"
          },
          {
            "astId": 1010,
            "contract": "contracts/DaoDepositManager.sol:DaoDepositManager",
            "label": "totalVested",
            "offset": 0,
            "slot": "2",
            "type": "t_uint256"
          },
          {
            "astId": 1013,
            "contract": "contracts/DaoDepositManager.sol:DaoDepositManager",
            "label": "totalClaimed",
            "offset": 0,
            "slot": "3",
            "type": "t_uint256"
          },
          {
            "astId": 1016,
            "contract": "contracts/DaoDepositManager.sol:DaoDepositManager",
            "label": "startTime",
            "offset": 0,
            "slot": "4",
            "type": "t_uint32"
          },
          {
            "astId": 1019,
            "contract": "contracts/DaoDepositManager.sol:DaoDepositManager",
            "label": "cliff",
            "offset": 4,
            "slot": "4",
            "type": "t_uint32"
          },
          {
            "astId": 1022,
            "contract": "contracts/DaoDepositManager.sol:DaoDepositManager",
            "label": "duration",
            "offset": 8,
            "slot": "4",
            "type": "t_uint32"
          }
        ],
        "numberOfBytes": "160"
      },
      "t_uint256": {
        "encoding": "inplace",
        "label": "uint256",
        "numberOfBytes": "32"
      },
      "t_uint32": {
        "encoding": "inplace",
        "label": "uint32",
        "numberOfBytes": "4"
      }
    }
  }
}