{
  "address": "0x0b500dB17E4D9e8167253956546A9A2b3412a432",
  "abi": [
    {
      "anonymous": false,
      "inputs": [
        {
          "indexed": true,
          "internalType": "address",
          "name": "dao",
          "type": "address"
        },
        {
          "indexed": true,
          "internalType": "address",
          "name": "daoDepositManager",
          "type": "address"
        }
      ],
      "name": "DaoDepositManagerCreated",
      "type": "event"
    },
    {
      "anonymous": false,
      "inputs": [
        {
          "indexed": true,
          "internalType": "address",
          "name": "previousOwner",
          "type": "address"
        },
        {
          "indexed": true,
          "internalType": "address",
          "name": "newOwner",
          "type": "address"
        }
      ],
      "name": "OwnershipTransferred",
      "type": "event"
    },
    {
      "inputs": [
        {
          "internalType": "address",
          "name": "_address",
          "type": "address"
        }
      ],
      "name": "addressIsModule",
      "outputs": [
        {
          "internalType": "bool",
          "name": "",
          "type": "bool"
        }
      ],
      "stateMutability": "view",
      "type": "function"
    },
    {
      "inputs": [
        {
          "internalType": "address",
          "name": "_dao",
          "type": "address"
        }
      ],
      "name": "createDaoDepositManager",
      "outputs": [],
      "stateMutability": "nonpayable",
      "type": "function"
    },
    {
      "inputs": [
        {
          "internalType": "address",
          "name": "",
          "type": "address"
        }
      ],
      "name": "daoDepositManager",
      "outputs": [
        {
          "internalType": "address",
          "name": "",
          "type": "address"
        }
      ],
      "stateMutability": "view",
      "type": "function"
    },
    {
      "inputs": [],
      "name": "daoDepositManagerImplementation",
      "outputs": [
        {
          "internalType": "address",
          "name": "",
          "type": "address"
        }
      ],
      "stateMutability": "view",
      "type": "function"
    },
    {
      "inputs": [
        {
          "internalType": "address",
          "name": "_moduleAddress",
          "type": "address"
        }
      ],
      "name": "deactivateModule",
      "outputs": [],
      "stateMutability": "nonpayable",
      "type": "function"
    },
    {
      "inputs": [
        {
          "internalType": "address",
          "name": "_dao",
          "type": "address"
        }
      ],
      "name": "getDaoDepositManager",
      "outputs": [
        {
          "internalType": "address",
          "name": "",
          "type": "address"
        }
      ],
      "stateMutability": "view",
      "type": "function"
    },
    {
      "inputs": [
        {
          "internalType": "address",
          "name": "_dao",
          "type": "address"
        }
      ],
      "name": "hasDaoDepositManager",
      "outputs": [
        {
          "internalType": "bool",
          "name": "",
          "type": "bool"
        }
      ],
      "stateMutability": "view",
      "type": "function"
    },
    {
      "inputs": [
        {
          "internalType": "address",
          "name": "",
          "type": "address"
        }
      ],
      "name": "isModule",
      "outputs": [
        {
          "internalType": "bool",
          "name": "",
          "type": "bool"
        }
      ],
      "stateMutability": "view",
      "type": "function"
    },
    {
      "inputs": [],
      "name": "owner",
      "outputs": [
        {
          "internalType": "address",
          "name": "",
          "type": "address"
        }
      ],
      "stateMutability": "view",
      "type": "function"
    },
    {
      "inputs": [
        {
          "internalType": "address",
          "name": "_moduleAddress",
          "type": "address"
        }
      ],
      "name": "registerModule",
      "outputs": [],
      "stateMutability": "nonpayable",
      "type": "function"
    },
    {
      "inputs": [],
      "name": "renounceOwnership",
      "outputs": [],
      "stateMutability": "nonpayable",
      "type": "function"
    },
    {
      "inputs": [
        {
          "internalType": "address",
          "name": "_newImplementation",
          "type": "address"
        }
      ],
      "name": "setDaoDepositManagerImplementation",
      "outputs": [],
      "stateMutability": "nonpayable",
      "type": "function"
    },
    {
      "inputs": [
        {
          "internalType": "address",
          "name": "_newWETH",
          "type": "address"
        }
      ],
      "name": "setWETHAddress",
      "outputs": [],
      "stateMutability": "nonpayable",
      "type": "function"
    },
    {
      "inputs": [
        {
          "internalType": "address",
          "name": "newOwner",
          "type": "address"
        }
      ],
      "name": "transferOwnership",
      "outputs": [],
      "stateMutability": "nonpayable",
      "type": "function"
    },
    {
      "inputs": [],
      "name": "weth",
      "outputs": [
        {
          "internalType": "address",
          "name": "",
          "type": "address"
        }
      ],
      "stateMutability": "view",
      "type": "function"
    }
  ],
  "transactionHash": "0x2d33d4300965df8cb93338d807f169d4c8f5580cf175ea8edb3f05410f02a198",
  "args": [],
  "solcInputHash": "cd75873b169443eace4faca2bc5a1b52",
  "bytecode": "0x608060405234801561001057600080fd5b5061001a3361001f565b61006f565b600080546001600160a01b038381166001600160a01b0319831681178455604051919092169283917f8be0079c531659141344cd1fd0a4f28419497f9722a3daafe3b4186f6b6457e09190a35050565b610b4a8061007e6000396000f3fe608060405234801561001057600080fd5b50600436106100f55760003560e01c8063715018a611610097578063ad64ae4b11610066578063ad64ae4b14610245578063c221e44b14610258578063e0daf0c91461026b578063f2fde38b1461027e57600080fd5b8063715018a6146101ed57806371cfe498146101f55780638da5cb5b1461022157806394ffad741461023257600080fd5b80631bcf9e2f116100d35780631bcf9e2f146101915780633fc8cef3146101a457806342f6e389146101b75780636a4234eb146101da57600080fd5b80630c841231146100fa57806310096d281461010f5780631b5fc51114610155575b600080fd5b61010d610108366004610a5b565b610291565b005b61013861011d366004610a5b565b6003602052600090815260409020546001600160a01b031681565b6040516001600160a01b0390911681526020015b60405180910390f35b610181610163366004610a5b565b6001600160a01b031660009081526004602052604090205460ff1690565b604051901515815260200161014c565b600154610138906001600160a01b031681565b600254610138906001600160a01b031681565b6101816101c5366004610a5b565b60046020526000908152604090205460ff1681565b61010d6101e8366004610a5b565b610350565b61010d6103fc565b610138610203366004610a5b565b6001600160a01b039081166000908152600360205260409020541690565b6000546001600160a01b0316610138565b61010d610240366004610a5b565b610432565b61010d610253366004610a5b565b610651565b610181610266366004610a5b565b610809565b61010d610279366004610a5b565b61084d565b61010d61028c366004610a5b565b6108be565b6000546001600160a01b031633146102c45760405162461bcd60e51b81526004016102bb90610a7f565b60405180910390fd5b6001600160a01b03811661032e5760405162461bcd60e51b815260206004820152602b60248201527f42415345434f4e54524143542d494e56414c49442d494d504c454d454e54415460448201526a494f4e2d4144445245535360a81b60648201526084016102bb565b600180546001600160a01b0319166001600160a01b0392909216919091179055565b6000546001600160a01b0316331461037a5760405162461bcd60e51b81526004016102bb90610a7f565b6001600160a01b0381166103da5760405162461bcd60e51b815260206004820152602160248201527f42415345434f4e54524143542d494e56414c49442d574554482d4144445245536044820152605360f81b60648201526084016102bb565b600280546001600160a01b0319166001600160a01b0392909216919091179055565b6000546001600160a01b031633146104265760405162461bcd60e51b81526004016102bb90610a7f565b6104306000610959565b565b6001600160a01b0381166104885760405162461bcd60e51b815260206004820181905260248201527f42415345434f4e54524143542d494e56414c49442d44414f2d4144445245535360448201526064016102bb565b6001600160a01b0381811660009081526003602052604090205416156105055760405162461bcd60e51b815260206004820152602c60248201527f42415345434f4e54524143542d4445504f5349542d434f4e54524143542d414c60448201526b52454144592d45584953545360a01b60648201526084016102bb565b6001546001600160a01b03166105835760405162461bcd60e51b815260206004820152603760248201527f42415345434f4e54524143542d4445504f5349542d434f4e54524143542d494d60448201527f504c454d454e544154494f4e2d49532d4e4f542d53455400000000000000000060648201526084016102bb565b60015460009061059b906001600160a01b03166109a9565b60405163189acdbd60e31b81526001600160a01b0384811660048301529192509082169063c4d66de890602401600060405180830381600087803b1580156105e257600080fd5b505af11580156105f6573d6000803e3d6000fd5b505050506001600160a01b0382811660008181526003602052604080822080546001600160a01b0319169486169485179055517f265a432561b8428849ed76059de69c1301cfed8e70b5f9a7fc54df536a85d5d19190a35050565b6000546001600160a01b0316331461067b5760405162461bcd60e51b81526004016102bb90610a7f565b6001600160a01b0381166106a15760405162461bcd60e51b81526004016102bb90610ab4565b6001600160a01b03811660009081526004602052604090205460ff16156107195760405162461bcd60e51b815260206004820152602660248201527f42415345434f4e54524143542d4d4f44554c452d414c52454144592d5245474960448201526514d51154915160d21b60648201526084016102bb565b306001600160a01b0316816001600160a01b03166301df538d6040518163ffffffff1660e01b8152600401602060405180830381865afa158015610761573d6000803e3d6000fd5b505050506040513d601f19601f820116820180604052508101906107859190610af7565b6001600160a01b0316146107e55760405162461bcd60e51b815260206004820152602160248201527f42415345434f4e54524143542d4d4f44554c452d53455455502d494e56414c496044820152601160fa1b60648201526084016102bb565b6001600160a01b03166000908152600460205260409020805460ff19166001179055565b60008061082e836001600160a01b039081166000908152600360205260409020541690565b6001600160a01b03161415610844576000610847565b60015b92915050565b6000546001600160a01b031633146108775760405162461bcd60e51b81526004016102bb90610a7f565b6001600160a01b03811661089d5760405162461bcd60e51b81526004016102bb90610ab4565b6001600160a01b03166000908152600460205260409020805460ff19169055565b6000546001600160a01b031633146108e85760405162461bcd60e51b81526004016102bb90610a7f565b6001600160a01b03811661094d5760405162461bcd60e51b815260206004820152602660248201527f4f776e61626c653a206e6577206f776e657220697320746865207a65726f206160448201526564647265737360d01b60648201526084016102bb565b61095681610959565b50565b600080546001600160a01b038381166001600160a01b0319831681178455604051919092169283917f8be0079c531659141344cd1fd0a4f28419497f9722a3daafe3b4186f6b6457e09190a35050565b6000604051733d602d80600a3d3981f3363d3d373d3d3d363d7360601b81528260601b60148201526e5af43d82803e903d91602b57fd5bf360881b60288201526037816000f09150506001600160a01b038116610a415760405162461bcd60e51b8152602060048201526016602482015275115490cc4c4d8dce8818dc99585d194819985a5b195960521b60448201526064016102bb565b919050565b6001600160a01b038116811461095657600080fd5b600060208284031215610a6d57600080fd5b8135610a7881610a46565b9392505050565b6020808252818101527f4f776e61626c653a2063616c6c6572206973206e6f7420746865206f776e6572604082015260600190565b60208082526023908201527f42415345434f4e54524143542d494e56414c49442d4d4f44554c452d4144445260408201526245535360e81b606082015260800190565b600060208284031215610b0957600080fd5b8151610a7881610a4656fea2646970667358221220ef61e284b2b75ccba2de002c31316cee8c04b4bc0c7f989012a89216d8c7558c64736f6c634300080a0033",
  "devdoc": {
    "details": "Smart contract to serve as the manager for the PrimeDeals architecture",
    "kind": "dev",
    "methods": {
      "owner()": {
        "details": "Returns the address of the current owner."
      },
      "renounceOwnership()": {
        "details": "Leaves the contract without owner. It will not be possible to call `onlyOwner` functions anymore. Can only be called by the current owner. NOTE: Renouncing ownership will leave the contract without an owner, thereby removing any functionality that is only available to the owner."
      },
      "transferOwnership(address)": {
        "details": "Transfers ownership of the contract to a new account (`newOwner`). Can only be called by the current owner."
      }
    },
    "title": "PrimeDeals Deal Manager",
    "version": 1
  },
  "userdoc": {
    "kind": "user",
    "methods": {},
    "version": 1
  },
  "storageLayout": {
    "storage": [
      {
        "astId": 7,
        "contract": "contracts/DealManager.sol:DealManager",
        "label": "_owner",
        "offset": 0,
        "slot": "0",
        "type": "t_address"
      },
      {
        "astId": 2776,
        "contract": "contracts/DealManager.sol:DealManager",
        "label": "daoDepositManagerImplementation",
        "offset": 0,
        "slot": "1",
        "type": "t_address"
      },
      {
        "astId": 2778,
        "contract": "contracts/DealManager.sol:DealManager",
        "label": "weth",
        "offset": 0,
        "slot": "2",
        "type": "t_address"
      },
      {
        "astId": 2782,
        "contract": "contracts/DealManager.sol:DealManager",
        "label": "daoDepositManager",
        "offset": 0,
        "slot": "3",
        "type": "t_mapping(t_address,t_address)"
      },
      {
        "astId": 2786,
        "contract": "contracts/DealManager.sol:DealManager",
        "label": "isModule",
        "offset": 0,
        "slot": "4",
        "type": "t_mapping(t_address,t_bool)"
      }
    ],
    "types": {
      "t_address": {
        "encoding": "inplace",
        "label": "address",
        "numberOfBytes": "20"
      },
      "t_bool": {
        "encoding": "inplace",
        "label": "bool",
        "numberOfBytes": "1"
      },
      "t_mapping(t_address,t_address)": {
        "encoding": "mapping",
        "key": "t_address",
        "label": "mapping(address => address)",
        "numberOfBytes": "32",
        "value": "t_address"
      },
      "t_mapping(t_address,t_bool)": {
        "encoding": "mapping",
        "key": "t_address",
        "label": "mapping(address => bool)",
        "numberOfBytes": "32",
        "value": "t_bool"
      }
    }
  }
}