{
  "address": "0xD855C8aC26146D5aeb94a246bcE7E78B3ABA0943",
  "abi": [
    {
      "inputs": [
        {
          "internalType": "address",
          "name": "_dealManager",
          "type": "address"
        }
      ],
      "stateMutability": "nonpayable",
      "type": "constructor"
    },
    {
      "anonymous": false,
      "inputs": [
        {
          "indexed": true,
          "internalType": "uint32",
          "name": "oldFee",
          "type": "uint32"
        },
        {
          "indexed": true,
          "internalType": "uint32",
          "name": "newFee",
          "type": "uint32"
        }
      ],
      "name": "FeeChanged",
      "type": "event"
    },
    {
      "anonymous": false,
      "inputs": [
        {
          "indexed": true,
          "internalType": "address",
          "name": "oldFeeWallet",
          "type": "address"
        },
        {
          "indexed": true,
          "internalType": "address",
          "name": "newFeeWallet",
          "type": "address"
        }
      ],
      "name": "FeeWalletChanged",
      "type": "event"
    },
    {
      "anonymous": false,
      "inputs": [
        {
          "indexed": true,
          "internalType": "address",
          "name": "module",
          "type": "address"
        },
        {
          "indexed": true,
          "internalType": "uint32",
          "name": "dealId",
          "type": "uint32"
        },
        {
          "indexed": true,
          "internalType": "bytes32",
          "name": "metadata",
          "type": "bytes32"
        },
        {
          "indexed": false,
          "internalType": "address[]",
          "name": "daos",
          "type": "address[]"
        },
        {
          "indexed": false,
          "internalType": "address[]",
          "name": "tokens",
          "type": "address[]"
        },
        {
          "indexed": false,
          "internalType": "uint256[][]",
          "name": "pathFrom",
          "type": "uint256[][]"
        },
        {
          "indexed": false,
          "internalType": "uint256[][]",
          "name": "pathTo",
          "type": "uint256[][]"
        },
        {
          "indexed": false,
          "internalType": "uint32",
          "name": "deadline",
          "type": "uint32"
        }
      ],
      "name": "TokenSwapCreated",
      "type": "event"
    },
    {
      "anonymous": false,
      "inputs": [
        {
          "indexed": true,
          "internalType": "address",
          "name": "module",
          "type": "address"
        },
        {
          "indexed": true,
          "internalType": "uint32",
          "name": "dealId",
          "type": "uint32"
        },
        {
          "indexed": true,
          "internalType": "bytes32",
          "name": "metadata",
          "type": "bytes32"
        }
      ],
      "name": "TokenSwapExecuted",
      "type": "event"
    },
    {
      "stateMutability": "payable",
      "type": "fallback"
    },
    {
      "inputs": [],
      "name": "BPS",
      "outputs": [
        {
          "internalType": "uint256",
          "name": "",
          "type": "uint256"
        }
      ],
      "stateMutability": "view",
      "type": "function"
    },
    {
      "inputs": [],
      "name": "MAX_FEE",
      "outputs": [
        {
          "internalType": "uint32",
          "name": "",
          "type": "uint32"
        }
      ],
      "stateMutability": "view",
      "type": "function"
    },
    {
      "inputs": [
        {
          "internalType": "uint32",
          "name": "_dealId",
          "type": "uint32"
        }
      ],
      "name": "checkExecutability",
      "outputs": [
        {
          "internalType": "bool",
          "name": "",
          "type": "bool"
        }
      ],
      "stateMutability": "view",
      "type": "function"
    },
    {
      "inputs": [
        {
          "internalType": "address[]",
          "name": "_daos",
          "type": "address[]"
        },
        {
          "internalType": "address[]",
          "name": "_tokens",
          "type": "address[]"
        },
        {
          "internalType": "uint256[][]",
          "name": "_pathFrom",
          "type": "uint256[][]"
        },
        {
          "internalType": "uint256[][]",
          "name": "_pathTo",
          "type": "uint256[][]"
        },
        {
          "internalType": "bytes32",
          "name": "_metadata",
          "type": "bytes32"
        },
        {
          "internalType": "uint32",
          "name": "_deadline",
          "type": "uint32"
        }
      ],
      "name": "createSwap",
      "outputs": [
        {
          "internalType": "uint32",
          "name": "",
          "type": "uint32"
        }
      ],
      "stateMutability": "nonpayable",
      "type": "function"
    },
    {
      "inputs": [],
      "name": "dealManager",
      "outputs": [
        {
          "internalType": "contract IDealManager",
          "name": "",
          "type": "address"
        }
      ],
      "stateMutability": "view",
      "type": "function"
    },
    {
      "inputs": [
        {
          "internalType": "uint32",
          "name": "_dealId",
          "type": "uint32"
        }
      ],
      "name": "executeSwap",
      "outputs": [],
      "stateMutability": "nonpayable",
      "type": "function"
    },
    {
      "inputs": [],
      "name": "feeInBasisPoints",
      "outputs": [
        {
          "internalType": "uint32",
          "name": "",
          "type": "uint32"
        }
      ],
      "stateMutability": "view",
      "type": "function"
    },
    {
      "inputs": [],
      "name": "feeWallet",
      "outputs": [
        {
          "internalType": "address",
          "name": "",
          "type": "address"
        }
      ],
      "stateMutability": "view",
      "type": "function"
    },
    {
      "inputs": [
        {
          "internalType": "bytes32",
          "name": "_metadata",
          "type": "bytes32"
        }
      ],
      "name": "getTokenswapFromMetadata",
      "outputs": [
        {
          "components": [
            {
              "internalType": "address[]",
              "name": "daos",
              "type": "address[]"
            },
            {
              "internalType": "address[]",
              "name": "tokens",
              "type": "address[]"
            },
            {
              "internalType": "uint256[][]",
              "name": "pathFrom",
              "type": "uint256[][]"
            },
            {
              "internalType": "uint256[][]",
              "name": "pathTo",
              "type": "uint256[][]"
            },
            {
              "internalType": "uint32",
              "name": "deadline",
              "type": "uint32"
            },
            {
              "internalType": "uint32",
              "name": "executionDate",
              "type": "uint32"
            },
            {
              "internalType": "bytes32",
              "name": "metadata",
              "type": "bytes32"
            },
            {
              "internalType": "bool",
              "name": "isExecuted",
              "type": "bool"
            }
          ],
          "internalType": "struct TokenSwapModule.TokenSwap",
          "name": "swap",
          "type": "tuple"
        }
      ],
      "stateMutability": "view",
      "type": "function"
    },
    {
      "inputs": [
        {
          "internalType": "uint32",
          "name": "_dealId",
          "type": "uint32"
        }
      ],
      "name": "hasDealExpired",
      "outputs": [
        {
          "internalType": "bool",
          "name": "",
          "type": "bool"
        }
      ],
      "stateMutability": "view",
      "type": "function"
    },
    {
      "inputs": [],
      "name": "lastDealId",
      "outputs": [
        {
          "internalType": "uint32",
          "name": "",
          "type": "uint32"
        }
      ],
      "stateMutability": "view",
      "type": "function"
    },
    {
      "inputs": [
        {
          "internalType": "bytes32",
          "name": "",
          "type": "bytes32"
        }
      ],
      "name": "metadataToDealId",
      "outputs": [
        {
          "internalType": "uint32",
          "name": "",
          "type": "uint32"
        }
      ],
      "stateMutability": "view",
      "type": "function"
    },
    {
      "inputs": [
        {
          "internalType": "uint32",
          "name": "_feeInBasisPoints",
          "type": "uint32"
        }
      ],
      "name": "setFee",
      "outputs": [],
      "stateMutability": "nonpayable",
      "type": "function"
    },
    {
      "inputs": [
        {
          "internalType": "address",
          "name": "_feeWallet",
          "type": "address"
        }
      ],
      "name": "setFeeWallet",
      "outputs": [],
      "stateMutability": "nonpayable",
      "type": "function"
    },
    {
      "inputs": [
        {
          "internalType": "uint32",
          "name": "",
          "type": "uint32"
        }
      ],
      "name": "tokenSwaps",
      "outputs": [
        {
          "internalType": "uint32",
          "name": "deadline",
          "type": "uint32"
        },
        {
          "internalType": "uint32",
          "name": "executionDate",
          "type": "uint32"
        },
        {
          "internalType": "bytes32",
          "name": "metadata",
          "type": "bytes32"
        },
        {
          "internalType": "bool",
          "name": "isExecuted",
          "type": "bool"
        }
      ],
      "stateMutability": "view",
      "type": "function"
    },
    {
      "stateMutability": "payable",
      "type": "receive"
    }
  ],
  "transactionHash": "0x3464b8fc4b421fe231615aeda434ea3f2d6766974d7ec45949cb55bc09afc26c",
  "args": [
    "0xE9f2ce9Ef70Db565EaAF074E3D027d4F58C92a01"
  ],
  "numDeployments": 1,
  "solcInputHash": "7bfbbf30ca5a5618b1d18e7a63f720e7",
  "bytecode": "0x60e06040526107d060a05261271060c0523480156200001d57600080fd5b5060405162003269380380620032698339810160408190526200004091620000b2565b80806001600160a01b0381166200009d5760405162461bcd60e51b815260206004820152601560248201527f4d6f64756c65426173653a204572726f72203130300000000000000000000000604482015260640160405180910390fd5b6001600160a01b031660805250620000e49050565b600060208284031215620000c557600080fd5b81516001600160a01b0381168114620000dd57600080fd5b9392505050565b60805160a05160c051613110620001596000396000818161016c01526125c001526000818161029701526104c401526000818160fb015281816103dd015281816108ba01528181610a8a015281816111d3015281816112630152818161200e0152818161232f015261265c01526131106000f3fe6080604052600436106100e05760003560e01c8063b45edf4711610084578063f25f4b5611610056578063f25f4b56146102f9578063fa23813714610319578063fb458ec31461033d578063fe442f5d146103ba57005b8063b45edf4714610261578063bc063e1a14610285578063cfccd4bc146102b9578063d24fdb7a146102d957005b8063251f02b4116100bd578063251f02b41461019c5780638730f344146101cc57806390d49b9d14610214578063b42132cd1461023457005b806301df538d146100e95780631ab971ab1461013a578063249d39e91461015a57005b366100e757005b005b3480156100f557600080fd5b5061011d7f000000000000000000000000000000000000000000000000000000000000000081565b6040516001600160a01b0390911681526020015b60405180910390f35b34801561014657600080fd5b506100e7610155366004612a92565b6103da565b34801561016657600080fd5b5061018e7f000000000000000000000000000000000000000000000000000000000000000081565b604051908152602001610131565b3480156101a857600080fd5b506101bc6101b7366004612a92565b6105af565b6040519015158152602001610131565b3480156101d857600080fd5b506101ff6101e7366004612aad565b60026020526000908152604090205463ffffffff1681565b60405163ffffffff9091168152602001610131565b34801561022057600080fd5b506100e761022f366004612adb565b610a87565b34801561024057600080fd5b5061025461024f366004612aad565b610c38565b6040516101319190612bb8565b34801561026d57600080fd5b506000546101ff90600160a01b900463ffffffff1681565b34801561029157600080fd5b506101ff7f000000000000000000000000000000000000000000000000000000000000000081565b3480156102c557600080fd5b506101bc6102d4366004612a92565b610ed1565b3480156102e557600080fd5b506101ff6102f4366004612ccf565b61117c565b34801561030557600080fd5b5060005461011d906001600160a01b031681565b34801561032557600080fd5b506000546101ff90600160c01b900463ffffffff1681565b34801561034957600080fd5b50610390610358366004612a92565b60016020526000908152604090206004810154600582015460069092015463ffffffff80831693600160201b90930416919060ff1684565b6040805163ffffffff95861681529490931660208501529183015215156060820152608001610131565b3480156103c657600080fd5b506100e76103d5366004612a92565b611366565b337f00000000000000000000000000000000000000000000000000000000000000006001600160a01b0316638da5cb5b6040518163ffffffff1660e01b8152600401602060405180830381865afa158015610439573d6000803e3d6000fd5b505050506040513d601f19601f8201168201806040525081019061045d9190612dac565b6001600160a01b0316816001600160a01b0316146104c25760405162461bcd60e51b815260206004820152601c60248201527f4d6f64756c6542617365576974684665653a204572726f72203232310000000060448201526064015b60405180910390fd5b7f000000000000000000000000000000000000000000000000000000000000000063ffffffff168263ffffffff16111561053e5760405162461bcd60e51b815260206004820152601c60248201527f4d6f64756c6542617365576974684665653a204572726f72203236340000000060448201526064016104b9565b60005463ffffffff838116600160a01b90920416146105ab576000805463ffffffff60a01b1916600160a01b63ffffffff85811682810293909317808555604051939492900416917fdeab7ddf530f3309d7f88438b7fbb714e557a5a30d0c2d1cfc3c0da1dde409689190a35b5050565b63ffffffff811660009081526001602052604081206005015482906105e65760405162461bcd60e51b81526004016104b990612dc9565b63ffffffff831660009081526001602090815260408083208151815461012094810282018501909352610100810183815290939192849284919084018282801561065957602002820191906000526020600020905b81546001600160a01b0316815260019091019060200180831161063b575b50505050508152602001600182018054806020026020016040519081016040528092919081815260200182805480156106bb57602002820191906000526020600020905b81546001600160a01b0316815260019091019060200180831161069d575b5050505050815260200160028201805480602002602001604051908101604052809291908181526020016000905b828210156107555760008481526020908190208301805460408051828502810185019091528181529283018282801561074157602002820191906000526020600020905b81548152602001906001019080831161072d575b5050505050815260200190600101906106e9565b50505050815260200160038201805480602002602001604051908101604052809291908181526020016000905b828210156107ee576000848152602090819020830180546040805182850281018501909152818152928301828280156107da57602002820191906000526020600020905b8154815260200190600101908083116107c6575b505050505081526020019060010190610782565b50505090825250600482015463ffffffff8082166020840152600160201b9091041660408201526005820154606082015260069091015460ff161515608090910152905061083b84610ed1565b1561084a576000925050610a81565b6020810151805160005b81811015610a785760008460400151828151811061087457610874612e00565b6020026020010151905060008151905060005b81811015610a64578281815181106108a1576108a1612e00565b6020026020010151600014156108b657610a54565b60007f00000000000000000000000000000000000000000000000000000000000000006001600160a01b03166371cfe498896000015184815181106108fd576108fd612e00565b60200260200101516040518263ffffffff1660e01b815260040161093091906001600160a01b0391909116815260200190565b602060405180830381865afa15801561094d573d6000803e3d6000fd5b505050506040513d601f19601f820116820180604052508101906109719190612dac565b6001600160a01b031663246cd574308d8a898151811061099357610993612e00565b60200260200101516040518463ffffffff1660e01b81526004016109dd939291906001600160a01b03938416815263ffffffff929092166020830152909116604082015260600190565b602060405180830381865afa1580156109fa573d6000803e3d6000fd5b505050506040513d601f19601f82011682018060405250810190610a1e9190612e16565b9050838281518110610a3257610a32612e00565b6020026020010151811015610a5257600099505050505050505050610a81565b505b610a5d81612e45565b9050610887565b50505080610a7190612e45565b9050610854565b50600194505050505b50919050565b337f00000000000000000000000000000000000000000000000000000000000000006001600160a01b0316638da5cb5b6040518163ffffffff1660e01b8152600401602060405180830381865afa158015610ae6573d6000803e3d6000fd5b505050506040513d601f19601f82011682018060405250810190610b0a9190612dac565b6001600160a01b0316816001600160a01b031614610b6a5760405162461bcd60e51b815260206004820152601c60248201527f4d6f64756c6542617365576974684665653a204572726f72203232310000000060448201526064016104b9565b6001600160a01b03821615801590610b8b57506001600160a01b0382163014155b610bd75760405162461bcd60e51b815260206004820152601c60248201527f4d6f64756c6542617365576974684665653a204572726f72203130300000000060448201526064016104b9565b6000546001600160a01b038381169116146105ab57600080546001600160a01b0319166001600160a01b0384169081178255604051909182917f9f4f5dce3c4d197b5d7496cb96e25f0a89809167195964b0daa3ef5fed63c00a9190a35050565b60408051610100810182526060808252602082018190529181018290528181019190915260006080820181905260a0820181905260c0820181905260e082015260008281526002602090815260408083205463ffffffff1683526001825291829020825181546101209381028201840190945261010081018481529093919284928491840182828015610cf457602002820191906000526020600020905b81546001600160a01b03168152600190910190602001808311610cd6575b5050505050815260200160018201805480602002602001604051908101604052809291908181526020018280548015610d5657602002820191906000526020600020905b81546001600160a01b03168152600190910190602001808311610d38575b5050505050815260200160028201805480602002602001604051908101604052809291908181526020016000905b82821015610df057600084815260209081902083018054604080518285028101850190915281815292830182828015610ddc57602002820191906000526020600020905b815481526020019060010190808311610dc8575b505050505081526020019060010190610d84565b50505050815260200160038201805480602002602001604051908101604052809291908181526020016000905b82821015610e8957600084815260209081902083018054604080518285028101850190915281815292830182828015610e7557602002820191906000526020600020905b815481526020019060010190808311610e61575b505050505081526020019060010190610e1d565b50505090825250600482015463ffffffff8082166020840152600160201b9091041660408201526005820154606082015260069091015460ff16151560809091015292915050565b63ffffffff81166000908152600160205260408120600501548290610f085760405162461bcd60e51b81526004016104b990612dc9565b63ffffffff8316600090815260016020908152604080832081518154610120948102820185019093526101008101838152909391928492849190840182828015610f7b57602002820191906000526020600020905b81546001600160a01b03168152600190910190602001808311610f5d575b5050505050815260200160018201805480602002602001604051908101604052809291908181526020018280548015610fdd57602002820191906000526020600020905b81546001600160a01b03168152600190910190602001808311610fbf575b5050505050815260200160028201805480602002602001604051908101604052809291908181526020016000905b828210156110775760008481526020908190208301805460408051828502810185019091528181529283018282801561106357602002820191906000526020600020905b81548152602001906001019080831161104f575b50505050508152602001906001019061100b565b50505050815260200160038201805480602002602001604051908101604052809291908181526020016000905b82821015611110576000848152602090819020830180546040805182850281018501909152818152928301828280156110fc57602002820191906000526020600020905b8154815260200190600101908083116110e8575b5050505050815260200190600101906110a4565b50505090825250600482015463ffffffff8082166020840152600160201b9091041660408201526005820154606082015260069091015460ff16151560809091015260e08101519091508061117457504263ffffffff16816080015163ffffffff16105b949350505050565b6000805b8a8110156112d15760008c8c8381811061119c5761119c612e00565b90506020020160208101906111b19190612adb565b60405163c221e44b60e01b81526001600160a01b0380831660048301529192507f00000000000000000000000000000000000000000000000000000000000000009091169063c221e44b90602401602060405180830381865afa15801561121c573d6000803e3d6000fd5b505050506040513d601f19601f820116820180604052508101906112409190612e60565b6112c05760405163253feb5d60e21b81526001600160a01b0382811660048301527f000000000000000000000000000000000000000000000000000000000000000016906394ffad7490602401600060405180830381600087803b1580156112a757600080fd5b505af11580156112bb573d6000803e3d6000fd5b505050505b506112ca81612e45565b9050611180565b506113578b8b8080602002602001604051908101604052809392919081815260200183836020028082843760009201919091525050604080516020808f0282810182019093528e82529093508e92508d91829185019084908082843760009201919091525061134692508b91508c9050612eed565b611350888a612eed565b8787611923565b9b9a5050505050505050505050565b63ffffffff8116600090815260016020526040902060050154819061139d5760405162461bcd60e51b81526004016104b990612dc9565b63ffffffff8216600090815260016020526040902060060154829060ff16156114085760405162461bcd60e51b815260206004820152601a60248201527f546f6b656e537761704d6f64756c653a204572726f722032363600000000000060448201526064016104b9565b63ffffffff83166000908152600160205260409020611426846105af565b6114725760405162461bcd60e51b815260206004820152601a60248201527f546f6b656e537761704d6f64756c653a204572726f722032363500000000000060448201526064016104b9565b60068101805460ff1916600117905560048101805463ffffffff4216600160201b0267ffffffff00000000199091161790558054604080516020808402820181019092528281526000926115f99288929186918301828280156114fe57602002820191906000526020600020905b81546001600160a01b031681526001909101906020018083116114e0575b50505050508460010180548060200260200160405190810160405280929190818152602001828054801561155b57602002820191906000526020600020905b81546001600160a01b0316815260019091019060200180831161153d575b505050505085600201805480602002602001604051908101604052809291908181526020016000905b828210156115f0576000848152602090819020830180546040805182850281018501909152818152928301828280156115dc57602002820191906000526020600020905b8154815260200190600101908083116115c8575b505050505081526020019060010190611584565b50505050611ea5565b6040805184546101206020820283018101909352610100820181815293945060009361183d93879284929184919084018282801561166057602002820191906000526020600020905b81546001600160a01b03168152600190910190602001808311611642575b50505050508152602001600182018054806020026020016040519081016040528092919081815260200182805480156116c257602002820191906000526020600020905b81546001600160a01b031681526001909101906020018083116116a4575b5050505050815260200160028201805480602002602001604051908101604052809291908181526020016000905b8282101561175c5760008481526020908190208301805460408051828502810185019091528181529283018282801561174857602002820191906000526020600020905b815481526020019060010190808311611734575b5050505050815260200190600101906116f0565b50505050815260200160038201805480602002602001604051908101604052809291908181526020016000905b828210156117f5576000848152602090819020830180546040805182850281018501909152818152928301828280156117e157602002820191906000526020600020905b8154815260200190600101908083116117cd575b505050505081526020019060010190611789565b50505090825250600482015463ffffffff8082166020840152600160201b9091041660408201526005820154606082015260069091015460ff16151560809091015287612189565b600184015490915060005b818110156118e15782818151811061186257611862612e00565b602002602001015184828151811061187c5761187c612e00565b6020026020010151146118d15760405162461bcd60e51b815260206004820152601a60248201527f546f6b656e537761704d6f64756c653a204572726f722031303300000000000060448201526064016104b9565b6118da81612e45565b9050611848565b50600584015460405163ffffffff89169030907fec8c89d1275fdc3512da61ea020e4d570bb3bf0fba7163f506a1ef7b5e55179a90600090a450505050505050565b6000826119725760405162461bcd60e51b815260206004820152601a60248201527f546f6b656e537761704d6f64756c653a204572726f722031303100000000000060448201526064016104b9565b61197b83612554565b6119c75760405162461bcd60e51b815260206004820152601a60248201527f546f6b656e537761704d6f64756c653a204572726f722032303300000000000060448201526064016104b9565b600287511015611a195760405162461bcd60e51b815260206004820152601a60248201527f546f6b656e537761704d6f64756c653a204572726f722032303400000000000060448201526064016104b9565b8551611a675760405162461bcd60e51b815260206004820152601a60248201527f546f6b656e537761704d6f64756c653a204572726f722032303500000000000060448201526064016104b9565b63ffffffff8216611aba5760405162461bcd60e51b815260206004820152601a60248201527f546f6b656e537761704d6f64756c653a204572726f722031303100000000000060448201526064016104b9565b8451865181148015611acc5750845181145b611b185760405162461bcd60e51b815260206004820152601a60248201527f546f6b656e537761704d6f64756c653a204572726f722031303200000000000060448201526064016104b9565b60005b8751811015611bf2576000611b31826001612fb8565b90505b8851811015611be157888181518110611b4f57611b4f612e00565b60200260200101516001600160a01b0316898381518110611b7257611b72612e00565b60200260200101516001600160a01b03161415611bd15760405162461bcd60e51b815260206004820152601a60248201527f546f6b656e537761704d6f64756c653a204572726f722031303400000000000060448201526064016104b9565b611bda81612e45565b9050611b34565b50611beb81612e45565b9050611b1b565b50875160005b82811015611ca25781888281518110611c1357611c13612e00565b602002602001015151148015611c465750600282901b878281518110611c3b57611c3b612e00565b602002602001015151145b611c925760405162461bcd60e51b815260206004820152601a60248201527f546f6b656e537761704d6f64756c653a204572726f722031303200000000000060448201526064016104b9565b611c9b81612e45565b9050611bf8565b5060006040518061010001604052808b81526020018a81526020018981526020018881526020018642611cd59190612fd0565b63ffffffff168152602001600063ffffffff1681526020018781526020016000151581525090506000601881819054906101000a900463ffffffff16611d1a90612ff8565b82546101009290920a63ffffffff81810219909316918316021790915560008054600160c01b90049091168152600160209081526040909120825180518493611d6792849291019061292d565b506020828101518051611d80926001850192019061292d565b5060408201518051611d9c916002840191602090910190612992565b5060608201518051611db8916003840191602090910190612992565b50608082015160048201805460a085015163ffffffff908116600160201b0267ffffffffffffffff199092169381169390931717905560c0830151600583015560e0909201516006909101805491151560ff199092169190911790556000805488825260026020526040808320805463ffffffff1916600160c01b93849004861617905591549151899391909204169030907f93ec9825c63237a731b7205f8e661ee12357e9993bda8c3d47fb709482e769a990611e7f908f908f908f908f908e9061301c565b60405180910390a45050600054600160c01b900463ffffffff1698975050505050505050565b6060825167ffffffffffffffff811115611ec157611ec1612e82565b604051908082528060200260200182016040528015611eea578160200160208202803683370190505b5090508251825114611f365760405162461bcd60e51b815260206004820152601560248201527426b7b23ab632a130b9b29d1022b93937b91018981960591b60448201526064016104b9565b825160005b8181101561217f576000848281518110611f5757611f57612e00565b602002602001015190508651815114611faa5760405162461bcd60e51b815260206004820152601560248201527426b7b23ab632a130b9b29d1022b93937b91018981960591b60448201526064016104b9565b805160005b8181101561216b576000838281518110611fcb57611fcb612e00565b60200260200101519050600081111561215a5780878681518110611ff157611ff1612e00565b602002602001018181516120059190612fb8565b915081815250507f00000000000000000000000000000000000000000000000000000000000000006001600160a01b03166371cfe4988b848151811061204d5761204d612e00565b60200260200101516040518263ffffffff1660e01b815260040161208091906001600160a01b0391909116815260200190565b602060405180830381865afa15801561209d573d6000803e3d6000fd5b505050506040513d601f19601f820116820180604052508101906120c19190612dac565b6001600160a01b0316632162a70c8c8b88815181106120e2576120e2612e00565b60209081029190910101516040516001600160e01b031960e085901b16815263ffffffff9290921660048301526001600160a01b0316602482015260448101849052606401600060405180830381600087803b15801561214157600080fd5b505af1158015612155573d6000803e3d6000fd5b505050505b5061216481612e45565b9050611faf565b5050508061217890612e45565b9050611f3b565b5050949350505050565b606082602001515167ffffffffffffffff8111156121a9576121a9612e82565b6040519080825280602002602001820160405280156121d2578160200160208202803683370190505b5060208401515190915060005b8181101561254c576000856060015182815181106121ff576121ff612e00565b6020026020010151905060008660200151838151811061222157612221612e00565b60200260200101519050600060028351901c905060005b8181101561253757600084600283901b8151811061225857612258612e00565b60200260200101519050600085600284901b60016122769190612fb8565b8151811061228657612286612e00565b6020026020010151905060008211156122ed57818988815181106122ac576122ac612e00565b602002602001018181516122c09190612fb8565b9052508a5180516122eb918791869081106122dd576122dd612e00565b60200260200101518461256c565b505b8015612524578089888151811061230657612306612e00565b6020026020010181815161231a9190612fb8565b9052506000612329868361258c565b905060007f00000000000000000000000000000000000000000000000000000000000000006001600160a01b03166371cfe4988e60000151878151811061237257612372612e00565b60200260200101516040518263ffffffff1660e01b81526004016123a591906001600160a01b0391909116815260200190565b602060405180830381865afa1580156123c2573d6000803e3d6000fd5b505050506040513d601f19601f820116820180604052508101906123e69190612dac565b90506001600160a01b0387161561241f5761241f878e60000151878151811061241157612411612e00565b602002602001015184612637565b60006001600160a01b03881615612437576000612439565b825b90506001600160a01b03821663d4059292828f8b878e61245d60028e811b90612fb8565b8151811061246d5761246d612e00565b60200260200101518f60028e901b60036124879190612fb8565b8151811061249757612497612e00565b60209081029190910101516040516001600160e01b031960e089901b16815263ffffffff95861660048201526001600160a01b03909416602485015260448401929092528316606483015291909116608482015260a4016000604051808303818588803b15801561250757600080fd5b505af115801561251b573d6000803e3d6000fd5b50505050505050505b50508061253090612e45565b9050612238565b505050508061254590612e45565b90506121df565b505092915050565b60008061256083610c38565b60c00151159392505050565b6000612578848361258c565b90506125858484836126d2565b9392505050565b600080546001600160a01b0316158015906125b55750600054600160a01b900463ffffffff1615155b1561262e57600080547f0000000000000000000000000000000000000000000000000000000000000000906125f790600160a01b900463ffffffff1685613082565b61260191906130a1565b60005490915061261c9085906001600160a01b0316836126d2565b61262681846130c3565b915050612631565b50805b92915050565b604051630e39fc9360e31b81526001600160a01b0383811660048301526126cd9185917f000000000000000000000000000000000000000000000000000000000000000016906371cfe49890602401602060405180830381865afa1580156126a3573d6000803e3d6000fd5b505050506040513d601f19601f820116820180604052508101906126c79190612dac565b83612876565b505050565b6001600160a01b038316156127db5760405163a9059cbb60e01b81526001600160a01b0383811660048301526024820183905284169063a9059cbb906044016020604051808303816000875af192505050801561274c575060408051601f3d908101601f1916820190925261274991810190612e60565b60015b6127905760405162461bcd60e51b81526020600482015260156024820152744d6f64756c65426173653a204572726f722032343160581b60448201526064016104b9565b806127d55760405162461bcd60e51b81526020600482015260156024820152744d6f64756c65426173653a204572726f722032343160581b60448201526064016104b9565b50505050565b6000826001600160a01b03168260405160006040518083038185875af1925050503d8060008114612828576040519150601f19603f3d011682016040523d82523d6000602084013e61282d565b606091505b50509050806127d55760405162461bcd60e51b815260206004820152601560248201527426b7b23ab632a130b9b29d1022b93937b910191a1960591b60448201526064016104b9565b60405163095ea7b360e01b81526001600160a01b0383811660048301526024820183905284169063095ea7b3906044016020604051808303816000875af11580156128c5573d6000803e3d6000fd5b505050506040513d601f19601f820116820180604052508101906128e99190612e60565b6126cd5760405162461bcd60e51b81526020600482015260156024820152744d6f64756c65426173653a204572726f722032343360581b60448201526064016104b9565b828054828255906000526020600020908101928215612982579160200282015b8281111561298257825182546001600160a01b0319166001600160a01b0390911617825560209092019160019091019061294d565b5061298e9291506129eb565b5090565b8280548282559060005260206000209081019282156129df579160200282015b828111156129df57825180516129cf918491602090910190612a00565b50916020019190600101906129b2565b5061298e929150612a3b565b5b8082111561298e57600081556001016129ec565b828054828255906000526020600020908101928215612982579160200282015b82811115612982578251825591602001919060010190612a20565b8082111561298e576000612a4f8282612a58565b50600101612a3b565b5080546000825590600052602060002090810190612a7691906129eb565b50565b803563ffffffff81168114612a8d57600080fd5b919050565b600060208284031215612aa457600080fd5b61258582612a79565b600060208284031215612abf57600080fd5b5035919050565b6001600160a01b0381168114612a7657600080fd5b600060208284031215612aed57600080fd5b813561258581612ac6565b600081518084526020808501945080840160005b83811015612b315781516001600160a01b031687529582019590820190600101612b0c565b509495945050505050565b600081518084526020808501808196508360051b810191508286016000805b86811015612baa578385038a52825180518087529087019087870190845b81811015612b9557835183529289019291890191600101612b79565b50509a87019a95505091850191600101612b5b565b509298975050505050505050565b6020815260008251610100806020850152612bd7610120850183612af8565b91506020850151601f1980868503016040870152612bf58483612af8565b93506040870151915080868503016060870152612c128483612b3c565b9350606087015191508086850301608087015250612c308382612b3c565b9250506080850151612c4a60a086018263ffffffff169052565b5060a085015163ffffffff811660c08601525060c085015160e085015260e0850151612c798286018215159052565b5090949350505050565b60008083601f840112612c9557600080fd5b50813567ffffffffffffffff811115612cad57600080fd5b6020830191508360208260051b8501011115612cc857600080fd5b9250929050565b60008060008060008060008060008060c08b8d031215612cee57600080fd5b8a3567ffffffffffffffff80821115612d0657600080fd5b612d128e838f01612c83565b909c509a5060208d0135915080821115612d2b57600080fd5b612d378e838f01612c83565b909a50985060408d0135915080821115612d5057600080fd5b612d5c8e838f01612c83565b909850965060608d0135915080821115612d7557600080fd5b50612d828d828e01612c83565b90955093505060808b01359150612d9b60a08c01612a79565b90509295989b9194979a5092959850565b600060208284031215612dbe57600080fd5b815161258581612ac6565b6020808252601a908201527f546f6b656e537761704d6f64756c653a204572726f7220323037000000000000604082015260600190565b634e487b7160e01b600052603260045260246000fd5b600060208284031215612e2857600080fd5b5051919050565b634e487b7160e01b600052601160045260246000fd5b6000600019821415612e5957612e59612e2f565b5060010190565b600060208284031215612e7257600080fd5b8151801515811461258557600080fd5b634e487b7160e01b600052604160045260246000fd5b604051601f8201601f1916810167ffffffffffffffff81118282101715612ec157612ec1612e82565b604052919050565b600067ffffffffffffffff821115612ee357612ee3612e82565b5060051b60200190565b6000612f00612efb84612ec9565b612e98565b83815260208082019190600586811b860136811115612f1e57600080fd5b865b81811015612fab57803567ffffffffffffffff811115612f405760008081fd5b880136601f820112612f525760008081fd5b8035612f60612efb82612ec9565b81815290851b82018601908681019036831115612f7d5760008081fd5b928701925b82841015612f9b57833582529287019290870190612f82565b8952505050948301948301612f20565b5092979650505050505050565b60008219821115612fcb57612fcb612e2f565b500190565b600063ffffffff808316818516808303821115612fef57612fef612e2f565b01949350505050565b600063ffffffff8083168181141561301257613012612e2f565b6001019392505050565b60a08152600061302f60a0830188612af8565b82810360208401526130418188612af8565b905082810360408401526130558187612b3c565b905082810360608401526130698186612b3c565b91505063ffffffff831660808301529695505050505050565b600081600019048311821515161561309c5761309c612e2f565b500290565b6000826130be57634e487b7160e01b600052601260045260246000fd5b500490565b6000828210156130d5576130d5612e2f565b50039056fea26469706673582212202242aaef8efc970761facfbb9412cec58451d466cc01d97da42d47fb93b72e5c64736f6c634300080a0033",
  "devdoc": {
    "events": {
      "TokenSwapCreated(address,uint32,bytes32,address[],address[],uint256[][],uint256[][],uint32)": {
        "params": {
          "daos": "Array containing the DAOs that are involed in creating the token swap",
          "deadline": "The amount of time between the creation of the swap and the time when it can no longer be executed, in seconds",
          "dealId": "Deal id for the created token swap",
          "metadata": "Unique ID that is generated throught the Prime Deals frontend",
          "module": "Address of this module",
          "pathFrom": "Two-dimensional array containing the tokens flowing from the DAOs into the module",
          "pathTo": "Two-dimensional array containing the tokens flowing from the module to the DAOs",
          "tokens": "Array containing the tokens that are involed in creating the token swap"
        }
      },
      "TokenSwapExecuted(address,uint32,bytes32)": {
        "params": {
          "dealId": "Deal id for the executed token swap",
          "metadata": "Unique ID that is generated throught the Prime Deals frontend",
          "module": "Address of this module"
        }
      }
    },
    "kind": "dev",
    "methods": {
      "checkExecutability(uint32)": {
        "params": {
          "_dealId": "The dealId of the action (key to the mapping)"
        },
        "returns": {
          "_0": "bool        A bool flag indiciating whether the action can be executed"
        }
      },
      "createSwap(address[],address[],uint256[][],uint256[][],bytes32,uint32)": {
        "params": {
          "_daos": "Array containing the DAOs that are involed in this action",
          "_deadline": "The amount of time between the creation of the swap and the time when it can no longer be executed, in seconds",
          "_metadata": "Unique ID that is generated throught the Prime Deals frontend",
          "_pathFrom": "Two-dimensional array containing the tokens flowing from the DAOs into the module: - First array level is for each token - Second array level is for each dao - Detailed overview on how to configure the array can be found at the TokenSwap struct description",
          "_pathTo": "Two-dimensional array containing the tokens flowing from the module to the DAOs: - First array level is for each token - Second array level is for each dao - Detailed overview on how to configure the array can be found at the TokenSwap struct description",
          "_tokens": "Array containing the tokens that are involed in this action"
        },
        "returns": {
          "_0": "uin32       The dealId of the new token swap"
        }
      },
      "executeSwap(uint32)": {
        "params": {
          "_dealId": "The dealId of the action (key to the mapping)"
        }
      },
      "getTokenswapFromMetadata(bytes32)": {
        "params": {
          "_metadata": "Unique ID that is generated throught the Prime Deals frontend"
        },
        "returns": {
          "swap": "        Token swap struct associated with the metadata"
        }
      },
      "hasDealExpired(uint32)": {
        "params": {
          "_dealId": "The dealId of the action (key to the mapping)"
        },
        "returns": {
          "_0": "bool         A bool flag indiciating whether token swap has expired"
        }
      },
      "setFee(uint32)": {
        "params": {
          "_feeInBasisPoints": "Fee amount in basis points (1% = 100)"
        }
      },
      "setFeeWallet(address)": {
        "details": "The fee system will be inactive if the feeWallet is set to a zero-address",
        "params": {
          "_feeWallet": "Address of the new fee wallet"
        }
      }
    },
    "title": "PrimeDeals Token Swap Module",
    "version": 1
  },
  "userdoc": {
    "events": {
      "FeeChanged(uint32,uint32)": {
        "notice": "This event is emitted when the fee is updated"
      },
      "FeeWalletChanged(address,address)": {
        "notice": "This event is emitted when the fee wallet address is updated"
      },
      "TokenSwapCreated(address,uint32,bytes32,address[],address[],uint256[][],uint256[][],uint32)": {
        "notice": "This event is emitted when a token swap is created"
      },
      "TokenSwapExecuted(address,uint32,bytes32)": {
        "notice": "This event is emitted when a token swap is executed"
      }
    },
    "kind": "user",
    "methods": {
      "checkExecutability(uint32)": {
        "notice": "Checks whether a token swap action can be executed, which is the case if all DAOs have deposited"
      },
      "createSwap(address[],address[],uint256[][],uint256[][],bytes32,uint32)": {
        "notice": "Create a new token swap action and automatically creates Dao Deposit Manager for each DAO that does not have one"
      },
      "dealManager()": {
        "notice": "Address of the DealManager implementation"
      },
      "executeSwap(uint32)": {
        "notice": "Executes a token swap action"
      },
      "feeInBasisPoints()": {
        "notice": "Fee in basis points (100% = 10000)"
      },
      "feeWallet()": {
        "notice": "Wallet that is receiving the fees"
      },
      "getTokenswapFromMetadata(bytes32)": {
        "notice": "Returns the TokenSwap struct associated with the metadata"
      },
      "hasDealExpired(uint32)": {
        "notice": "Checks if the deal has been expired"
      },
      "metadataToDealId(bytes32)": {
        "notice": "Metadata => deal ID"
      },
      "setFee(uint32)": {
        "notice": "Sets a new fee"
      },
      "setFeeWallet(address)": {
        "notice": "Sets a new fee wallet"
      }
    },
    "notice": "Smart contract to handle token swap interactions for PrimeDeals",
    "version": 1
  },
  "storageLayout": {
    "storage": [
      {
        "astId": 4294,
        "contract": "contracts/modules/tokenswap/TokenSwapModule.sol:TokenSwapModule",
        "label": "feeWallet",
        "offset": 0,
        "slot": "0",
        "type": "t_address"
      },
      {
        "astId": 4297,
        "contract": "contracts/modules/tokenswap/TokenSwapModule.sol:TokenSwapModule",
        "label": "feeInBasisPoints",
        "offset": 20,
        "slot": "0",
        "type": "t_uint32"
      },
      {
        "astId": 7295,
        "contract": "contracts/modules/tokenswap/TokenSwapModule.sol:TokenSwapModule",
        "label": "lastDealId",
        "offset": 24,
        "slot": "0",
        "type": "t_uint32"
      },
      {
        "astId": 7300,
        "contract": "contracts/modules/tokenswap/TokenSwapModule.sol:TokenSwapModule",
        "label": "tokenSwaps",
        "offset": 0,
        "slot": "1",
        "type": "t_mapping(t_uint32,t_struct(TokenSwap)7335_storage)"
      },
      {
        "astId": 7305,
        "contract": "contracts/modules/tokenswap/TokenSwapModule.sol:TokenSwapModule",
        "label": "metadataToDealId",
        "offset": 0,
        "slot": "2",
        "type": "t_mapping(t_bytes32,t_uint32)"
      }
    ],
    "types": {
      "t_address": {
        "encoding": "inplace",
        "label": "address",
        "numberOfBytes": "20"
      },
      "t_array(t_address)dyn_storage": {
        "base": "t_address",
        "encoding": "dynamic_array",
        "label": "address[]",
        "numberOfBytes": "32"
      },
      "t_array(t_array(t_uint256)dyn_storage)dyn_storage": {
        "base": "t_array(t_uint256)dyn_storage",
        "encoding": "dynamic_array",
        "label": "uint256[][]",
        "numberOfBytes": "32"
      },
      "t_array(t_uint256)dyn_storage": {
        "base": "t_uint256",
        "encoding": "dynamic_array",
        "label": "uint256[]",
        "numberOfBytes": "32"
      },
      "t_bool": {
        "encoding": "inplace",
        "label": "bool",
        "numberOfBytes": "1"
      },
      "t_bytes32": {
        "encoding": "inplace",
        "label": "bytes32",
        "numberOfBytes": "32"
      },
      "t_mapping(t_bytes32,t_uint32)": {
        "encoding": "mapping",
        "key": "t_bytes32",
        "label": "mapping(bytes32 => uint32)",
        "numberOfBytes": "32",
        "value": "t_uint32"
      },
      "t_mapping(t_uint32,t_struct(TokenSwap)7335_storage)": {
        "encoding": "mapping",
        "key": "t_uint32",
        "label": "mapping(uint32 => struct TokenSwapModule.TokenSwap)",
        "numberOfBytes": "32",
        "value": "t_struct(TokenSwap)7335_storage"
      },
      "t_struct(TokenSwap)7335_storage": {
        "encoding": "inplace",
        "label": "struct TokenSwapModule.TokenSwap",
        "members": [
          {
            "astId": 7309,
            "contract": "contracts/modules/tokenswap/TokenSwapModule.sol:TokenSwapModule",
            "label": "daos",
            "offset": 0,
            "slot": "0",
            "type": "t_array(t_address)dyn_storage"
          },
          {
            "astId": 7313,
            "contract": "contracts/modules/tokenswap/TokenSwapModule.sol:TokenSwapModule",
            "label": "tokens",
            "offset": 0,
            "slot": "1",
            "type": "t_array(t_address)dyn_storage"
          },
          {
            "astId": 7318,
            "contract": "contracts/modules/tokenswap/TokenSwapModule.sol:TokenSwapModule",
            "label": "pathFrom",
            "offset": 0,
            "slot": "2",
            "type": "t_array(t_array(t_uint256)dyn_storage)dyn_storage"
          },
          {
            "astId": 7323,
            "contract": "contracts/modules/tokenswap/TokenSwapModule.sol:TokenSwapModule",
            "label": "pathTo",
            "offset": 0,
            "slot": "3",
            "type": "t_array(t_array(t_uint256)dyn_storage)dyn_storage"
          },
          {
            "astId": 7326,
            "contract": "contracts/modules/tokenswap/TokenSwapModule.sol:TokenSwapModule",
            "label": "deadline",
            "offset": 0,
            "slot": "4",
            "type": "t_uint32"
          },
          {
            "astId": 7329,
            "contract": "contracts/modules/tokenswap/TokenSwapModule.sol:TokenSwapModule",
            "label": "executionDate",
            "offset": 4,
            "slot": "4",
            "type": "t_uint32"
          },
          {
            "astId": 7332,
            "contract": "contracts/modules/tokenswap/TokenSwapModule.sol:TokenSwapModule",
            "label": "metadata",
            "offset": 0,
            "slot": "5",
            "type": "t_bytes32"
          },
          {
            "astId": 7334,
            "contract": "contracts/modules/tokenswap/TokenSwapModule.sol:TokenSwapModule",
            "label": "isExecuted",
            "offset": 0,
            "slot": "6",
            "type": "t_bool"
          }
        ],
        "numberOfBytes": "224"
      },
      "t_uint256": {
        "encoding": "inplace",
        "label": "uint256",
        "numberOfBytes": "32"
      },
      "t_uint32": {
        "encoding": "inplace",
        "label": "uint32",
        "numberOfBytes": "4"
      }
    }
  }
}