{
  "address": "0xd7deC2320B7FC1018896C31E433b2E51fdD8C3Af",
  "abi": [
    {
      "inputs": [
        {
          "internalType": "address",
          "name": "_dealManager",
          "type": "address"
        }
      ],
      "stateMutability": "nonpayable",
      "type": "constructor"
    },
    {
      "anonymous": false,
      "inputs": [
        {
          "indexed": true,
          "internalType": "uint32",
          "name": "oldFee",
          "type": "uint32"
        },
        {
          "indexed": true,
          "internalType": "uint32",
          "name": "newFee",
          "type": "uint32"
        }
      ],
      "name": "FeeChanged",
      "type": "event"
    },
    {
      "anonymous": false,
      "inputs": [
        {
          "indexed": true,
          "internalType": "address",
          "name": "oldFeeWallet",
          "type": "address"
        },
        {
          "indexed": true,
          "internalType": "address",
          "name": "newFeeWallet",
          "type": "address"
        }
      ],
      "name": "FeeWalletChanged",
      "type": "event"
    },
    {
      "anonymous": false,
      "inputs": [
        {
          "indexed": true,
          "internalType": "address",
          "name": "module",
          "type": "address"
        },
        {
          "indexed": true,
          "internalType": "uint32",
          "name": "dealId",
          "type": "uint32"
        },
        {
          "indexed": true,
          "internalType": "bytes32",
          "name": "metadata",
          "type": "bytes32"
        },
        {
          "indexed": false,
          "internalType": "address[]",
          "name": "daos",
          "type": "address[]"
        },
        {
          "indexed": false,
          "internalType": "address[]",
          "name": "tokens",
          "type": "address[]"
        },
        {
          "indexed": false,
          "internalType": "uint256[][]",
          "name": "pathFrom",
          "type": "uint256[][]"
        },
        {
          "indexed": false,
          "internalType": "uint256[][]",
          "name": "pathTo",
          "type": "uint256[][]"
        },
        {
          "indexed": false,
          "internalType": "uint32",
          "name": "deadline",
          "type": "uint32"
        }
      ],
      "name": "TokenSwapCreated",
      "type": "event"
    },
    {
      "anonymous": false,
      "inputs": [
        {
          "indexed": true,
          "internalType": "address",
          "name": "module",
          "type": "address"
        },
        {
          "indexed": true,
          "internalType": "uint32",
          "name": "dealId",
          "type": "uint32"
        },
        {
          "indexed": true,
          "internalType": "bytes32",
          "name": "metadata",
          "type": "bytes32"
        }
      ],
      "name": "TokenSwapExecuted",
      "type": "event"
    },
    {
      "stateMutability": "payable",
      "type": "fallback"
    },
    {
      "inputs": [],
      "name": "BPS",
      "outputs": [
        {
          "internalType": "uint256",
          "name": "",
          "type": "uint256"
        }
      ],
      "stateMutability": "view",
      "type": "function"
    },
    {
      "inputs": [],
      "name": "MAX_FEE",
      "outputs": [
        {
          "internalType": "uint32",
          "name": "",
          "type": "uint32"
        }
      ],
      "stateMutability": "view",
      "type": "function"
    },
    {
      "inputs": [
        {
          "internalType": "uint32",
          "name": "_dealId",
          "type": "uint32"
        }
      ],
      "name": "checkExecutability",
      "outputs": [
        {
          "internalType": "bool",
          "name": "",
          "type": "bool"
        }
      ],
      "stateMutability": "view",
      "type": "function"
    },
    {
      "inputs": [
        {
          "internalType": "address[]",
          "name": "_daos",
          "type": "address[]"
        },
        {
          "internalType": "address[]",
          "name": "_tokens",
          "type": "address[]"
        },
        {
          "internalType": "uint256[][]",
          "name": "_pathFrom",
          "type": "uint256[][]"
        },
        {
          "internalType": "uint256[][]",
          "name": "_pathTo",
          "type": "uint256[][]"
        },
        {
          "internalType": "bytes32",
          "name": "_metadata",
          "type": "bytes32"
        },
        {
          "internalType": "uint32",
          "name": "_deadline",
          "type": "uint32"
        }
      ],
      "name": "createSwap",
      "outputs": [
        {
          "internalType": "uint32",
          "name": "",
          "type": "uint32"
        }
      ],
      "stateMutability": "nonpayable",
      "type": "function"
    },
    {
      "inputs": [],
      "name": "dealManager",
      "outputs": [
        {
          "internalType": "contract IDealManager",
          "name": "",
          "type": "address"
        }
      ],
      "stateMutability": "view",
      "type": "function"
    },
    {
      "inputs": [
        {
          "internalType": "uint32",
          "name": "_dealId",
          "type": "uint32"
        }
      ],
      "name": "executeSwap",
      "outputs": [],
      "stateMutability": "nonpayable",
      "type": "function"
    },
    {
      "inputs": [],
      "name": "feeInBasisPoints",
      "outputs": [
        {
          "internalType": "uint32",
          "name": "",
          "type": "uint32"
        }
      ],
      "stateMutability": "view",
      "type": "function"
    },
    {
      "inputs": [],
      "name": "feeWallet",
      "outputs": [
        {
          "internalType": "address",
          "name": "",
          "type": "address"
        }
      ],
      "stateMutability": "view",
      "type": "function"
    },
    {
      "inputs": [
        {
          "internalType": "bytes32",
          "name": "_metadata",
          "type": "bytes32"
        }
      ],
      "name": "getTokenswapFromMetadata",
      "outputs": [
        {
          "components": [
            {
              "internalType": "address[]",
              "name": "daos",
              "type": "address[]"
            },
            {
              "internalType": "address[]",
              "name": "tokens",
              "type": "address[]"
            },
            {
              "internalType": "uint256[][]",
              "name": "pathFrom",
              "type": "uint256[][]"
            },
            {
              "internalType": "uint256[][]",
              "name": "pathTo",
              "type": "uint256[][]"
            },
            {
              "internalType": "uint32",
              "name": "deadline",
              "type": "uint32"
            },
            {
              "internalType": "uint32",
              "name": "executionDate",
              "type": "uint32"
            },
            {
              "internalType": "bytes32",
              "name": "metadata",
              "type": "bytes32"
            },
            {
              "internalType": "bool",
              "name": "isExecuted",
              "type": "bool"
            }
          ],
          "internalType": "struct TokenSwapModule.TokenSwap",
          "name": "swap",
          "type": "tuple"
        }
      ],
      "stateMutability": "view",
      "type": "function"
    },
    {
      "inputs": [
        {
          "internalType": "uint32",
          "name": "_dealId",
          "type": "uint32"
        }
      ],
      "name": "hasDealExpired",
      "outputs": [
        {
          "internalType": "bool",
          "name": "",
          "type": "bool"
        }
      ],
      "stateMutability": "view",
      "type": "function"
    },
    {
      "inputs": [
        {
          "internalType": "bytes32",
          "name": "",
          "type": "bytes32"
        }
      ],
      "name": "metadataToDealId",
      "outputs": [
        {
          "internalType": "uint32",
          "name": "",
          "type": "uint32"
        }
      ],
      "stateMutability": "view",
      "type": "function"
    },
    {
      "inputs": [
        {
          "internalType": "uint32",
          "name": "_feeInBasisPoints",
          "type": "uint32"
        }
      ],
      "name": "setFee",
      "outputs": [],
      "stateMutability": "nonpayable",
      "type": "function"
    },
    {
      "inputs": [
        {
          "internalType": "address",
          "name": "_feeWallet",
          "type": "address"
        }
      ],
      "name": "setFeeWallet",
      "outputs": [],
      "stateMutability": "nonpayable",
      "type": "function"
    },
    {
      "inputs": [
        {
          "internalType": "uint32",
          "name": "",
          "type": "uint32"
        }
      ],
      "name": "tokenSwaps",
      "outputs": [
        {
          "internalType": "uint32",
          "name": "deadline",
          "type": "uint32"
        },
        {
          "internalType": "uint32",
          "name": "executionDate",
          "type": "uint32"
        },
        {
          "internalType": "bytes32",
          "name": "metadata",
          "type": "bytes32"
        },
        {
          "internalType": "bool",
          "name": "isExecuted",
          "type": "bool"
        }
      ],
      "stateMutability": "view",
      "type": "function"
    },
    {
      "stateMutability": "payable",
      "type": "receive"
    }
  ],
  "transactionHash": "0x2e3d4427eda3cfe9105415c0c204a053db17d905715112d8594324e6d5dcaee0",
  "args": [
    "0xb32Dd0C93673cF0A3237D362f0a65b047469DC29"
  ],
  "solcInputHash": "935a8e204a352cd41cd0a74fdfb93581",
  "bytecode": "0x60e06040526107d060a05261271060c0523480156200001d57600080fd5b5060405162003110380380620031108339810160408190526200004091620000b2565b80806001600160a01b0381166200009d5760405162461bcd60e51b815260206004820152601560248201527f4d6f64756c65426173653a204572726f72203130300000000000000000000000604482015260640160405180910390fd5b6001600160a01b031660805250620000e49050565b600060208284031215620000c557600080fd5b81516001600160a01b0381168114620000dd57600080fd5b9392505050565b60805160a05160c051612fb76200015960003960008181610161015261248b01526000818161028c015261049501526000818160f0015281816103ae0152818161088501528181610a510152818161119a0152818161122a01528181611ef00152818161220701526125270152612fb76000f3fe6080604052600436106100d55760003560e01c8063b45edf4711610079578063d24fdb7a11610056578063d24fdb7a146102ce578063f25f4b56146102ee578063fb458ec31461030e578063fe442f5d1461038b57005b8063b45edf4714610256578063bc063e1a1461027a578063cfccd4bc146102ae57005b8063251f02b4116100b2578063251f02b4146101915780638730f344146101c157806390d49b9d14610209578063b42132cd1461022957005b806301df538d146100de5780631ab971ab1461012f578063249d39e91461014f57005b366100dc57005b005b3480156100ea57600080fd5b506101127f000000000000000000000000000000000000000000000000000000000000000081565b6040516001600160a01b0390911681526020015b60405180910390f35b34801561013b57600080fd5b506100dc61014a36600461295d565b6103ab565b34801561015b57600080fd5b506101837f000000000000000000000000000000000000000000000000000000000000000081565b604051908152602001610126565b34801561019d57600080fd5b506101b16101ac36600461295d565b610580565b6040519015158152602001610126565b3480156101cd57600080fd5b506101f46101dc366004612978565b60026020526000908152604090205463ffffffff1681565b60405163ffffffff9091168152602001610126565b34801561021557600080fd5b506100dc6102243660046129a6565b610a4e565b34801561023557600080fd5b50610249610244366004612978565b610bff565b6040516101269190612a83565b34801561026257600080fd5b506000546101f490600160a01b900463ffffffff1681565b34801561028657600080fd5b506101f47f000000000000000000000000000000000000000000000000000000000000000081565b3480156102ba57600080fd5b506101b16102c936600461295d565b610e98565b3480156102da57600080fd5b506101f46102e9366004612b9a565b611143565b3480156102fa57600080fd5b50600054610112906001600160a01b031681565b34801561031a57600080fd5b5061036161032936600461295d565b60016020526000908152604090206004810154600582015460069092015463ffffffff80831693600160201b90930416919060ff1684565b6040805163ffffffff95861681529490931660208501529183015215156060820152608001610126565b34801561039757600080fd5b506100dc6103a636600461295d565b61132d565b337f00000000000000000000000000000000000000000000000000000000000000006001600160a01b0316638da5cb5b6040518163ffffffff1660e01b8152600401602060405180830381865afa15801561040a573d6000803e3d6000fd5b505050506040513d601f19601f8201168201806040525081019061042e9190612c77565b6001600160a01b0316816001600160a01b0316146104935760405162461bcd60e51b815260206004820152601c60248201527f4d6f64756c6542617365576974684665653a204572726f72203232310000000060448201526064015b60405180910390fd5b7f000000000000000000000000000000000000000000000000000000000000000063ffffffff168263ffffffff16111561050f5760405162461bcd60e51b815260206004820152601c60248201527f4d6f64756c6542617365576974684665653a204572726f722032363400000000604482015260640161048a565b60005463ffffffff838116600160a01b909204161461057c576000805463ffffffff60a01b1916600160a01b63ffffffff85811682810293909317808555604051939492900416917fdeab7ddf530f3309d7f88438b7fbb714e557a5a30d0c2d1cfc3c0da1dde409689190a35b5050565b63ffffffff811660009081526001602052604081206005015482906105b75760405162461bcd60e51b815260040161048a90612c94565b63ffffffff831660009081526001602090815260408083208151815461012094810282018501909352610100810183815290939192849284919084018282801561062a57602002820191906000526020600020905b81546001600160a01b0316815260019091019060200180831161060c575b505050505081526020016001820180548060200260200160405190810160405280929190818152602001828054801561068c57602002820191906000526020600020905b81546001600160a01b0316815260019091019060200180831161066e575b5050505050815260200160028201805480602002602001604051908101604052809291908181526020016000905b828210156107265760008481526020908190208301805460408051828502810185019091528181529283018282801561071257602002820191906000526020600020905b8154815260200190600101908083116106fe575b5050505050815260200190600101906106ba565b50505050815260200160038201805480602002602001604051908101604052809291908181526020016000905b828210156107bf576000848152602090819020830180546040805182850281018501909152818152928301828280156107ab57602002820191906000526020600020905b815481526020019060010190808311610797575b505050505081526020019060010190610753565b50505090825250600482015463ffffffff8082166020840152600160201b9091041660408201526005820154606082015260069091015460ff161515608090910152905061080c84610e98565b1561081b576000925050610a48565b602081015160005b8151811015610a405760008360400151828151811061084457610844612ccb565b6020026020010151905060005b8151811015610a2d5781818151811061086c5761086c612ccb565b60200260200101516000141561088157610a1d565b60007f00000000000000000000000000000000000000000000000000000000000000006001600160a01b03166371cfe498876000015184815181106108c8576108c8612ccb565b60200260200101516040518263ffffffff1660e01b81526004016108fb91906001600160a01b0391909116815260200190565b602060405180830381865afa158015610918573d6000803e3d6000fd5b505050506040513d601f19601f8201168201806040525081019061093c9190612c77565b6001600160a01b031663246cd574308b88888151811061095e5761095e612ccb565b60200260200101516040518463ffffffff1660e01b81526004016109a8939291906001600160a01b03938416815263ffffffff929092166020830152909116604082015260600190565b602060405180830381865afa1580156109c5573d6000803e3d6000fd5b505050506040513d601f19601f820116820180604052508101906109e99190612ce1565b90508282815181106109fd576109fd612ccb565b6020026020010151811015610a1b5760009750505050505050610a48565b505b610a2681612d10565b9050610851565b505080610a3990612d10565b9050610823565b506001935050505b50919050565b337f00000000000000000000000000000000000000000000000000000000000000006001600160a01b0316638da5cb5b6040518163ffffffff1660e01b8152600401602060405180830381865afa158015610aad573d6000803e3d6000fd5b505050506040513d601f19601f82011682018060405250810190610ad19190612c77565b6001600160a01b0316816001600160a01b031614610b315760405162461bcd60e51b815260206004820152601c60248201527f4d6f64756c6542617365576974684665653a204572726f722032323100000000604482015260640161048a565b6001600160a01b03821615801590610b5257506001600160a01b0382163014155b610b9e5760405162461bcd60e51b815260206004820152601c60248201527f4d6f64756c6542617365576974684665653a204572726f722031303000000000604482015260640161048a565b6000546001600160a01b0383811691161461057c57600080546001600160a01b0319166001600160a01b0384169081178255604051909182917f9f4f5dce3c4d197b5d7496cb96e25f0a89809167195964b0daa3ef5fed63c00a9190a35050565b60408051610100810182526060808252602082018190529181018290528181019190915260006080820181905260a0820181905260c0820181905260e082015260008281526002602090815260408083205463ffffffff1683526001825291829020825181546101209381028201840190945261010081018481529093919284928491840182828015610cbb57602002820191906000526020600020905b81546001600160a01b03168152600190910190602001808311610c9d575b5050505050815260200160018201805480602002602001604051908101604052809291908181526020018280548015610d1d57602002820191906000526020600020905b81546001600160a01b03168152600190910190602001808311610cff575b5050505050815260200160028201805480602002602001604051908101604052809291908181526020016000905b82821015610db757600084815260209081902083018054604080518285028101850190915281815292830182828015610da357602002820191906000526020600020905b815481526020019060010190808311610d8f575b505050505081526020019060010190610d4b565b50505050815260200160038201805480602002602001604051908101604052809291908181526020016000905b82821015610e5057600084815260209081902083018054604080518285028101850190915281815292830182828015610e3c57602002820191906000526020600020905b815481526020019060010190808311610e28575b505050505081526020019060010190610de4565b50505090825250600482015463ffffffff8082166020840152600160201b9091041660408201526005820154606082015260069091015460ff16151560809091015292915050565b63ffffffff81166000908152600160205260408120600501548290610ecf5760405162461bcd60e51b815260040161048a90612c94565b63ffffffff8316600090815260016020908152604080832081518154610120948102820185019093526101008101838152909391928492849190840182828015610f4257602002820191906000526020600020905b81546001600160a01b03168152600190910190602001808311610f24575b5050505050815260200160018201805480602002602001604051908101604052809291908181526020018280548015610fa457602002820191906000526020600020905b81546001600160a01b03168152600190910190602001808311610f86575b5050505050815260200160028201805480602002602001604051908101604052809291908181526020016000905b8282101561103e5760008481526020908190208301805460408051828502810185019091528181529283018282801561102a57602002820191906000526020600020905b815481526020019060010190808311611016575b505050505081526020019060010190610fd2565b50505050815260200160038201805480602002602001604051908101604052809291908181526020016000905b828210156110d7576000848152602090819020830180546040805182850281018501909152818152928301828280156110c357602002820191906000526020600020905b8154815260200190600101908083116110af575b50505050508152602001906001019061106b565b50505090825250600482015463ffffffff8082166020840152600160201b9091041660408201526005820154606082015260069091015460ff16151560809091015260e08101519091508061113b57504263ffffffff16816080015163ffffffff16105b949350505050565b6000805b8a8110156112985760008c8c8381811061116357611163612ccb565b905060200201602081019061117891906129a6565b60405163c221e44b60e01b81526001600160a01b0380831660048301529192507f00000000000000000000000000000000000000000000000000000000000000009091169063c221e44b90602401602060405180830381865afa1580156111e3573d6000803e3d6000fd5b505050506040513d601f19601f820116820180604052508101906112079190612d2b565b6112875760405163253feb5d60e21b81526001600160a01b0382811660048301527f000000000000000000000000000000000000000000000000000000000000000016906394ffad7490602401600060405180830381600087803b15801561126e57600080fd5b505af1158015611282573d6000803e3d6000fd5b505050505b5061129181612d10565b9050611147565b5061131e8b8b8080602002602001604051908101604052809392919081815260200183836020028082843760009201919091525050604080516020808f0282810182019093528e82529093508e92508d91829185019084908082843760009201919091525061130d92508b91508c9050612db8565b611317888a612db8565b87876118ed565b9b9a5050505050505050505050565b63ffffffff811660009081526001602052604090206005015481906113645760405162461bcd60e51b815260040161048a90612c94565b63ffffffff8216600090815260016020526040902060060154829060ff16156113cf5760405162461bcd60e51b815260206004820152601a60248201527f546f6b656e537761704d6f64756c653a204572726f7220323636000000000000604482015260640161048a565b63ffffffff831660009081526001602052604090206113ed84610580565b6114395760405162461bcd60e51b815260206004820152601a60248201527f546f6b656e537761704d6f64756c653a204572726f7220323635000000000000604482015260640161048a565b6000611592858360000180548060200260200160405190810160405280929190818152602001828054801561149757602002820191906000526020600020905b81546001600160a01b03168152600190910190602001808311611479575b5050505050846001018054806020026020016040519081016040528092919081815260200182805480156114f457602002820191906000526020600020905b81546001600160a01b031681526001909101906020018083116114d6575b505050505085600201805480602002602001604051908101604052809291908181526020016000905b828210156115895760008481526020908190208301805460408051828502810185019091528181529283018282801561157557602002820191906000526020600020905b815481526020019060010190808311611561575b50505050508152602001906001019061151d565b50505050611d89565b604080518454610120602082028301810190935261010082018181529394506000936117d69387928492918491908401828280156115f957602002820191906000526020600020905b81546001600160a01b031681526001909101906020018083116115db575b505050505081526020016001820180548060200260200160405190810160405280929190818152602001828054801561165b57602002820191906000526020600020905b81546001600160a01b0316815260019091019060200180831161163d575b5050505050815260200160028201805480602002602001604051908101604052809291908181526020016000905b828210156116f5576000848152602090819020830180546040805182850281018501909152818152928301828280156116e157602002820191906000526020600020905b8154815260200190600101908083116116cd575b505050505081526020019060010190611689565b50505050815260200160038201805480602002602001604051908101604052809291908181526020016000905b8282101561178e5760008481526020908190208301805460408051828502810185019091528181529283018282801561177a57602002820191906000526020600020905b815481526020019060010190808311611766575b505050505081526020019060010190611722565b50505090825250600482015463ffffffff8082166020840152600160201b9091041660408201526005820154606082015260069091015460ff16151560809091015287612069565b905060005b6001840154811015611878578181815181106117f9576117f9612ccb565b602002602001015183828151811061181357611813612ccb565b6020026020010151146118685760405162461bcd60e51b815260206004820152601a60248201527f546f6b656e537761704d6f64756c653a204572726f7220313033000000000000604482015260640161048a565b61187181612d10565b90506117db565b5060068301805460ff1916600117905560048301805463ffffffff428116600160201b0267ffffffff0000000019909216919091179091556005840154604051909188169030907fec8c89d1275fdc3512da61ea020e4d570bb3bf0fba7163f506a1ef7b5e55179a90600090a4505050505050565b60008261193c5760405162461bcd60e51b815260206004820152601a60248201527f546f6b656e537761704d6f64756c653a204572726f7220313031000000000000604482015260640161048a565b6119458361241f565b6119915760405162461bcd60e51b815260206004820152601a60248201527f546f6b656e537761704d6f64756c653a204572726f7220323033000000000000604482015260640161048a565b6002875110156119e35760405162461bcd60e51b815260206004820152601a60248201527f546f6b656e537761704d6f64756c653a204572726f7220323034000000000000604482015260640161048a565b8551611a315760405162461bcd60e51b815260206004820152601a60248201527f546f6b656e537761704d6f64756c653a204572726f7220323035000000000000604482015260640161048a565b60008263ffffffff1611611a875760405162461bcd60e51b815260206004820152601a60248201527f546f6b656e537761704d6f64756c653a204572726f7220313031000000000000604482015260640161048a565b8451865181148015611a995750845181145b611ae55760405162461bcd60e51b815260206004820152601a60248201527f546f6b656e537761704d6f64756c653a204572726f7220313032000000000000604482015260640161048a565b875160005b82811015611b945781888281518110611b0557611b05612ccb565b602002602001015151148015611b385750600282901b878281518110611b2d57611b2d612ccb565b602002602001015151145b611b845760405162461bcd60e51b815260206004820152601a60248201527f546f6b656e537761704d6f64756c653a204572726f7220313032000000000000604482015260640161048a565b611b8d81612d10565b9050611aea565b5060006040518061010001604052808b81526020018a81526020018981526020018881526020018642611bc79190612e83565b63ffffffff9081168252600060208301819052604083018a905260609092018290529054919250611c0191600160c01b9004166001612e83565b6000805463ffffffff60c01b1916600160c01b63ffffffff938416810291909117808355049091168152600160209081526040909120825180518493611c4b9284929101906127f8565b506020828101518051611c6492600185019201906127f8565b5060408201518051611c8091600284019160209091019061285d565b5060608201518051611c9c91600384019160209091019061285d565b50608082015160048201805460a085015163ffffffff908116600160201b0267ffffffffffffffff199092169381169390931717905560c0830151600583015560e0909201516006909101805491151560ff199092169190911790556000805488825260026020526040808320805463ffffffff1916600160c01b93849004861617905591549151899391909204169030907f93ec9825c63237a731b7205f8e661ee12357e9993bda8c3d47fb709482e769a990611d63908f908f908f908f908e90612eab565b60405180910390a45050600054600160c01b900463ffffffff1698975050505050505050565b6060825167ffffffffffffffff811115611da557611da5612d4d565b604051908082528060200260200182016040528015611dce578160200160208202803683370190505b5090508251825114611e1a5760405162461bcd60e51b815260206004820152601560248201527426b7b23ab632a130b9b29d1022b93937b91018981960591b604482015260640161048a565b60005b8351811015612060576000838281518110611e3a57611e3a612ccb565b602002602001015190508551815114611e8d5760405162461bcd60e51b815260206004820152601560248201527426b7b23ab632a130b9b29d1022b93937b91018981960591b604482015260640161048a565b60005b815181101561204d576000828281518110611ead57611ead612ccb565b60200260200101519050600081111561203c5780858581518110611ed357611ed3612ccb565b60200260200101818151611ee79190612f11565b915081815250507f00000000000000000000000000000000000000000000000000000000000000006001600160a01b03166371cfe498898481518110611f2f57611f2f612ccb565b60200260200101516040518263ffffffff1660e01b8152600401611f6291906001600160a01b0391909116815260200190565b602060405180830381865afa158015611f7f573d6000803e3d6000fd5b505050506040513d601f19601f82011682018060405250810190611fa39190612c77565b6001600160a01b0316632162a70c8a898781518110611fc457611fc4612ccb565b60209081029190910101516040516001600160e01b031960e085901b16815263ffffffff9290921660048301526001600160a01b0316602482015260448101849052606401600060405180830381600087803b15801561202357600080fd5b505af1158015612037573d6000803e3d6000fd5b505050505b5061204681612d10565b9050611e90565b50508061205990612d10565b9050611e1d565b50949350505050565b606082602001515167ffffffffffffffff81111561208957612089612d4d565b6040519080825280602002602001820160405280156120b2578160200160208202803683370190505b50905060005b836020015151811015612418576000846060015182815181106120dd576120dd612ccb565b602002602001015190506000856020015183815181106120ff576120ff612ccb565b6020026020010151905060005b825160021c81101561240457600083600283901b8151811061213057612130612ccb565b60200260200101519050600084600284901b600161214e9190612f11565b8151811061215e5761215e612ccb565b6020026020010151905060008211156121c5578187878151811061218457612184612ccb565b602002602001018181516121989190612f11565b905250885180516121c3918691869081106121b5576121b5612ccb565b602002602001015184612437565b505b80156123f157808787815181106121de576121de612ccb565b602002602001018181516121f29190612f11565b90525060006122018583612457565b905060007f00000000000000000000000000000000000000000000000000000000000000006001600160a01b03166371cfe4988c60000151878151811061224a5761224a612ccb565b60200260200101516040518263ffffffff1660e01b815260040161227d91906001600160a01b0391909116815260200190565b602060405180830381865afa15801561229a573d6000803e3d6000fd5b505050506040513d601f19601f820116820180604052508101906122be9190612c77565b90506001600160a01b038616156122f7576122f7868c6000015187815181106122e9576122e9612ccb565b602002602001015184612502565b6001600160a01b038082169063d405929290881615612317576000612319565b835b8c89868c61232b60028d811b90612f11565b8151811061233b5761233b612ccb565b60200260200101518d60028d901b60036123559190612f11565b8151811061236557612365612ccb565b60209081029190910101516040516001600160e01b031960e089901b16815263ffffffff95861660048201526001600160a01b03909416602485015260448401929092528316606483015291909116608482015260a4016000604051808303818588803b1580156123d557600080fd5b505af11580156123e9573d6000803e3d6000fd5b505050505050505b5050806123fd90612d10565b905061210c565b5050508061241190612d10565b90506120b8565b5092915050565b60008061242b83610bff565b60c00151159392505050565b60006124438483612457565b905061245084848361259d565b9392505050565b600080546001600160a01b0316158015906124805750600054600160a01b900463ffffffff1615155b156124f957600080547f0000000000000000000000000000000000000000000000000000000000000000906124c290600160a01b900463ffffffff1685612f29565b6124cc9190612f48565b6000549091506124e79085906001600160a01b03168361259d565b6124f18184612f6a565b9150506124fc565b50805b92915050565b604051630e39fc9360e31b81526001600160a01b0383811660048301526125989185917f000000000000000000000000000000000000000000000000000000000000000016906371cfe49890602401602060405180830381865afa15801561256e573d6000803e3d6000fd5b505050506040513d601f19601f820116820180604052508101906125929190612c77565b83612741565b505050565b6001600160a01b038316156126a65760405163a9059cbb60e01b81526001600160a01b0383811660048301526024820183905284169063a9059cbb906044016020604051808303816000875af1925050508015612617575060408051601f3d908101601f1916820190925261261491810190612d2b565b60015b61265b5760405162461bcd60e51b81526020600482015260156024820152744d6f64756c65426173653a204572726f722032343160581b604482015260640161048a565b806126a05760405162461bcd60e51b81526020600482015260156024820152744d6f64756c65426173653a204572726f722032343160581b604482015260640161048a565b50505050565b6000826001600160a01b03168260405160006040518083038185875af1925050503d80600081146126f3576040519150601f19603f3d011682016040523d82523d6000602084013e6126f8565b606091505b50509050806126a05760405162461bcd60e51b815260206004820152601560248201527426b7b23ab632a130b9b29d1022b93937b910191a1960591b604482015260640161048a565b60405163095ea7b360e01b81526001600160a01b0383811660048301526024820183905284169063095ea7b3906044016020604051808303816000875af1158015612790573d6000803e3d6000fd5b505050506040513d601f19601f820116820180604052508101906127b49190612d2b565b6125985760405162461bcd60e51b81526020600482015260156024820152744d6f64756c65426173653a204572726f722032343360581b604482015260640161048a565b82805482825590600052602060002090810192821561284d579160200282015b8281111561284d57825182546001600160a01b0319166001600160a01b03909116178255602090920191600190910190612818565b506128599291506128b6565b5090565b8280548282559060005260206000209081019282156128aa579160200282015b828111156128aa578251805161289a9184916020909101906128cb565b509160200191906001019061287d565b50612859929150612906565b5b8082111561285957600081556001016128b7565b82805482825590600052602060002090810192821561284d579160200282015b8281111561284d5782518255916020019190600101906128eb565b8082111561285957600061291a8282612923565b50600101612906565b508054600082559060005260206000209081019061294191906128b6565b50565b803563ffffffff8116811461295857600080fd5b919050565b60006020828403121561296f57600080fd5b61245082612944565b60006020828403121561298a57600080fd5b5035919050565b6001600160a01b038116811461294157600080fd5b6000602082840312156129b857600080fd5b813561245081612991565b600081518084526020808501945080840160005b838110156129fc5781516001600160a01b0316875295820195908201906001016129d7565b509495945050505050565b600081518084526020808501808196508360051b810191508286016000805b86811015612a75578385038a52825180518087529087019087870190845b81811015612a6057835183529289019291890191600101612a44565b50509a87019a95505091850191600101612a26565b509298975050505050505050565b6020815260008251610100806020850152612aa26101208501836129c3565b91506020850151601f1980868503016040870152612ac084836129c3565b93506040870151915080868503016060870152612add8483612a07565b9350606087015191508086850301608087015250612afb8382612a07565b9250506080850151612b1560a086018263ffffffff169052565b5060a085015163ffffffff811660c08601525060c085015160e085015260e0850151612b448286018215159052565b5090949350505050565b60008083601f840112612b6057600080fd5b50813567ffffffffffffffff811115612b7857600080fd5b6020830191508360208260051b8501011115612b9357600080fd5b9250929050565b60008060008060008060008060008060c08b8d031215612bb957600080fd5b8a3567ffffffffffffffff80821115612bd157600080fd5b612bdd8e838f01612b4e565b909c509a5060208d0135915080821115612bf657600080fd5b612c028e838f01612b4e565b909a50985060408d0135915080821115612c1b57600080fd5b612c278e838f01612b4e565b909850965060608d0135915080821115612c4057600080fd5b50612c4d8d828e01612b4e565b90955093505060808b01359150612c6660a08c01612944565b90509295989b9194979a5092959850565b600060208284031215612c8957600080fd5b815161245081612991565b6020808252601a908201527f546f6b656e537761704d6f64756c653a204572726f7220323037000000000000604082015260600190565b634e487b7160e01b600052603260045260246000fd5b600060208284031215612cf357600080fd5b5051919050565b634e487b7160e01b600052601160045260246000fd5b6000600019821415612d2457612d24612cfa565b5060010190565b600060208284031215612d3d57600080fd5b8151801515811461245057600080fd5b634e487b7160e01b600052604160045260246000fd5b604051601f8201601f1916810167ffffffffffffffff81118282101715612d8c57612d8c612d4d565b604052919050565b600067ffffffffffffffff821115612dae57612dae612d4d565b5060051b60200190565b6000612dcb612dc684612d94565b612d63565b83815260208082019190600586811b860136811115612de957600080fd5b865b81811015612e7657803567ffffffffffffffff811115612e0b5760008081fd5b880136601f820112612e1d5760008081fd5b8035612e2b612dc682612d94565b81815290851b82018601908681019036831115612e485760008081fd5b928701925b82841015612e6657833582529287019290870190612e4d565b8952505050948301948301612deb565b5092979650505050505050565b600063ffffffff808316818516808303821115612ea257612ea2612cfa565b01949350505050565b60a081526000612ebe60a08301886129c3565b8281036020840152612ed081886129c3565b90508281036040840152612ee48187612a07565b90508281036060840152612ef88186612a07565b91505063ffffffff831660808301529695505050505050565b60008219821115612f2457612f24612cfa565b500190565b6000816000190483118215151615612f4357612f43612cfa565b500290565b600082612f6557634e487b7160e01b600052601260045260246000fd5b500490565b600082821015612f7c57612f7c612cfa565b50039056fea2646970667358221220ece019195b4d8f1ade1c2700a6b34fd6c3f2cce52479afda55c0f67283941be864736f6c634300080a0033",
  "devdoc": {
    "events": {
      "TokenSwapCreated(address,uint32,bytes32,address[],address[],uint256[][],uint256[][],uint32)": {
        "params": {
          "daos": "Array containing the DAOs that are involed in creating the token swap",
          "deadline": "The amount of time between the creation of the swap and the time when it can no longer be executed, in seconds",
          "dealId": "Deal id for the created token swap",
          "metadata": "Unique ID that is generated throught the Prime Deals frontend",
          "module": "Address of this module",
          "pathFrom": "Two-dimensional array containing the tokens flowing from the DAOs into the module",
          "pathTo": "Two-dimensional array containing the tokens flowing from the module to the DAOs",
          "tokens": "Array containing the tokens that are involed in creating the token swap"
        }
      },
      "TokenSwapExecuted(address,uint32,bytes32)": {
        "params": {
          "dealId": "Deal id for the executed token swap",
          "metadata": "Unique ID that is generated throught the Prime Deals frontend",
          "module": "Address of this module"
        }
      }
    },
    "kind": "dev",
    "methods": {
      "checkExecutability(uint32)": {
        "params": {
          "_dealId": "The dealId of the action (key to the mapping)"
        },
        "returns": {
          "_0": "bool        A bool flag indiciating whether the action can be executed"
        }
      },
      "createSwap(address[],address[],uint256[][],uint256[][],bytes32,uint32)": {
        "params": {
          "_daos": "Array containing the DAOs that are involed in this action",
          "_deadline": "The amount of time between the creation of the swap and the time when it can no longer be executed, in seconds",
          "_metadata": "Unique ID that is generated throught the Prime Deals frontend",
          "_pathFrom": "Two-dimensional array containing the tokens flowing from the DAOs into the module: - First array level is for each token - Second array level is for each dao - Detailed overview on how to configure the array can be found at the TokenSwap struct description",
          "_pathTo": "Two-dimensional array containing the tokens flowing from the module to the DAOs: - First array level is for each token - Second array level is for each dao - Detailed overview on how to configure the array can be found at the TokenSwap struct description",
          "_tokens": "Array containing the tokens that are involed in this action"
        },
        "returns": {
          "_0": "uin32       The dealId of the new token swap"
        }
      },
      "executeSwap(uint32)": {
        "params": {
          "_dealId": "The dealId of the action (key to the mapping)"
        }
      },
      "getTokenswapFromMetadata(bytes32)": {
        "params": {
          "_metadata": "Unique ID that is generated throught the Prime Deals frontend"
        },
        "returns": {
          "swap": "        Token swap struct associated with the metadata"
        }
      },
      "hasDealExpired(uint32)": {
        "params": {
          "_dealId": "The dealId of the action (key to the mapping)"
        },
        "returns": {
          "_0": "bool         A bool flag indiciating whether token swap has expired"
        }
      },
      "setFee(uint32)": {
        "params": {
          "_feeInBasisPoints": "Fee amount in basis points (1% = 100)"
        }
      },
      "setFeeWallet(address)": {
        "details": "The fee system will be inactive if the feeWallet is set to a zero-address",
        "params": {
          "_feeWallet": "Address of the new fee wallet"
        }
      }
    },
    "title": "PrimeDeals Token Swap Module",
    "version": 1
  },
  "userdoc": {
    "events": {
      "FeeChanged(uint32,uint32)": {
        "notice": "This event is emitted when the fee is updated"
      },
      "FeeWalletChanged(address,address)": {
        "notice": "This event is emitted when the fee wallet address is updated"
      },
      "TokenSwapCreated(address,uint32,bytes32,address[],address[],uint256[][],uint256[][],uint32)": {
        "notice": "This event is emitted when a token swap is created"
      },
      "TokenSwapExecuted(address,uint32,bytes32)": {
        "notice": "This event is emitted when a token swap is executed"
      }
    },
    "kind": "user",
    "methods": {
      "checkExecutability(uint32)": {
        "notice": "Checks whether a token swap action can be executed, which is the case if all DAOs have deposited"
      },
      "createSwap(address[],address[],uint256[][],uint256[][],bytes32,uint32)": {
        "notice": "Create a new token swap action and automatically creates Dao Deposit Manager for each DAO that does not have one"
      },
      "dealManager()": {
        "notice": "Address of the DealManager implementation"
      },
      "executeSwap(uint32)": {
        "notice": "Executes a token swap action"
      },
      "feeInBasisPoints()": {
        "notice": "Fee in basis points (100% = 10000)"
      },
      "feeWallet()": {
        "notice": "Wallet that is receiving the fees"
      },
      "getTokenswapFromMetadata(bytes32)": {
        "notice": "Returns the TokenSwap struct associated with the metadata"
      },
      "hasDealExpired(uint32)": {
        "notice": "Checks if the deal has been expired"
      },
      "metadataToDealId(bytes32)": {
        "notice": "Metadata => deal ID"
      },
      "setFee(uint32)": {
        "notice": "Sets a new fee"
      },
      "setFeeWallet(address)": {
        "notice": "Sets a new fee wallet"
      }
    },
    "notice": "Smart contract to handle token swap interactions for PrimeDeals",
    "version": 1
  },
  "storageLayout": {
    "storage": [
      {
        "astId": 4408,
        "contract": "contracts/modules/tokenswap/TokenSwapModule.sol:TokenSwapModule",
        "label": "feeWallet",
        "offset": 0,
        "slot": "0",
        "type": "t_address"
      },
      {
        "astId": 4411,
        "contract": "contracts/modules/tokenswap/TokenSwapModule.sol:TokenSwapModule",
        "label": "feeInBasisPoints",
        "offset": 20,
        "slot": "0",
        "type": "t_uint32"
      },
      {
        "astId": 7409,
        "contract": "contracts/modules/tokenswap/TokenSwapModule.sol:TokenSwapModule",
        "label": "lastDealId",
        "offset": 24,
        "slot": "0",
        "type": "t_uint32"
      },
      {
        "astId": 7414,
        "contract": "contracts/modules/tokenswap/TokenSwapModule.sol:TokenSwapModule",
        "label": "tokenSwaps",
        "offset": 0,
        "slot": "1",
        "type": "t_mapping(t_uint32,t_struct(TokenSwap)7449_storage)"
      },
      {
        "astId": 7419,
        "contract": "contracts/modules/tokenswap/TokenSwapModule.sol:TokenSwapModule",
        "label": "metadataToDealId",
        "offset": 0,
        "slot": "2",
        "type": "t_mapping(t_bytes32,t_uint32)"
      }
    ],
    "types": {
      "t_address": {
        "encoding": "inplace",
        "label": "address",
        "numberOfBytes": "20"
      },
      "t_array(t_address)dyn_storage": {
        "base": "t_address",
        "encoding": "dynamic_array",
        "label": "address[]",
        "numberOfBytes": "32"
      },
      "t_array(t_array(t_uint256)dyn_storage)dyn_storage": {
        "base": "t_array(t_uint256)dyn_storage",
        "encoding": "dynamic_array",
        "label": "uint256[][]",
        "numberOfBytes": "32"
      },
      "t_array(t_uint256)dyn_storage": {
        "base": "t_uint256",
        "encoding": "dynamic_array",
        "label": "uint256[]",
        "numberOfBytes": "32"
      },
      "t_bool": {
        "encoding": "inplace",
        "label": "bool",
        "numberOfBytes": "1"
      },
      "t_bytes32": {
        "encoding": "inplace",
        "label": "bytes32",
        "numberOfBytes": "32"
      },
      "t_mapping(t_bytes32,t_uint32)": {
        "encoding": "mapping",
        "key": "t_bytes32",
        "label": "mapping(bytes32 => uint32)",
        "numberOfBytes": "32",
        "value": "t_uint32"
      },
      "t_mapping(t_uint32,t_struct(TokenSwap)7449_storage)": {
        "encoding": "mapping",
        "key": "t_uint32",
        "label": "mapping(uint32 => struct TokenSwapModule.TokenSwap)",
        "numberOfBytes": "32",
        "value": "t_struct(TokenSwap)7449_storage"
      },
      "t_struct(TokenSwap)7449_storage": {
        "encoding": "inplace",
        "label": "struct TokenSwapModule.TokenSwap",
        "members": [
          {
            "astId": 7423,
            "contract": "contracts/modules/tokenswap/TokenSwapModule.sol:TokenSwapModule",
            "label": "daos",
            "offset": 0,
            "slot": "0",
            "type": "t_array(t_address)dyn_storage"
          },
          {
            "astId": 7427,
            "contract": "contracts/modules/tokenswap/TokenSwapModule.sol:TokenSwapModule",
            "label": "tokens",
            "offset": 0,
            "slot": "1",
            "type": "t_array(t_address)dyn_storage"
          },
          {
            "astId": 7432,
            "contract": "contracts/modules/tokenswap/TokenSwapModule.sol:TokenSwapModule",
            "label": "pathFrom",
            "offset": 0,
            "slot": "2",
            "type": "t_array(t_array(t_uint256)dyn_storage)dyn_storage"
          },
          {
            "astId": 7437,
            "contract": "contracts/modules/tokenswap/TokenSwapModule.sol:TokenSwapModule",
            "label": "pathTo",
            "offset": 0,
            "slot": "3",
            "type": "t_array(t_array(t_uint256)dyn_storage)dyn_storage"
          },
          {
            "astId": 7440,
            "contract": "contracts/modules/tokenswap/TokenSwapModule.sol:TokenSwapModule",
            "label": "deadline",
            "offset": 0,
            "slot": "4",
            "type": "t_uint32"
          },
          {
            "astId": 7443,
            "contract": "contracts/modules/tokenswap/TokenSwapModule.sol:TokenSwapModule",
            "label": "executionDate",
            "offset": 4,
            "slot": "4",
            "type": "t_uint32"
          },
          {
            "astId": 7446,
            "contract": "contracts/modules/tokenswap/TokenSwapModule.sol:TokenSwapModule",
            "label": "metadata",
            "offset": 0,
            "slot": "5",
            "type": "t_bytes32"
          },
          {
            "astId": 7448,
            "contract": "contracts/modules/tokenswap/TokenSwapModule.sol:TokenSwapModule",
            "label": "isExecuted",
            "offset": 0,
            "slot": "6",
            "type": "t_bool"
          }
        ],
        "numberOfBytes": "224"
      },
      "t_uint256": {
        "encoding": "inplace",
        "label": "uint256",
        "numberOfBytes": "32"
      },
      "t_uint32": {
        "encoding": "inplace",
        "label": "uint32",
        "numberOfBytes": "4"
      }
    }
  }
}