{
  "address": "0xC13dcc1E21681f8069A5f0f81507d37C81822a45",
  "abi": [
    {
      "inputs": [
        {
          "internalType": "address",
          "name": "_baseContract",
          "type": "address"
        }
      ],
      "stateMutability": "nonpayable",
      "type": "constructor"
    },
    {
      "anonymous": false,
      "inputs": [
        {
          "indexed": false,
          "internalType": "uint256",
          "name": "oldFee",
          "type": "uint256"
        },
        {
          "indexed": false,
          "internalType": "uint256",
          "name": "newFee",
          "type": "uint256"
        }
      ],
      "name": "FeeChanged",
      "type": "event"
    },
    {
      "anonymous": false,
      "inputs": [
        {
          "indexed": false,
          "internalType": "address",
          "name": "oldFeeWallet",
          "type": "address"
        },
        {
          "indexed": false,
          "internalType": "address",
          "name": "newFeeWallet",
          "type": "address"
        }
      ],
      "name": "FeeWalletChanged",
      "type": "event"
    },
    {
      "anonymous": false,
      "inputs": [
        {
          "indexed": true,
          "internalType": "uint256",
          "name": "id",
          "type": "uint256"
        }
      ],
      "name": "TokenSwapCancelled",
      "type": "event"
    },
    {
      "anonymous": false,
      "inputs": [
        {
          "indexed": true,
          "internalType": "uint256",
          "name": "id",
          "type": "uint256"
        },
        {
          "indexed": false,
          "internalType": "address[]",
          "name": "daos",
          "type": "address[]"
        },
        {
          "indexed": false,
          "internalType": "address[]",
          "name": "tokens",
          "type": "address[]"
        },
        {
          "indexed": false,
          "internalType": "uint256[][]",
          "name": "pathFrom",
          "type": "uint256[][]"
        },
        {
          "indexed": false,
          "internalType": "uint256[][]",
          "name": "pathTo",
          "type": "uint256[][]"
        },
        {
          "indexed": false,
          "internalType": "uint256",
          "name": "deadline",
          "type": "uint256"
        }
      ],
      "name": "TokenSwapCreated",
      "type": "event"
    },
    {
      "anonymous": false,
      "inputs": [
        {
          "indexed": true,
          "internalType": "uint256",
          "name": "id",
          "type": "uint256"
        },
        {
          "indexed": false,
          "internalType": "uint256",
          "name": "newDeadline",
          "type": "uint256"
        }
      ],
      "name": "TokenSwapDeadlineExtended",
      "type": "event"
    },
    {
      "anonymous": false,
      "inputs": [
        {
          "indexed": true,
          "internalType": "uint256",
          "name": "id",
          "type": "uint256"
        }
      ],
      "name": "TokenSwapExecuted",
      "type": "event"
    },
    {
      "inputs": [],
      "name": "baseContract",
      "outputs": [
        {
          "internalType": "contract IBaseContract",
          "name": "",
          "type": "address"
        }
      ],
      "stateMutability": "view",
      "type": "function"
    },
    {
      "inputs": [
        {
          "internalType": "uint256",
          "name": "_id",
          "type": "uint256"
        }
      ],
      "name": "cancelSwap",
      "outputs": [],
      "stateMutability": "nonpayable",
      "type": "function"
    },
    {
      "inputs": [
        {
          "internalType": "uint256",
          "name": "_id",
          "type": "uint256"
        }
      ],
      "name": "checkExecutability",
      "outputs": [
        {
          "internalType": "bool",
          "name": "",
          "type": "bool"
        }
      ],
      "stateMutability": "view",
      "type": "function"
    },
    {
      "inputs": [
        {
          "internalType": "address[]",
          "name": "_daos",
          "type": "address[]"
        },
        {
          "internalType": "address[]",
          "name": "_tokens",
          "type": "address[]"
        },
        {
          "internalType": "uint256[][]",
          "name": "_pathFrom",
          "type": "uint256[][]"
        },
        {
          "internalType": "uint256[][]",
          "name": "_pathTo",
          "type": "uint256[][]"
        },
        {
          "internalType": "uint256",
          "name": "_deadline",
          "type": "uint256"
        }
      ],
      "name": "createDepositContractAndCreateSwap",
      "outputs": [
        {
          "internalType": "uint256",
          "name": "",
          "type": "uint256"
        }
      ],
      "stateMutability": "nonpayable",
      "type": "function"
    },
    {
      "inputs": [
        {
          "internalType": "address[]",
          "name": "_daos",
          "type": "address[]"
        },
        {
          "internalType": "address[]",
          "name": "_tokens",
          "type": "address[]"
        },
        {
          "internalType": "uint256[][]",
          "name": "_pathFrom",
          "type": "uint256[][]"
        },
        {
          "internalType": "uint256[][]",
          "name": "_pathTo",
          "type": "uint256[][]"
        },
        {
          "internalType": "uint256",
          "name": "_deadline",
          "type": "uint256"
        }
      ],
      "name": "createSwap",
      "outputs": [
        {
          "internalType": "uint256",
          "name": "",
          "type": "uint256"
        }
      ],
      "stateMutability": "nonpayable",
      "type": "function"
    },
    {
      "inputs": [
        {
          "internalType": "uint256",
          "name": "_id",
          "type": "uint256"
        }
      ],
      "name": "executeSwap",
      "outputs": [],
      "stateMutability": "nonpayable",
      "type": "function"
    },
    {
      "inputs": [
        {
          "internalType": "uint256",
          "name": "_id",
          "type": "uint256"
        },
        {
          "internalType": "uint256",
          "name": "_amount",
          "type": "uint256"
        }
      ],
      "name": "extendDeadline",
      "outputs": [],
      "stateMutability": "nonpayable",
      "type": "function"
    },
    {
      "inputs": [],
      "name": "feeInBasisPoints",
      "outputs": [
        {
          "internalType": "uint256",
          "name": "",
          "type": "uint256"
        }
      ],
      "stateMutability": "view",
      "type": "function"
    },
    {
      "inputs": [],
      "name": "feeWallet",
      "outputs": [
        {
          "internalType": "address",
          "name": "",
          "type": "address"
        }
      ],
      "stateMutability": "view",
      "type": "function"
    },
    {
      "inputs": [],
      "name": "moduleIdentifier",
      "outputs": [
        {
          "internalType": "bytes32",
          "name": "",
          "type": "bytes32"
        }
      ],
      "stateMutability": "view",
      "type": "function"
    },
    {
      "inputs": [],
      "name": "moduleIdentifierString",
      "outputs": [
        {
          "internalType": "string",
          "name": "",
          "type": "string"
        }
      ],
      "stateMutability": "view",
      "type": "function"
    },
    {
      "inputs": [
        {
          "internalType": "uint256",
          "name": "_feeInBasisPoints",
          "type": "uint256"
        }
      ],
      "name": "setFee",
      "outputs": [],
      "stateMutability": "nonpayable",
      "type": "function"
    },
    {
      "inputs": [
        {
          "internalType": "address",
          "name": "_feeWallet",
          "type": "address"
        }
      ],
      "name": "setFeeWallet",
      "outputs": [],
      "stateMutability": "nonpayable",
      "type": "function"
    },
    {
      "inputs": [
        {
          "internalType": "uint256",
          "name": "",
          "type": "uint256"
        }
      ],
      "name": "tokenSwaps",
      "outputs": [
        {
          "internalType": "uint256",
          "name": "deadline",
          "type": "uint256"
        },
        {
          "internalType": "uint256",
          "name": "executionDate",
          "type": "uint256"
        },
        {
          "internalType": "enum ModuleBase.Status",
          "name": "status",
          "type": "uint8"
        }
      ],
      "stateMutability": "view",
      "type": "function"
    }
  ],
  "transactionHash": "0xeeaa6068acee7a0eac509a9584948398865b831af4995f5921d26b2ec0cfe3b0",
  "args": [
    "0xC7cf47fA740ec7358fF48157013727Bb3C675E77"
  ],
  "solcInputHash": "ef94f2d2ae3f74c38ba485bdec7deb52",
  "bytecode": "0x60806040523480156200001157600080fd5b50604051620030fc380380620030fc833981016040819052620000349162000236565b604080518082019091526011815270544f4b454e5f535741505f4d4f44554c4560781b6020820152819081816001600160a01b038216620000ca5760405162461bcd60e51b815260206004820152602560248201527f4d6f64756c653a20696e76616c6964206261736520636f6e7472616374206164604482015264647265737360d81b60648201526084015b60405180910390fd5b600280546001600160a01b0319166001600160a01b03841617905580516200013f5760405162461bcd60e51b815260206004820152602160248201527f4d6f64756c653a206d6f64756c65206964656e74696669657220696e76616c696044820152601960fa1b6064820152608401620000c1565b80516200015490600090602084019062000190565b506000604051602001620001699190620002a5565b60405160208183030381529060405280519060200120600181905550505050505062000355565b8280546200019e9062000268565b90600052602060002090601f016020900481019282620001c257600085556200020d565b82601f10620001dd57805160ff19168380011785556200020d565b828001600101855582156200020d579182015b828111156200020d578251825591602001919060010190620001f0565b506200021b9291506200021f565b5090565b5b808211156200021b576000815560010162000220565b6000602082840312156200024957600080fd5b81516001600160a01b03811681146200026157600080fd5b9392505050565b600181811c908216806200027d57607f821691505b602082108114156200029f57634e487b7160e01b600052602260045260246000fd5b50919050565b600060208083526000845481600182811c915080831680620002c857607f831692505b858310811415620002e757634e487b7160e01b85526022600452602485fd5b878601838152602001818015620003075760018114620003195762000346565b60ff1986168252878201965062000346565b60008b81526020902060005b86811015620003405781548482015290850190890162000325565b83019750505b50949998505050505050505050565b612d9780620003656000396000f3fe608060405234801561001057600080fd5b50600436106100ea5760003560e01c806390d49b9d1161008c578063a9ab232b11610066578063a9ab232b146101f3578063b45edf4714610206578063ea03570d1461020f578063f25f4b561461022457600080fd5b806390d49b9d146101ba57806396d918f6146101cd578063a8e57224146101e057600080fd5b806354d6a2b7116100c857806354d6a2b7146101525780635b32619c1461016557806369fe0e2d1461019057806379573cf9146101a357600080fd5b806312d335e2146100ef5780632d1fdef61461011a57806340bf679c1461012f575b600080fd5b6101026100fd36600461252b565b610237565b6040516101119392919061255a565b60405180910390f35b61012d610128366004612594565b610270565b005b61014261013d36600461252b565b6104a9565b6040519015158152602001610111565b61012d61016036600461252b565b610994565b600254610178906001600160a01b031681565b6040516001600160a01b039091168152602001610111565b61012d61019e36600461252b565b610b42565b6101ac60015481565b604051908152602001610111565b61012d6101c83660046125cb565b610ca2565b6101ac6101db36600461263b565b610dd8565b6101ac6101ee36600461263b565b610f4c565b61012d61020136600461252b565b61134d565b6101ac60045481565b610217611849565b6040516101119190612707565b600354610178906001600160a01b031681565b6005818154811061024757600080fd5b600091825260209091206007909102016004810154600582015460069092015490925060ff1683565b600554829081111561029d5760405162461bcd60e51b81526004016102949061275c565b60405180910390fd5b6002546005805485926001600160a01b031691638606c90391339190859081106102c9576102c9612793565b90600052602060002090600702016000016040518363ffffffff1660e01b81526004016102f79291906127a9565b602060405180830381865afa158015610314573d6000803e3d6000fd5b505050506040513d601f19601f820116820180604052508101906103389190612808565b6103545760405162461bcd60e51b81526004016102949061282a565b8360016005828154811061036a5761036a612793565b600091825260209091206006600790920201015460ff16600381111561039257610392612544565b146103af5760405162461bcd60e51b81526004016102949061285a565b600084600587815481106103c5576103c5612793565b9060005260206000209060070201600401546103e1919061289f565b905042811161043e5760405162461bcd60e51b815260206004820152602360248201527f4d6f64756c653a206e657720646561646c696e6520697320696e207468652070604482015262185cdd60ea1b6064820152608401610294565b806005878154811061045257610452612793565b906000526020600020906007020160040181905550857f6eacbecaef4969c82f7123076b33fe68d90b1226acd6e0d5c0108b48955237f58260405161049991815260200190565b60405180910390a2505050505050565b60055460009082908111156104d05760405162461bcd60e51b81526004016102949061275c565b6000600584815481106104e5576104e5612793565b90600052602060002090600702016040518060e00160405290816000820180548060200260200160405190810160405280929190818152602001828054801561055757602002820191906000526020600020905b81546001600160a01b03168152600190910190602001808311610539575b50505050508152602001600182018054806020026020016040519081016040528092919081815260200182805480156105b957602002820191906000526020600020905b81546001600160a01b0316815260019091019060200180831161059b575b5050505050815260200160028201805480602002602001604051908101604052809291908181526020016000905b828210156106535760008481526020908190208301805460408051828502810185019091528181529283018282801561063f57602002820191906000526020600020905b81548152602001906001019080831161062b575b5050505050815260200190600101906105e7565b50505050815260200160038201805480602002602001604051908101604052809291908181526020016000905b828210156106ec576000848152602090819020830180546040805182850281018501909152818152928301828280156106d857602002820191906000526020600020905b8154815260200190600101908083116106c4575b505050505081526020019060010190610680565b505050908252506004820154602082015260058201546040820152600682015460609091019060ff16600381111561072657610726612544565b600381111561073757610737612544565b905250905060018160c00151600381111561075457610754612544565b1461076357600092505061098e565b428160800151101561077957600092505061098e565b60005b8160200151518110156109875760005b826040015182815181106107a2576107a2612793565b60200260200101515181101561097457826040015182815181106107c8576107c8612793565b602002602001015181815181106107e1576107e1612793565b6020908102919091010151600254845180516001600160a01b039092169163852f26a091908590811061081657610816612793565b60200260200101516040518263ffffffff1660e01b815260040161084991906001600160a01b0391909116815260200190565b602060405180830381865afa158015610866573d6000803e3d6000fd5b505050506040513d601f19601f8201168201806040525081019061088a91906128b7565b6001600160a01b03166332296e0b6000896040516020016108ac929190612909565b60405160208183030381529060405280519060200120866020015186815181106108d8576108d8612793565b60200260200101516040518363ffffffff1660e01b815260040161090f9291909182526001600160a01b0316602082015260400190565b602060405180830381865afa15801561092c573d6000803e3d6000fd5b505050506040513d601f19601f8201168201806040525081019061095091906129b9565b1015610962576000945050505061098e565b8061096c816129d2565b91505061078c565b508061097f816129d2565b91505061077c565b5060019250505b50919050565b60055481908111156109b85760405162461bcd60e51b81526004016102949061275c565b6002546005805484926001600160a01b031691638606c90391339190859081106109e4576109e4612793565b90600052602060002090600702016000016040518363ffffffff1660e01b8152600401610a129291906127a9565b602060405180830381865afa158015610a2f573d6000803e3d6000fd5b505050506040513d601f19601f82011682018060405250810190610a539190612808565b610a6f5760405162461bcd60e51b81526004016102949061282a565b82600160058281548110610a8557610a85612793565b600091825260209091206006600790920201015460ff166003811115610aad57610aad612544565b14610aca5760405162461bcd60e51b81526004016102949061285a565b600260058581548110610adf57610adf612793565b60009182526020909120600660079092020101805460ff19166001836003811115610b0c57610b0c612544565b021790555060405184907f9d500234c75d2bb7d35355e62e593f985ee95a5fc03ac6bcfb38956e721e9dba90600090a250505050565b600260009054906101000a90046001600160a01b03166001600160a01b0316638da5cb5b6040518163ffffffff1660e01b8152600401602060405180830381865afa158015610b95573d6000803e3d6000fd5b505050506040513d601f19601f82011682018060405250810190610bb991906128b7565b6001600160a01b0316336001600160a01b031614610c0f5760405162461bcd60e51b81526020600482015260136024820152721199594e881b9bdd08185d5d1a1bdc9a5e9959606a1b6044820152606401610294565b612710811115610c615760405162461bcd60e51b815260206004820152601c60248201527f4665653a2063616e2774206265206d6f7265207468616e2031303025000000006044820152606401610294565b60045460408051918252602082018390527f5fc463da23c1b063e66f9e352006a7fbe8db7223c455dc429e881a2dfe2f94f1910160405180910390a1600455565b600260009054906101000a90046001600160a01b03166001600160a01b0316638da5cb5b6040518163ffffffff1660e01b8152600401602060405180830381865afa158015610cf5573d6000803e3d6000fd5b505050506040513d601f19601f82011682018060405250810190610d1991906128b7565b6001600160a01b0316336001600160a01b031614610d6f5760405162461bcd60e51b81526020600482015260136024820152721199594e881b9bdd08185d5d1a1bdc9a5e9959606a1b6044820152606401610294565b600354604080516001600160a01b03928316815291831660208301527f9f4f5dce3c4d197b5d7496cb96e25f0a89809167195964b0daa3ef5fed63c00a910160405180910390a1600380546001600160a01b0319166001600160a01b0392909216919091179055565b6000805b89811015610f2c576002546001600160a01b0316636bafdaac8c8c84818110610e0757610e07612793565b9050602002016020810190610e1c91906125cb565b6040516001600160e01b031960e084901b1681526001600160a01b039091166004820152602401602060405180830381865afa158015610e60573d6000803e3d6000fd5b505050506040513d601f19601f82011682018060405250810190610e849190612808565b610f1a576002546001600160a01b031663aba9650e8c8c84818110610eab57610eab612793565b9050602002016020810190610ec091906125cb565b6040516001600160e01b031960e084901b1681526001600160a01b039091166004820152602401600060405180830381600087803b158015610f0157600080fd5b505af1158015610f15573d6000803e3d6000fd5b505050505b80610f24816129d2565b915050610ddc565b50610f3e8a8a8a8a8a8a8a8a8a610f4c565b9a9950505050505050505050565b600254604051638606c90360e01b81526000916001600160a01b031690638606c90390610f819033908e908e90600401612a36565b602060405180830381865afa158015610f9e573d6000803e3d6000fd5b505050506040513d601f19601f82011682018060405250810190610fc29190612808565b610fde5760405162461bcd60e51b81526004016102949061282a565b600289101561102f5760405162461bcd60e51b815260206004820181905260248201527f4d6f64756c653a206174206c6561737420322064616f732072657175697265646044820152606401610294565b600187101561108a5760405162461bcd60e51b815260206004820152602160248201527f4d6f64756c653a206174206c65617374203120746f6b656e20726571756972656044820152601960fa1b6064820152608401610294565b868514801561109857508483145b80156110c757508886866000816110b1576110b1612793565b90506020028101906110c39190612a64565b9050145b8015611101575088600485856000816110e2576110e2612793565b90506020028101906110f49190612a64565b6110ff929150612aae565b145b61114d5760405162461bcd60e51b815260206004820152601d60248201527f4d6f64756c653a20696e76616c6964206172726179206c656e677468730000006044820152606401610294565b6040805161010060208c02808301820190935260e082018c815260009383928f918f918291908601908490808284376000920191909152505050908252506040805160208c810282810182019093528c82529283019290918d918d9182918501908490808284376000920191909152505050908252506020016111d0888a612b3b565b81526020016111df8688612b3b565b81526020810185905260006040820152606001600190526005805460018101825560009190915281518051929350839260079092027f036b6384b5eca791c62761152d0c79bb0604c104a5fb6f4eb0703f3154bb3db00191611249918391602091909101906123df565b50602082810151805161126292600185019201906123df565b506040820151805161127e916002840191602090910190612444565b506060820151805161129a916003840191602090910190612444565b506080820151600482015560a0820151600582015560c082015160068201805460ff191660018360038111156112d2576112d2612544565b0217905550506005546112e89150600190612c06565b7f139161db9338f6c32f76d84f206e44feae17d9e7465a25746db1ddb68fd36e8e8c8c8c8c8c8c8c8c8c60405161132799989796959493929190612cda565b60405180910390a260055461133e90600190612c06565b9b9a5050505050505050505050565b60055481908111156113715760405162461bcd60e51b81526004016102949061275c565b8160016005828154811061138757611387612793565b600091825260209091206006600790920201015460ff1660038111156113af576113af612544565b146113cc5760405162461bcd60e51b81526004016102949061285a565b6002546005805485926001600160a01b031691638606c90391339190859081106113f8576113f8612793565b90600052602060002090600702016000016040518363ffffffff1660e01b81526004016114269291906127a9565b602060405180830381865afa158015611443573d6000803e3d6000fd5b505050506040513d601f19601f820116820180604052508101906114679190612808565b6114835760405162461bcd60e51b81526004016102949061282a565b60006005858154811061149857611498612793565b90600052602060002090600702016040518060e00160405290816000820180548060200260200160405190810160405280929190818152602001828054801561150a57602002820191906000526020600020905b81546001600160a01b031681526001909101906020018083116114ec575b505050505081526020016001820180548060200260200160405190810160405280929190818152602001828054801561156c57602002820191906000526020600020905b81546001600160a01b0316815260019091019060200180831161154e575b5050505050815260200160028201805480602002602001604051908101604052809291908181526020016000905b82821015611606576000848152602090819020830180546040805182850281018501909152818152928301828280156115f257602002820191906000526020600020905b8154815260200190600101908083116115de575b50505050508152602001906001019061159a565b50505050815260200160038201805480602002602001604051908101604052809291908181526020016000905b8282101561169f5760008481526020908190208301805460408051828502810185019091528181529283018282801561168b57602002820191906000526020600020905b815481526020019060010190808311611677575b505050505081526020019060010190611633565b505050908252506004820154602082015260058201546040820152600682015460609091019060ff1660038111156116d9576116d9612544565b60038111156116ea576116ea612544565b815250509050428160800151101561173b5760405162461bcd60e51b8152602060048201526014602482015273135bd91d5b194e881cddd85c08195e1c1a5c995960621b6044820152606401610294565b6000611755868360000151846020015185604001516118d7565b9050600061176283611c04565b905060005b8360200151518110156118075781818151811061178657611786612793565b60200260200101518382815181106117a0576117a0612793565b6020026020010151146117f55760405162461bcd60e51b815260206004820152601760248201527f4d6f64756c653a20616d6f756e74206d69736d617463680000000000000000006044820152606401610294565b806117ff816129d2565b915050611767565b50600360c08401524260a084015260405187907f76f19c9edafbe983391d9eaad9c2d2630b4f9bc80de49978dc57f58d2216adc690600090a250505050505050565b60008054611856906128d4565b80601f0160208091040260200160405190810160405280929190818152602001828054611882906128d4565b80156118cf5780601f106118a4576101008083540402835291602001916118cf565b820191906000526020600020905b8154815290600101906020018083116118b257829003601f168201915b505050505081565b6060825167ffffffffffffffff8111156118f3576118f3612ad0565b60405190808252806020026020018201604052801561191c578160200160208202803683370190505b50905060005b8351811015611bfb57845183828151811061193f5761193f612793565b6020026020010151511461197b5760405162461bcd60e51b8152602060048201526003602482015262185cd960ea1b6044820152606401610294565b60005b83828151811061199057611990612793565b602002602001015151811015611be85760008483815181106119b4576119b4612793565b602002602001015182815181106119cd576119cd612793565b60200260200101511115611bd6578382815181106119ed576119ed612793565b60200260200101518181518110611a0657611a06612793565b6020026020010151838381518110611a2057611a20612793565b60200260200101818151611a34919061289f565b90525060025486516001600160a01b039091169063852f26a090889084908110611a6057611a60612793565b60200260200101516040518263ffffffff1660e01b8152600401611a9391906001600160a01b0391909116815260200190565b602060405180830381865afa158015611ab0573d6000803e3d6000fd5b505050506040513d601f19601f82011682018060405250810190611ad491906128b7565b6001600160a01b031663e1b32e6e600089604051602001611af6929190612909565b60405160208183030381529060405280519060200120878581518110611b1e57611b1e612793565b6020026020010151878681518110611b3857611b38612793565b60200260200101518581518110611b5157611b51612793565b60200260200101516040518463ffffffff1660e01b8152600401611b91939291909283526001600160a01b03919091166020830152604082015260600190565b6020604051808303816000875af1158015611bb0573d6000803e3d6000fd5b505050506040513d601f19601f82011682018060405250810190611bd49190612808565b505b80611be0816129d2565b91505061197e565b5080611bf3816129d2565b915050611922565b50949350505050565b606081602001515167ffffffffffffffff811115611c2457611c24612ad0565b604051908082528060200260200182016040528015611c4d578160200160208202803683370190505b50905060005b82602001515181101561098e5760005b600484606001518381518110611c7b57611c7b612793565b602002602001015151611c8e9190612aae565b81101561214c57600084606001518381518110611cad57611cad612793565b6020026020010151826004611cc29190612d42565b81518110611cd257611cd2612793565b60200260200101511115611dd65783606001518281518110611cf657611cf6612793565b6020026020010151816004611d0b9190612d42565b81518110611d1b57611d1b612793565b6020026020010151838381518110611d3557611d35612793565b60200260200101818151611d49919061289f565b90525060208401518051611dd6919084908110611d6857611d68612793565b602002602001015185600001518381518110611d8657611d86612793565b602002602001015186606001518581518110611da457611da4612793565b6020026020010151846004611db99190612d42565b81518110611dc957611dc9612793565b602002602001015161215f565b600084606001518381518110611dee57611dee612793565b6020026020010151826004611e039190612d42565b611e0e90600161289f565b81518110611e1e57611e1e612793565b6020026020010151111561213a5783606001518281518110611e4257611e42612793565b6020026020010151816004611e579190612d42565b611e6290600161289f565b81518110611e7257611e72612793565b6020026020010151838381518110611e8c57611e8c612793565b60200260200101818151611ea0919061289f565b90525060208401518051600091611f1c9185908110611ec157611ec1612793565b602002602001015186606001518581518110611edf57611edf612793565b6020026020010151846004611ef49190612d42565b611eff90600161289f565b81518110611f0f57611f0f612793565b6020026020010151612178565b9050611f6385602001518481518110611f3757611f37612793565b602002602001015186600001518481518110611f5557611f55612793565b6020026020010151836121ef565b600254855180516001600160a01b039092169163852f26a0919085908110611f8d57611f8d612793565b60200260200101516040518263ffffffff1660e01b8152600401611fc091906001600160a01b0391909116815260200190565b602060405180830381865afa158015611fdd573d6000803e3d6000fd5b505050506040513d601f19601f8201168201806040525081019061200191906128b7565b6001600160a01b0316636e5c8d1a8660200151858151811061202557612025612793565b6020026020010151838860600151878151811061204457612044612793565b60200260200101518660046120599190612d42565b61206490600261289f565b8151811061207457612074612793565b60200260200101518960600151888151811061209257612092612793565b60200260200101518760046120a79190612d42565b6120b290600361289f565b815181106120c2576120c2612793565b60209081029190910101516040516001600160e01b031960e087901b1681526001600160a01b039094166004850152602484019290925260448301526064820152608401600060405180830381600087803b15801561212057600080fd5b505af1158015612134573d6000803e3d6000fd5b50505050505b80612144816129d2565b915050611c63565b5080612157816129d2565b915050611c53565b612173838361216e8685612178565b612268565b505050565b6003546000906001600160a01b03161580159061219757506000600454115b156121e6576000612710600454846121af9190612d42565b6121b99190612aae565b6003549091506121d49085906001600160a01b031683612268565b6121de8184612c06565b9150506121e9565b50805b92915050565b600254604051630429793560e51b81526001600160a01b03848116600483015261217392869291169063852f26a090602401602060405180830381865afa15801561223e573d6000803e3d6000fd5b505050506040513d601f19601f8201168201806040525081019061226291906128b7565b83612327565b60405163a9059cbb60e01b81526001600160a01b0383811660048301526024820183905284169063a9059cbb906044016020604051808303816000875af11580156122b7573d6000803e3d6000fd5b505050506040513d601f19601f820116820180604052508101906122db9190612808565b6121735760405162461bcd60e51b815260206004820152601760248201527f4d6f64756c653a207472616e73666572206661696c65640000000000000000006044820152606401610294565b60405163095ea7b360e01b81526001600160a01b0383811660048301526024820183905284169063095ea7b3906044016020604051808303816000875af1158015612376573d6000803e3d6000fd5b505050506040513d601f19601f8201168201806040525081019061239a9190612808565b6121735760405162461bcd60e51b8152602060048201526016602482015275135bd91d5b194e88185c1c1c9bdd994819985a5b195960521b6044820152606401610294565b828054828255906000526020600020908101928215612434579160200282015b8281111561243457825182546001600160a01b0319166001600160a01b039091161782556020909201916001909101906123ff565b5061244092915061249d565b5090565b828054828255906000526020600020908101928215612491579160200282015b8281111561249157825180516124819184916020909101906124b2565b5091602001919060010190612464565b506124409291506124ed565b5b80821115612440576000815560010161249e565b828054828255906000526020600020908101928215612434579160200282015b828111156124345782518255916020019190600101906124d2565b80821115612440576000612501828261250a565b506001016124ed565b5080546000825590600052602060002090810190612528919061249d565b50565b60006020828403121561253d57600080fd5b5035919050565b634e487b7160e01b600052602160045260246000fd5b83815260208101839052606081016004831061258657634e487b7160e01b600052602160045260246000fd5b826040830152949350505050565b600080604083850312156125a757600080fd5b50508035926020909101359150565b6001600160a01b038116811461252857600080fd5b6000602082840312156125dd57600080fd5b81356125e8816125b6565b9392505050565b60008083601f84011261260157600080fd5b50813567ffffffffffffffff81111561261957600080fd5b6020830191508360208260051b850101111561263457600080fd5b9250929050565b600080600080600080600080600060a08a8c03121561265957600080fd5b893567ffffffffffffffff8082111561267157600080fd5b61267d8d838e016125ef565b909b50995060208c013591508082111561269657600080fd5b6126a28d838e016125ef565b909950975060408c01359150808211156126bb57600080fd5b6126c78d838e016125ef565b909750955060608c01359150808211156126e057600080fd5b506126ed8c828d016125ef565b9a9d999c50979a9699959894979660800135949350505050565b600060208083528351808285015260005b8181101561273457858101830151858201604001528201612718565b81811115612746576000604083870101525b50601f01601f1916929092016040019392505050565b60208082526018908201527f4d6f64756c653a20696420646f65736e27742065786973740000000000000000604082015260600190565b634e487b7160e01b600052603260045260246000fd5b60006040820160018060a01b03808616845260206040818601528286548085526060870191508760005282600020945060005b818110156127fa5785548516835260019586019592840192016127dc565b509098975050505050505050565b60006020828403121561281a57600080fd5b815180151581146125e857600080fd5b602080825260169082015275135bd91d5b194e881b9bdd08185d5d1a1bdc9a5e995960521b604082015260600190565b6020808252601590820152744d6f64756c653a206964206e6f742061637469766560581b604082015260600190565b634e487b7160e01b600052601160045260246000fd5b600082198211156128b2576128b2612889565b500190565b6000602082840312156128c957600080fd5b81516125e8816125b6565b600181811c908216806128e857607f821691505b6020821081141561098e57634e487b7160e01b600052602260045260246000fd5b60408152600080845481600182811c91508083168061292957607f831692505b602080841082141561294957634e487b7160e01b86526022600452602486fd5b60408801849052606088018280156129685760018114612979576129a4565b60ff198716825282820197506129a4565b60008c81526020902060005b8781101561299e57815484820152908601908401612985565b83019850505b50509690960196909652509095945050505050565b6000602082840312156129cb57600080fd5b5051919050565b60006000198214156129e6576129e6612889565b5060010190565b8183526000602080850194508260005b85811015612a2b578135612a10816125b6565b6001600160a01b0316875295820195908201906001016129fd565b509495945050505050565b6001600160a01b0384168152604060208201819052600090612a5b90830184866129ed565b95945050505050565b6000808335601e19843603018112612a7b57600080fd5b83018035915067ffffffffffffffff821115612a9657600080fd5b6020019150600581901b360382131561263457600080fd5b600082612acb57634e487b7160e01b600052601260045260246000fd5b500490565b634e487b7160e01b600052604160045260246000fd5b604051601f8201601f1916810167ffffffffffffffff81118282101715612b0f57612b0f612ad0565b604052919050565b600067ffffffffffffffff821115612b3157612b31612ad0565b5060051b60200190565b6000612b4e612b4984612b17565b612ae6565b83815260208082019190600586811b860136811115612b6c57600080fd5b865b81811015612bf957803567ffffffffffffffff811115612b8e5760008081fd5b880136601f820112612ba05760008081fd5b8035612bae612b4982612b17565b81815290851b82018601908681019036831115612bcb5760008081fd5b928701925b82841015612be957833582529287019290870190612bd0565b8952505050948301948301612b6e565b5092979650505050505050565b600082821015612c1857612c18612889565b500390565b81835260006001600160fb1b03831115612c3657600080fd5b8260051b8083602087013760009401602001938452509192915050565b81835260006020808501808196506005915085821b81018560005b888110156127fa578383038a528135601e19893603018112612c8f57600080fd5b8801803567ffffffffffffffff811115612ca857600080fd5b80871b36038a1315612cb957600080fd5b612cc685828a8501612c1d565b9b88019b9450505090850190600101612c6e565b60a081526000612cee60a083018b8d6129ed565b8281036020840152612d01818a8c6129ed565b90508281036040840152612d1681888a612c53565b90508281036060840152612d2b818688612c53565b9150508260808301529a9950505050505050505050565b6000816000190483118215151615612d5c57612d5c612889565b50029056fea264697066735822122011fb37e04d81d81cb4ee4ed9652f1a9dcc6398a3bd33590e76519b8d61df56ca64736f6c634300080a0033",
  "devdoc": {
    "details": "Smart contract to handle token swap        interactions for PrimeDeals",
    "kind": "dev",
    "methods": {
      "cancelSwap(uint256)": {
        "details": "Cancels a token swap action",
        "params": {
          "_id": "The ID of the action (position in the array)"
        }
      },
      "checkExecutability(uint256)": {
        "details": "Checks whether a token swap action can be executed (which is the case if all DAOs have deposited)",
        "params": {
          "_id": "The ID of the action (position in the array)"
        },
        "returns": {
          "_0": "A bool flag indiciating whether the action can be executed"
        }
      },
      "createDepositContractAndCreateSwap(address[],address[],uint256[][],uint256[][],uint256)": {
        "details": "Create a new token swap action and automatically creates Deposit Contracts for each DAO that does not have one",
        "params": {
          "_daos": "Array containing the DAOs that are involed in this action",
          "_deadline": "Time until which this action can be executed (unix timestamp)",
          "_pathFrom": "Two-dimensional array containing the tokens flowing from the DAOs into the module: - First array level is for each token - Second array level is for each dao - Contains absolute numbers of tokens",
          "_pathTo": "Two-dimensional array containing the tokens flowing from the module to the DAOs: - First array level is for each token - Second array level is for each dao - Contains a tuple(4) consisting of instant amount, vested  amount, vesting start, vesting end which then makes this  array look like: [[instantAmount_dao1, vestedAmount_dao1, vestingStart_dao1, vestingEnd_dao1, instantAmount_dao2, ...], [...]]",
          "_tokens": "Array containing the tokens that are involed in this action"
        },
        "returns": {
          "_0": "The ID of the new action"
        }
      },
      "createSwap(address[],address[],uint256[][],uint256[][],uint256)": {
        "details": "Create a new token swap action",
        "params": {
          "_daos": "Array containing the DAOs that are involed in this action",
          "_deadline": "Time until which this action can be executed (unix timestamp)",
          "_pathFrom": "Two-dimensional array containing the tokens flowing from the DAOs into the module: - First array level is for each token - Second array level is for each dao - Contains absolute numbers of tokens",
          "_pathTo": "Two-dimensional array containing the tokens flowing from the module to the DAOs: - First array level is for each token - Second array level is for each dao - Contains a tuple(4) consisting of instant amount, vested  amount, vesting start, vesting end which then makes this  array look like: [[instantAmount_dao1, vestedAmount_dao1, vestingStart_dao1, vestingEnd_dao1, instantAmount_dao2, ...], [...]]",
          "_tokens": "Array containing the tokens that are involed in this action"
        },
        "returns": {
          "_0": "The ID of the new action"
        }
      },
      "executeSwap(uint256)": {
        "details": "Executes a token swap action",
        "params": {
          "_id": "The ID of the action (position in the array)"
        }
      },
      "extendDeadline(uint256,uint256)": {
        "details": "Cancels a token swap action",
        "params": {
          "_amount": "Amount of seconds that the current deadline will be pushed back by",
          "_id": "The ID of the action (position in the array)"
        }
      },
      "setFee(uint256)": {
        "details": "Sets a new fee",
        "params": {
          "_feeInBasisPoints": "Fee amount in basis points (1% = 10000)"
        }
      },
      "setFeeWallet(address)": {
        "details": "Sets a new fee wallet",
        "params": {
          "_feeWallet": "Address of the new fee wallet"
        }
      }
    },
    "title": "PrimeDeals Token Swap Module",
    "version": 1
  },
  "userdoc": {
    "kind": "user",
    "methods": {},
    "version": 1
  },
  "storageLayout": {
    "storage": [
      {
        "astId": 4003,
        "contract": "contracts/modules/tokenswap/TokenSwapModule.sol:TokenSwapModule",
        "label": "moduleIdentifierString",
        "offset": 0,
        "slot": "0",
        "type": "t_string_storage"
      },
      {
        "astId": 4005,
        "contract": "contracts/modules/tokenswap/TokenSwapModule.sol:TokenSwapModule",
        "label": "moduleIdentifier",
        "offset": 0,
        "slot": "1",
        "type": "t_bytes32"
      },
      {
        "astId": 4008,
        "contract": "contracts/modules/tokenswap/TokenSwapModule.sol:TokenSwapModule",
        "label": "baseContract",
        "offset": 0,
        "slot": "2",
        "type": "t_contract(IBaseContract)2910"
      },
      {
        "astId": 4272,
        "contract": "contracts/modules/tokenswap/TokenSwapModule.sol:TokenSwapModule",
        "label": "feeWallet",
        "offset": 0,
        "slot": "3",
        "type": "t_address"
      },
      {
        "astId": 4274,
        "contract": "contracts/modules/tokenswap/TokenSwapModule.sol:TokenSwapModule",
        "label": "feeInBasisPoints",
        "offset": 0,
        "slot": "4",
        "type": "t_uint256"
      },
      {
        "astId": 7344,
        "contract": "contracts/modules/tokenswap/TokenSwapModule.sol:TokenSwapModule",
        "label": "tokenSwaps",
        "offset": 0,
        "slot": "5",
        "type": "t_array(t_struct(TokenSwap)7366_storage)dyn_storage"
      }
    ],
    "types": {
      "t_address": {
        "encoding": "inplace",
        "label": "address",
        "numberOfBytes": "20"
      },
      "t_array(t_address)dyn_storage": {
        "base": "t_address",
        "encoding": "dynamic_array",
        "label": "address[]",
        "numberOfBytes": "32"
      },
      "t_array(t_array(t_uint256)dyn_storage)dyn_storage": {
        "base": "t_array(t_uint256)dyn_storage",
        "encoding": "dynamic_array",
        "label": "uint256[][]",
        "numberOfBytes": "32"
      },
      "t_array(t_struct(TokenSwap)7366_storage)dyn_storage": {
        "base": "t_struct(TokenSwap)7366_storage",
        "encoding": "dynamic_array",
        "label": "struct TokenSwapModule.TokenSwap[]",
        "numberOfBytes": "32"
      },
      "t_array(t_uint256)dyn_storage": {
        "base": "t_uint256",
        "encoding": "dynamic_array",
        "label": "uint256[]",
        "numberOfBytes": "32"
      },
      "t_bytes32": {
        "encoding": "inplace",
        "label": "bytes32",
        "numberOfBytes": "32"
      },
      "t_contract(IBaseContract)2910": {
        "encoding": "inplace",
        "label": "contract IBaseContract",
        "numberOfBytes": "20"
      },
      "t_enum(Status)4013": {
        "encoding": "inplace",
        "label": "enum ModuleBase.Status",
        "numberOfBytes": "1"
      },
      "t_string_storage": {
        "encoding": "bytes",
        "label": "string",
        "numberOfBytes": "32"
      },
      "t_struct(TokenSwap)7366_storage": {
        "encoding": "inplace",
        "label": "struct TokenSwapModule.TokenSwap",
        "members": [
          {
            "astId": 7347,
            "contract": "contracts/modules/tokenswap/TokenSwapModule.sol:TokenSwapModule",
            "label": "daos",
            "offset": 0,
            "slot": "0",
            "type": "t_array(t_address)dyn_storage"
          },
          {
            "astId": 7350,
            "contract": "contracts/modules/tokenswap/TokenSwapModule.sol:TokenSwapModule",
            "label": "tokens",
            "offset": 0,
            "slot": "1",
            "type": "t_array(t_address)dyn_storage"
          },
          {
            "astId": 7354,
            "contract": "contracts/modules/tokenswap/TokenSwapModule.sol:TokenSwapModule",
            "label": "pathFrom",
            "offset": 0,
            "slot": "2",
            "type": "t_array(t_array(t_uint256)dyn_storage)dyn_storage"
          },
          {
            "astId": 7358,
            "contract": "contracts/modules/tokenswap/TokenSwapModule.sol:TokenSwapModule",
            "label": "pathTo",
            "offset": 0,
            "slot": "3",
            "type": "t_array(t_array(t_uint256)dyn_storage)dyn_storage"
          },
          {
            "astId": 7360,
            "contract": "contracts/modules/tokenswap/TokenSwapModule.sol:TokenSwapModule",
            "label": "deadline",
            "offset": 0,
            "slot": "4",
            "type": "t_uint256"
          },
          {
            "astId": 7362,
            "contract": "contracts/modules/tokenswap/TokenSwapModule.sol:TokenSwapModule",
            "label": "executionDate",
            "offset": 0,
            "slot": "5",
            "type": "t_uint256"
          },
          {
            "astId": 7365,
            "contract": "contracts/modules/tokenswap/TokenSwapModule.sol:TokenSwapModule",
            "label": "status",
            "offset": 0,
            "slot": "6",
            "type": "t_enum(Status)4013"
          }
        ],
        "numberOfBytes": "224"
      },
      "t_uint256": {
        "encoding": "inplace",
        "label": "uint256",
        "numberOfBytes": "32"
      }
    }
  }
}