{
  "address": "0x930E2E8b21095Be1671A38AaaFB61e37b93874E5",
  "abi": [
    {
      "inputs": [
        {
          "internalType": "address",
          "name": "_dealManager",
          "type": "address"
        }
      ],
      "stateMutability": "nonpayable",
      "type": "constructor"
    },
    {
      "anonymous": false,
      "inputs": [
        {
          "indexed": true,
          "internalType": "uint32",
          "name": "oldFee",
          "type": "uint32"
        },
        {
          "indexed": true,
          "internalType": "uint32",
          "name": "newFee",
          "type": "uint32"
        }
      ],
      "name": "FeeChanged",
      "type": "event"
    },
    {
      "anonymous": false,
      "inputs": [
        {
          "indexed": true,
          "internalType": "address",
          "name": "oldFeeWallet",
          "type": "address"
        },
        {
          "indexed": true,
          "internalType": "address",
          "name": "newFeeWallet",
          "type": "address"
        }
      ],
      "name": "FeeWalletChanged",
      "type": "event"
    },
    {
      "anonymous": false,
      "inputs": [
        {
          "indexed": true,
          "internalType": "address",
          "name": "module",
          "type": "address"
        },
        {
          "indexed": true,
          "internalType": "uint32",
          "name": "dealId",
          "type": "uint32"
        },
        {
          "indexed": true,
          "internalType": "bytes32",
          "name": "metadata",
          "type": "bytes32"
        },
        {
          "indexed": false,
          "internalType": "address[]",
          "name": "daos",
          "type": "address[]"
        },
        {
          "indexed": false,
          "internalType": "address[]",
          "name": "tokens",
          "type": "address[]"
        },
        {
          "indexed": false,
          "internalType": "uint256[][]",
          "name": "pathFrom",
          "type": "uint256[][]"
        },
        {
          "indexed": false,
          "internalType": "uint256[][]",
          "name": "pathTo",
          "type": "uint256[][]"
        },
        {
          "indexed": false,
          "internalType": "uint32",
          "name": "deadline",
          "type": "uint32"
        }
      ],
      "name": "TokenSwapCreated",
      "type": "event"
    },
    {
      "anonymous": false,
      "inputs": [
        {
          "indexed": true,
          "internalType": "address",
          "name": "module",
          "type": "address"
        },
        {
          "indexed": true,
          "internalType": "uint32",
          "name": "dealId",
          "type": "uint32"
        },
        {
          "indexed": true,
          "internalType": "bytes32",
          "name": "metadata",
          "type": "bytes32"
        }
      ],
      "name": "TokenSwapExecuted",
      "type": "event"
    },
    {
      "stateMutability": "payable",
      "type": "fallback"
    },
    {
      "inputs": [
        {
          "internalType": "uint32",
          "name": "_dealId",
          "type": "uint32"
        }
      ],
      "name": "checkExecutability",
      "outputs": [
        {
          "internalType": "bool",
          "name": "",
          "type": "bool"
        }
      ],
      "stateMutability": "view",
      "type": "function"
    },
    {
      "inputs": [
        {
          "internalType": "address[]",
          "name": "_daos",
          "type": "address[]"
        },
        {
          "internalType": "address[]",
          "name": "_tokens",
          "type": "address[]"
        },
        {
          "internalType": "uint256[][]",
          "name": "_pathFrom",
          "type": "uint256[][]"
        },
        {
          "internalType": "uint256[][]",
          "name": "_pathTo",
          "type": "uint256[][]"
        },
        {
          "internalType": "bytes32",
          "name": "_metadata",
          "type": "bytes32"
        },
        {
          "internalType": "uint32",
          "name": "_deadline",
          "type": "uint32"
        }
      ],
      "name": "createSwap",
      "outputs": [
        {
          "internalType": "uint32",
          "name": "",
          "type": "uint32"
        }
      ],
      "stateMutability": "nonpayable",
      "type": "function"
    },
    {
      "inputs": [],
      "name": "dealManager",
      "outputs": [
        {
          "internalType": "contract IDealManager",
          "name": "",
          "type": "address"
        }
      ],
      "stateMutability": "view",
      "type": "function"
    },
    {
      "inputs": [
        {
          "internalType": "uint32",
          "name": "_dealId",
          "type": "uint32"
        }
      ],
      "name": "executeSwap",
      "outputs": [],
      "stateMutability": "nonpayable",
      "type": "function"
    },
    {
      "inputs": [],
      "name": "feeInBasisPoints",
      "outputs": [
        {
          "internalType": "uint32",
          "name": "",
          "type": "uint32"
        }
      ],
      "stateMutability": "view",
      "type": "function"
    },
    {
      "inputs": [],
      "name": "feeWallet",
      "outputs": [
        {
          "internalType": "address",
          "name": "",
          "type": "address"
        }
      ],
      "stateMutability": "view",
      "type": "function"
    },
    {
      "inputs": [
        {
          "internalType": "bytes32",
          "name": "_metadata",
          "type": "bytes32"
        }
      ],
      "name": "getTokenswapFromMetadata",
      "outputs": [
        {
          "components": [
            {
              "internalType": "address[]",
              "name": "daos",
              "type": "address[]"
            },
            {
              "internalType": "address[]",
              "name": "tokens",
              "type": "address[]"
            },
            {
              "internalType": "uint256[][]",
              "name": "pathFrom",
              "type": "uint256[][]"
            },
            {
              "internalType": "uint256[][]",
              "name": "pathTo",
              "type": "uint256[][]"
            },
            {
              "internalType": "uint32",
              "name": "deadline",
              "type": "uint32"
            },
            {
              "internalType": "uint32",
              "name": "executionDate",
              "type": "uint32"
            },
            {
              "internalType": "bytes32",
              "name": "metadata",
              "type": "bytes32"
            },
            {
              "internalType": "enum ModuleBase.Status",
              "name": "status",
              "type": "uint8"
            }
          ],
          "internalType": "struct TokenSwapModule.TokenSwap",
          "name": "swap",
          "type": "tuple"
        }
      ],
      "stateMutability": "view",
      "type": "function"
    },
    {
      "inputs": [
        {
          "internalType": "uint32",
          "name": "_dealId",
          "type": "uint32"
        }
      ],
      "name": "hasDealExpired",
      "outputs": [
        {
          "internalType": "bool",
          "name": "",
          "type": "bool"
        }
      ],
      "stateMutability": "view",
      "type": "function"
    },
    {
      "inputs": [
        {
          "internalType": "bytes32",
          "name": "",
          "type": "bytes32"
        }
      ],
      "name": "metadataToDealId",
      "outputs": [
        {
          "internalType": "uint32",
          "name": "",
          "type": "uint32"
        }
      ],
      "stateMutability": "view",
      "type": "function"
    },
    {
      "inputs": [
        {
          "internalType": "uint32",
          "name": "_feeInBasisPoints",
          "type": "uint32"
        }
      ],
      "name": "setFee",
      "outputs": [],
      "stateMutability": "nonpayable",
      "type": "function"
    },
    {
      "inputs": [
        {
          "internalType": "address",
          "name": "_feeWallet",
          "type": "address"
        }
      ],
      "name": "setFeeWallet",
      "outputs": [],
      "stateMutability": "nonpayable",
      "type": "function"
    },
    {
      "inputs": [
        {
          "internalType": "uint256",
          "name": "",
          "type": "uint256"
        }
      ],
      "name": "tokenSwaps",
      "outputs": [
        {
          "internalType": "uint32",
          "name": "deadline",
          "type": "uint32"
        },
        {
          "internalType": "uint32",
          "name": "executionDate",
          "type": "uint32"
        },
        {
          "internalType": "bytes32",
          "name": "metadata",
          "type": "bytes32"
        },
        {
          "internalType": "enum ModuleBase.Status",
          "name": "status",
          "type": "uint8"
        }
      ],
      "stateMutability": "view",
      "type": "function"
    },
    {
      "stateMutability": "payable",
      "type": "receive"
    }
  ],
  "transactionHash": "0x8e3f1958777230a2eb1506a0446c427248b5e9efd6c2ac275733b95171037cae",
  "args": [
    "0x0b500dB17E4D9e8167253956546A9A2b3412a432"
  ],
  "solcInputHash": "ac2d27737392d79fda4a0a404ecb8293",
  "bytecode": "0x60806040523480156200001157600080fd5b5060405162002f2e38038062002f2e8339810160408190526200003491620000c8565b80806001600160a01b0381166200009f5760405162461bcd60e51b815260206004820152602560248201527f4d6f64756c653a20696e76616c6964206261736520636f6e7472616374206164604482015264647265737360d81b606482015260840160405180910390fd5b600080546001600160a01b0319166001600160a01b039290921691909117905550620000fa9050565b600060208284031215620000db57600080fd5b81516001600160a01b0381168114620000f357600080fd5b9392505050565b612e24806200010a6000396000f3fe6080604052600436106100a55760003560e01c8063b42132cd11610061578063b42132cd146101d3578063b45edf4714610200578063cfccd4bc14610224578063d24fdb7a14610244578063f25f4b5614610264578063fe442f5d1461028457005b806301df538d146100ae57806312d335e2146100eb5780631ab971ab1461011b578063251f02b41461013b5780638730f3441461016b57806390d49b9d146101b357005b366100ac57005b005b3480156100ba57600080fd5b506000546100ce906001600160a01b031681565b6040516001600160a01b0390911681526020015b60405180910390f35b3480156100f757600080fd5b5061010b6101063660046127a7565b6102a4565b6040516100e294939291906127f8565b34801561012757600080fd5b506100ac610136366004612843565b6102f2565b34801561014757600080fd5b5061015b610156366004612843565b610498565b60405190151581526020016100e2565b34801561017757600080fd5b5061019e6101863660046127a7565b60036020526000908152604090205463ffffffff1681565b60405163ffffffff90911681526020016100e2565b3480156101bf57600080fd5b506100ac6101ce366004612873565b6109de565b3480156101df57600080fd5b506101f36101ee3660046127a7565b610b1b565b6040516100e29190612950565b34801561020c57600080fd5b5060015461019e90600160a01b900463ffffffff1681565b34801561023057600080fd5b5061015b61023f366004612843565b610e8e565b34801561025057600080fd5b5061019e61025f366004612a66565b610f1d565b34801561027057600080fd5b506001546100ce906001600160a01b031681565b34801561029057600080fd5b506100ac61029f366004612843565b6110cc565b600281815481106102b457600080fd5b600091825260209091206007909102016004810154600582015460069092015463ffffffff8083169450640100000000909204909116919060ff1684565b60008054906101000a90046001600160a01b03166001600160a01b0316638da5cb5b6040518163ffffffff1660e01b8152600401602060405180830381865afa158015610343573d6000803e3d6000fd5b505050506040513d601f19601f820116820180604052508101906103679190612b43565b6001600160a01b0316336001600160a01b0316146103c25760405162461bcd60e51b81526020600482015260136024820152721199594e881b9bdd08185d5d1a1bdc9a5e9959606a1b60448201526064015b60405180910390fd5b6107d08163ffffffff16111561041a5760405162461bcd60e51b815260206004820152601b60248201527f4665653a2063616e2774206265206d6f7265207468616e20323025000000000060448201526064016103b9565b60015463ffffffff828116600160a01b90920416146104725760015460405163ffffffff80841692600160a01b900416907fdeab7ddf530f3309d7f88438b7fbb714e557a5a30d0c2d1cfc3c0da1dde4096890600090a35b6001805463ffffffff909216600160a01b0263ffffffff60a01b19909216919091179055565b600254600090829063ffffffff8216106104f45760405162461bcd60e51b815260206004820152601c60248201527f4d6f64756c653a206465616c496420646f65736e27742065786973740000000060448201526064016103b9565b600060028463ffffffff168154811061050f5761050f612b60565b9060005260206000209060070201604051806101000160405290816000820180548060200260200160405190810160405280929190818152602001828054801561058257602002820191906000526020600020905b81546001600160a01b03168152600190910190602001808311610564575b50505050508152602001600182018054806020026020016040519081016040528092919081815260200182805480156105e457602002820191906000526020600020905b81546001600160a01b031681526001909101906020018083116105c6575b5050505050815260200160028201805480602002602001604051908101604052809291908181526020016000905b8282101561067e5760008481526020908190208301805460408051828502810185019091528181529283018282801561066a57602002820191906000526020600020905b815481526020019060010190808311610656575b505050505081526020019060010190610612565b50505050815260200160038201805480602002602001604051908101604052809291908181526020016000905b828210156107175760008481526020908190208301805460408051828502810185019091528181529283018282801561070357602002820191906000526020600020905b8154815260200190600101908083116106ef575b5050505050815260200190600101906106ab565b50505090825250600482015463ffffffff808216602084015264010000000090910416604082015260058201546060820152600682015460809091019060ff166003811115610768576107686127c0565b6003811115610779576107796127c0565b905250905060018160e001516003811115610796576107966127c0565b146107a55760009250506109d8565b4263ffffffff16816080015163ffffffff1610156107c75760009250506109d8565b602081015160005b81518110156109d0576000836040015182815181106107f0576107f0612b60565b6020026020010151905060005b81518110156109bd5781818151811061081857610818612b60565b60200260200101516000141561082d576109ad565b60008054865180516001600160a01b03909216916371cfe49891908590811061085857610858612b60565b60200260200101516040518263ffffffff1660e01b815260040161088b91906001600160a01b0391909116815260200190565b602060405180830381865afa1580156108a8573d6000803e3d6000fd5b505050506040513d601f19601f820116820180604052508101906108cc9190612b43565b6001600160a01b031663246cd574308b8888815181106108ee576108ee612b60565b60200260200101516040518463ffffffff1660e01b8152600401610938939291906001600160a01b03938416815263ffffffff929092166020830152909116604082015260600190565b602060405180830381865afa158015610955573d6000803e3d6000fd5b505050506040513d601f19601f820116820180604052508101906109799190612b76565b905082828151811061098d5761098d612b60565b60200260200101518110156109ab57600097505050505050506109d8565b505b6109b681612ba5565b90506107fd565b5050806109c990612ba5565b90506107cf565b506001935050505b50919050565b60008054906101000a90046001600160a01b03166001600160a01b0316638da5cb5b6040518163ffffffff1660e01b8152600401602060405180830381865afa158015610a2f573d6000803e3d6000fd5b505050506040513d601f19601f82011682018060405250810190610a539190612b43565b6001600160a01b0316336001600160a01b031614610aa95760405162461bcd60e51b81526020600482015260136024820152721199594e881b9bdd08185d5d1a1bdc9a5e9959606a1b60448201526064016103b9565b6001546001600160a01b03828116911614610af9576001546040516001600160a01b038084169216907f9f4f5dce3c4d197b5d7496cb96e25f0a89809167195964b0daa3ef5fed63c00a90600090a35b600180546001600160a01b0319166001600160a01b0392909216919091179055565b60408051610100810182526060808252602082018190529181018290528181019190915260006080820181905260a0820181905260c0820181905260e0820152600082815260036020526040902054829063ffffffff1680151580610ba357508160028281548110610b8f57610b8f612b60565b906000526020600020906007020160050154145b610bef5760405162461bcd60e51b815260206004820152601f60248201527f4d6f64756c653a206d6574616461746120646f6573206e6f742065786973740060448201526064016103b9565b60008481526003602052604090205460028054909163ffffffff16908110610c1957610c19612b60565b90600052602060002090600702016040518061010001604052908160008201805480602002602001604051908101604052809291908181526020018280548015610c8c57602002820191906000526020600020905b81546001600160a01b03168152600190910190602001808311610c6e575b5050505050815260200160018201805480602002602001604051908101604052809291908181526020018280548015610cee57602002820191906000526020600020905b81546001600160a01b03168152600190910190602001808311610cd0575b5050505050815260200160028201805480602002602001604051908101604052809291908181526020016000905b82821015610d8857600084815260209081902083018054604080518285028101850190915281815292830182828015610d7457602002820191906000526020600020905b815481526020019060010190808311610d60575b505050505081526020019060010190610d1c565b50505050815260200160038201805480602002602001604051908101604052809291908181526020016000905b82821015610e2157600084815260209081902083018054604080518285028101850190915281815292830182828015610e0d57602002820191906000526020600020905b815481526020019060010190808311610df9575b505050505081526020019060010190610db5565b50505090825250600482015463ffffffff808216602084015264010000000090910416604082015260058201546060820152600682015460809091019060ff166003811115610e7257610e726127c0565b6003811115610e8357610e836127c0565b905250949350505050565b6000600160028363ffffffff1681548110610eab57610eab612b60565b600091825260209091206006600790920201015460ff166003811115610ed357610ed36127c0565b141580610f1757504263ffffffff1660028363ffffffff1681548110610efb57610efb612b60565b600091825260209091206004600790920201015463ffffffff16105b92915050565b6000805b8a8110156110375760008c8c83818110610f3d57610f3d612b60565b9050602002016020810190610f529190612873565b60005460405163c221e44b60e01b81526001600160a01b03808416600483015292935091169063c221e44b90602401602060405180830381865afa158015610f9e573d6000803e3d6000fd5b505050506040513d601f19601f82011682018060405250810190610fc29190612bc0565b6110265760005460405163253feb5d60e21b81526001600160a01b038381166004830152909116906394ffad7490602401600060405180830381600087803b15801561100d57600080fd5b505af1158015611021573d6000803e3d6000fd5b505050505b5061103081612ba5565b9050610f21565b506110bd8b8b8080602002602001604051908101604052809392919081815260200183836020028082843760009201919091525050604080516020808f0282810182019093528e82529093508e92508d9182918501908490808284376000920191909152506110ac92508b91508c9050612c4d565b6110b6888a612c4d565b8787611768565b9b9a5050505050505050505050565b600254819063ffffffff8216106111255760405162461bcd60e51b815260206004820152601c60248201527f4d6f64756c653a206465616c496420646f65736e27742065786973740000000060448201526064016103b9565b81600160028263ffffffff168154811061114157611141612b60565b600091825260209091206006600790920201015460ff166003811115611169576111696127c0565b146111b65760405162461bcd60e51b815260206004820152601960248201527f4d6f64756c653a206465616c4964206e6f74206163746976650000000000000060448201526064016103b9565b600060028463ffffffff16815481106111d1576111d1612b60565b6000918252602090912060046007909202019081015490915063ffffffff428116911610156112395760405162461bcd60e51b8152602060048201526014602482015273135bd91d5b194e881cddd85c08195e1c1a5c995960621b60448201526064016103b9565b61124284610498565b61128e5760405162461bcd60e51b815260206004820152601b60248201527f4d6f64756c653a2073776170206e6f742065786563757461626c65000000000060448201526064016103b9565b60006113e785836000018054806020026020016040519081016040528092919081815260200182805480156112ec57602002820191906000526020600020905b81546001600160a01b031681526001909101906020018083116112ce575b50505050508460010180548060200260200160405190810160405280929190818152602001828054801561134957602002820191906000526020600020905b81546001600160a01b0316815260019091019060200180831161132b575b505050505085600201805480602002602001604051908101604052809291908181526020016000905b828210156113de576000848152602090819020830180546040805182850281018501909152818152928301828280156113ca57602002820191906000526020600020905b8154815260200190600101908083116113b6575b505050505081526020019060010190611372565b50505050611c03565b6040805184546101206020820283018101909352610100820181815293945060009361164e93879284929184919084018282801561144e57602002820191906000526020600020905b81546001600160a01b03168152600190910190602001808311611430575b50505050508152602001600182018054806020026020016040519081016040528092919081815260200182805480156114b057602002820191906000526020600020905b81546001600160a01b03168152600190910190602001808311611492575b5050505050815260200160028201805480602002602001604051908101604052809291908181526020016000905b8282101561154a5760008481526020908190208301805460408051828502810185019091528181529283018282801561153657602002820191906000526020600020905b815481526020019060010190808311611522575b5050505050815260200190600101906114de565b50505050815260200160038201805480602002602001604051908101604052809291908181526020016000905b828210156115e3576000848152602090819020830180546040805182850281018501909152818152928301828280156115cf57602002820191906000526020600020905b8154815260200190600101908083116115bb575b505050505081526020019060010190611577565b50505090825250600482015463ffffffff808216602084015264010000000090910416604082015260058201546060820152600682015460809091019060ff166003811115611634576116346127c0565b6003811115611645576116456127c0565b90525087611ecb565b905060005b60018401548110156116f05781818151811061167157611671612b60565b602002602001015183828151811061168b5761168b612b60565b6020026020010151146116e05760405162461bcd60e51b815260206004820152601760248201527f4d6f64756c653a20616d6f756e74206d69736d6174636800000000000000000060448201526064016103b9565b6116e981612ba5565b9050611653565b5060068301805460ff1916600317905560048301805467ffffffff0000000019166401000000004263ffffffff90811691909102919091179091556005840154604051909188169030907fec8c89d1275fdc3512da61ea020e4d570bb3bf0fba7163f506a1ef7b5e55179a90600090a4505050505050565b6002546000906001116117ca5761177e83612263565b6117ca5760405162461bcd60e51b815260206004820152601f60248201527f4d6f64756c653a206d6574616461746120616c7265616479206578697374730060448201526064016103b9565b60028751101561181c5760405162461bcd60e51b815260206004820181905260248201527f4d6f64756c653a206174206c6561737420322064616f7320726571756972656460448201526064016103b9565b85516118745760405162461bcd60e51b815260206004820152602160248201527f4d6f64756c653a206174206c65617374203120746f6b656e20726571756972656044820152601960fa1b60648201526084016103b9565b84518651811480156118865750845181145b6118de5760405162461bcd60e51b815260206004820152602360248201527f4d6f64756c653a20696e76616c6964206f75746572206172726179206c656e6760448201526274687360e81b60648201526084016103b9565b875160005b8281101561199957818882815181106118fe576118fe612b60565b602002602001015151148015611931575081600288838151811061192457611924612b60565b602002602001015151901c145b6119895760405162461bcd60e51b815260206004820152602360248201527f4d6f64756c653a20696e76616c696420696e6e6572206172726179206c656e6760448201526274687360e81b60648201526084016103b9565b61199281612ba5565b90506118e3565b50428463ffffffff16116119ef5760405162461bcd60e51b815260206004820152601860248201527f4d6f64756c653a20696e76616c696420646561646c696e65000000000000000060448201526064016103b9565b60006040518061010001604052808b81526020018a81526020018981526020018881526020018663ffffffff168152602001600063ffffffff16815260200187815260200160016003811115611a4757611a476127c0565b90526002805460018101825560009190915281518051929350839260079092027f405787fa12a823e0f2b7631cc41b3ba8828b3321ca811111fa75cd3aa3bb5ace0191611a9c9183916020919091019061265b565b506020828101518051611ab5926001850192019061265b565b5060408201518051611ad19160028401916020909101906126c0565b5060608201518051611aed9160038401916020909101906126c0565b50608082015160048201805460a085015163ffffffff9081166401000000000267ffffffffffffffff1990921693169290921791909117905560c0820151600582015560e082015160068201805460ff19166001836003811115611b5357611b536127c0565b02179055505060025460009150611b6c90600190612d18565b9050806003600089815260200190815260200160002060006101000a81548163ffffffff021916908363ffffffff1602179055508160c001518163ffffffff16306001600160a01b03167f93ec9825c63237a731b7205f8e661ee12357e9993bda8c3d47fb709482e769a98e8e8e8e8d604051611bed959493929190612d2f565b60405180910390a49a9950505050505050505050565b6060825167ffffffffffffffff811115611c1f57611c1f612be2565b604051908082528060200260200182016040528015611c48578160200160208202803683370190505b5090508251825114611c965760405162461bcd60e51b815260206004820152601760248201527609adec8ead8ca7440d8cadccee8d040dad2e6dac2e8c6d604b1b60448201526064016103b9565b60005b8351811015611ec2576000838281518110611cb657611cb6612b60565b602002602001015190508551815114611d0b5760405162461bcd60e51b815260206004820152601760248201527609adec8ead8ca7440d8cadccee8d040dad2e6dac2e8c6d604b1b60448201526064016103b9565b60005b8151811015611eaf576000828281518110611d2b57611d2b612b60565b602002602001015190506000811115611e9e5780858581518110611d5157611d51612b60565b60200260200101818151611d659190612d95565b90525060005488516001600160a01b03909116906371cfe498908a9085908110611d9157611d91612b60565b60200260200101516040518263ffffffff1660e01b8152600401611dc491906001600160a01b0391909116815260200190565b602060405180830381865afa158015611de1573d6000803e3d6000fd5b505050506040513d601f19601f82011682018060405250810190611e059190612b43565b6001600160a01b0316632162a70c8a898781518110611e2657611e26612b60565b60209081029190910101516040516001600160e01b031960e085901b16815263ffffffff9290921660048301526001600160a01b0316602482015260448101849052606401600060405180830381600087803b158015611e8557600080fd5b505af1158015611e99573d6000803e3d6000fd5b505050505b50611ea881612ba5565b9050611d0e565b505080611ebb90612ba5565b9050611c99565b50949350505050565b606082602001515167ffffffffffffffff811115611eeb57611eeb612be2565b604051908082528060200260200182016040528015611f14578160200160208202803683370190505b50905060005b83602001515181101561225c57600084606001518281518110611f3f57611f3f612b60565b60200260200101519050600085602001518381518110611f6157611f61612b60565b6020026020010151905060005b825160021c81101561224857600083600283901b81518110611f9257611f92612b60565b60200260200101519050600084600284901b6001611fb09190612d95565b81518110611fc057611fc0612b60565b6020026020010151905060008211156120275781878781518110611fe657611fe6612b60565b60200260200101818151611ffa9190612d95565b905250885180516120259186918690811061201757612017612b60565b6020026020010151846122bb565b505b8015612235578087878151811061204057612040612b60565b602002602001018181516120549190612d95565b905250600061206385836122d4565b600080548c51805193945091926001600160a01b03909116916371cfe498918890811061209257612092612b60565b60200260200101516040518263ffffffff1660e01b81526004016120c591906001600160a01b0391909116815260200190565b602060405180830381865afa1580156120e2573d6000803e3d6000fd5b505050506040513d601f19601f820116820180604052508101906121069190612b43565b90506001600160a01b0386166121265761212186828461235c565b61214e565b61214e868c60000151878151811061214057612140612b60565b60200260200101518461252f565b6001600160a01b03811663d40592928b88858b61216f60028c811b90612d95565b8151811061217f5761217f612b60565b60200260200101518c60028c901b60036121999190612d95565b815181106121a9576121a9612b60565b60209081029190910101516040516001600160e01b031960e088901b16815263ffffffff95861660048201526001600160a01b03909416602485015260448401929092528316606483015291909116608482015260a401600060405180830381600087803b15801561221a57600080fd5b505af115801561222e573d6000803e3d6000fd5b5050505050505b50508061224190612ba5565b9050611f6e565b5050508061225590612ba5565b9050611f1a565b5092915050565b60008181526003602052604081205463ffffffff16801580156122aa5750826002828154811061229557612295612b60565b90600052602060002090600702016005015414155b80156122b4575060015b9392505050565b60006122c784836122d4565b90506122b484848361235c565b6001546000906001600160a01b0316158015906122ff5750600154600160a01b900463ffffffff1615155b156109d8576001546000906127109061232590600160a01b900463ffffffff1685612dad565b61232f9190612dcc565b60015490915061234a9085906001600160a01b03168361235c565b6123548184612d18565b915050610f17565b6001600160a01b038316156124875760405163a9059cbb60e01b81526001600160a01b0383811660048301526024820183905284169063a9059cbb906044016020604051808303816000875af19250505080156123d6575060408051601f3d908101601f191682019092526123d391810190612bc0565b60015b6124225760405162461bcd60e51b815260206004820152601d60248201527f4d6f64756c653a206572633230207472616e73666572206661696c656400000060448201526064016103b9565b806124815760405162461bcd60e51b815260206004820152602960248201527f4d6f64756c653a206572633230207472616e7366657220776173206e6f7420736044820152681d58d8d95cdcd99d5b60ba1b60648201526084016103b9565b50505050565b6000826001600160a01b03168260405160006040518083038185875af1925050503d80600081146124d4576040519150601f19603f3d011682016040523d82523d6000602084013e6124d9565b606091505b50509050806124815760405162461bcd60e51b815260206004820152601b60248201527f4d6f64756c653a20657468207472616e73666572206661696c6564000000000060448201526064016103b9565b505050565b600054604051630e39fc9360e31b81526001600160a01b03848116600483015261252a9286929116906371cfe49890602401602060405180830381865afa15801561257e573d6000803e3d6000fd5b505050506040513d601f19601f820116820180604052508101906125a29190612b43565b8360405163095ea7b360e01b81526001600160a01b0383811660048301526024820183905284169063095ea7b3906044016020604051808303816000875af11580156125f2573d6000803e3d6000fd5b505050506040513d601f19601f820116820180604052508101906126169190612bc0565b61252a5760405162461bcd60e51b8152602060048201526016602482015275135bd91d5b194e88185c1c1c9bdd994819985a5b195960521b60448201526064016103b9565b8280548282559060005260206000209081019282156126b0579160200282015b828111156126b057825182546001600160a01b0319166001600160a01b0390911617825560209092019160019091019061267b565b506126bc929150612719565b5090565b82805482825590600052602060002090810192821561270d579160200282015b8281111561270d57825180516126fd91849160209091019061272e565b50916020019190600101906126e0565b506126bc929150612769565b5b808211156126bc576000815560010161271a565b8280548282559060005260206000209081019282156126b0579160200282015b828111156126b057825182559160200191906001019061274e565b808211156126bc57600061277d8282612786565b50600101612769565b50805460008255906000526020600020908101906127a49190612719565b50565b6000602082840312156127b957600080fd5b5035919050565b634e487b7160e01b600052602160045260246000fd5b600481106127f457634e487b7160e01b600052602160045260246000fd5b9052565b63ffffffff858116825284166020820152604081018390526080810161282160608301846127d6565b95945050505050565b803563ffffffff8116811461283e57600080fd5b919050565b60006020828403121561285557600080fd5b6122b48261282a565b6001600160a01b03811681146127a457600080fd5b60006020828403121561288557600080fd5b81356122b48161285e565b600081518084526020808501945080840160005b838110156128c95781516001600160a01b0316875295820195908201906001016128a4565b509495945050505050565b600081518084526020808501808196508360051b810191508286016000805b86811015612942578385038a52825180518087529087019087870190845b8181101561292d57835183529289019291890191600101612911565b50509a87019a955050918501916001016128f3565b509298975050505050505050565b602081526000825161010080602085015261296f610120850183612890565b91506020850151601f198086850301604087015261298d8483612890565b935060408701519150808685030160608701526129aa84836128d4565b93506060870151915080868503016080870152506129c883826128d4565b92505060808501516129e260a086018263ffffffff169052565b5060a085015163ffffffff811660c08601525060c085015160e085015260e0850151612a10828601826127d6565b5090949350505050565b60008083601f840112612a2c57600080fd5b50813567ffffffffffffffff811115612a4457600080fd5b6020830191508360208260051b8501011115612a5f57600080fd5b9250929050565b60008060008060008060008060008060c08b8d031215612a8557600080fd5b8a3567ffffffffffffffff80821115612a9d57600080fd5b612aa98e838f01612a1a565b909c509a5060208d0135915080821115612ac257600080fd5b612ace8e838f01612a1a565b909a50985060408d0135915080821115612ae757600080fd5b612af38e838f01612a1a565b909850965060608d0135915080821115612b0c57600080fd5b50612b198d828e01612a1a565b90955093505060808b01359150612b3260a08c0161282a565b90509295989b9194979a5092959850565b600060208284031215612b5557600080fd5b81516122b48161285e565b634e487b7160e01b600052603260045260246000fd5b600060208284031215612b8857600080fd5b5051919050565b634e487b7160e01b600052601160045260246000fd5b6000600019821415612bb957612bb9612b8f565b5060010190565b600060208284031215612bd257600080fd5b815180151581146122b457600080fd5b634e487b7160e01b600052604160045260246000fd5b604051601f8201601f1916810167ffffffffffffffff81118282101715612c2157612c21612be2565b604052919050565b600067ffffffffffffffff821115612c4357612c43612be2565b5060051b60200190565b6000612c60612c5b84612c29565b612bf8565b83815260208082019190600586811b860136811115612c7e57600080fd5b865b81811015612d0b57803567ffffffffffffffff811115612ca05760008081fd5b880136601f820112612cb25760008081fd5b8035612cc0612c5b82612c29565b81815290851b82018601908681019036831115612cdd5760008081fd5b928701925b82841015612cfb57833582529287019290870190612ce2565b8952505050948301948301612c80565b5092979650505050505050565b600082821015612d2a57612d2a612b8f565b500390565b60a081526000612d4260a0830188612890565b8281036020840152612d548188612890565b90508281036040840152612d6881876128d4565b90508281036060840152612d7c81866128d4565b91505063ffffffff831660808301529695505050505050565b60008219821115612da857612da8612b8f565b500190565b6000816000190483118215151615612dc757612dc7612b8f565b500290565b600082612de957634e487b7160e01b600052601260045260246000fd5b50049056fea26469706673582212202ead158863c5c76266f860a23bb48f143754993778c05266defe5ba355b131e664736f6c634300080a0033",
  "devdoc": {
    "details": "Smart contract to handle token swap        interactions for PrimeDeals",
    "kind": "dev",
    "methods": {
      "checkExecutability(uint32)": {
        "details": "Checks whether a token swap action can be executed (which is the case if all DAOs have deposited)",
        "params": {
          "_dealId": "The dealId of the action (position in the array)"
        },
        "returns": {
          "_0": "A bool flag indiciating whether the action can be executed"
        }
      },
      "createSwap(address[],address[],uint256[][],uint256[][],bytes32,uint32)": {
        "details": "Create a new token swap action and automatically creates Dao Deposit Manager for each DAO that does not have one",
        "params": {
          "_daos": "Array containing the DAOs that are involed in this action",
          "_deadline": "Time until which this action can be executed (unix timestamp)",
          "_metadata": "Unique ID that is generated throught the Prime Deals frontend",
          "_pathFrom": "Two-dimensional array containing the tokens flowing from the DAOs into the module: - First array level is for each token - Second array level is for each dao - Contains absolute numbers of tokens",
          "_pathTo": "Two-dimensional array containing the tokens flowing from the module to the DAOs: - First array level is for each token - Second array level is for each dao - Contains a tuple(4) consisting of instant amount, vested  amount, vesting start, vesting end which then makes this  array look like: [[instantAmount_dao1, vestedAmount_dao1, vestingStart_dao1, vestingEnd_dao1, instantAmount_dao2, ...], [...]]",
          "_tokens": "Array containing the tokens that are involed in this action"
        }
      },
      "executeSwap(uint32)": {
        "details": "Executes a token swap action",
        "params": {
          "_dealId": "The dealId of the action (position in the array)"
        }
      },
      "setFee(uint32)": {
        "details": "Sets a new fee",
        "params": {
          "_feeInBasisPoints": "Fee amount in basis points (1% = 100)"
        }
      },
      "setFeeWallet(address)": {
        "details": "Sets a new fee wallet",
        "params": {
          "_feeWallet": "Address of the new fee wallet"
        }
      }
    },
    "title": "PrimeDeals Token Swap Module",
    "version": 1
  },
  "userdoc": {
    "events": {
      "FeeChanged(uint32,uint32)": {
        "notice": "This event is emitted when the fee is updated"
      },
      "FeeWalletChanged(address,address)": {
        "notice": "This event is emitted when the fee wallet address is updated"
      }
    },
    "kind": "user",
    "methods": {
      "setFeeWallet(address)": {
        "notice": "The fee system will be inactive if the feeWallet                      is set to a zero-address"
      }
    },
    "version": 1
  },
  "storageLayout": {
    "storage": [
      {
        "astId": 3920,
        "contract": "contracts/modules/tokenswap/TokenSwapModule.sol:TokenSwapModule",
        "label": "dealManager",
        "offset": 0,
        "slot": "0",
        "type": "t_contract(IDealManager)3083"
      },
      {
        "astId": 4226,
        "contract": "contracts/modules/tokenswap/TokenSwapModule.sol:TokenSwapModule",
        "label": "feeWallet",
        "offset": 0,
        "slot": "1",
        "type": "t_address"
      },
      {
        "astId": 4228,
        "contract": "contracts/modules/tokenswap/TokenSwapModule.sol:TokenSwapModule",
        "label": "feeInBasisPoints",
        "offset": 20,
        "slot": "1",
        "type": "t_uint32"
      },
      {
        "astId": 7222,
        "contract": "contracts/modules/tokenswap/TokenSwapModule.sol:TokenSwapModule",
        "label": "tokenSwaps",
        "offset": 0,
        "slot": "2",
        "type": "t_array(t_struct(TokenSwap)7250_storage)dyn_storage"
      },
      {
        "astId": 7226,
        "contract": "contracts/modules/tokenswap/TokenSwapModule.sol:TokenSwapModule",
        "label": "metadataToDealId",
        "offset": 0,
        "slot": "3",
        "type": "t_mapping(t_bytes32,t_uint32)"
      }
    ],
    "types": {
      "t_address": {
        "encoding": "inplace",
        "label": "address",
        "numberOfBytes": "20"
      },
      "t_array(t_address)dyn_storage": {
        "base": "t_address",
        "encoding": "dynamic_array",
        "label": "address[]",
        "numberOfBytes": "32"
      },
      "t_array(t_array(t_uint256)dyn_storage)dyn_storage": {
        "base": "t_array(t_uint256)dyn_storage",
        "encoding": "dynamic_array",
        "label": "uint256[][]",
        "numberOfBytes": "32"
      },
      "t_array(t_struct(TokenSwap)7250_storage)dyn_storage": {
        "base": "t_struct(TokenSwap)7250_storage",
        "encoding": "dynamic_array",
        "label": "struct TokenSwapModule.TokenSwap[]",
        "numberOfBytes": "32"
      },
      "t_array(t_uint256)dyn_storage": {
        "base": "t_uint256",
        "encoding": "dynamic_array",
        "label": "uint256[]",
        "numberOfBytes": "32"
      },
      "t_bytes32": {
        "encoding": "inplace",
        "label": "bytes32",
        "numberOfBytes": "32"
      },
      "t_contract(IDealManager)3083": {
        "encoding": "inplace",
        "label": "contract IDealManager",
        "numberOfBytes": "20"
      },
      "t_enum(Status)3925": {
        "encoding": "inplace",
        "label": "enum ModuleBase.Status",
        "numberOfBytes": "1"
      },
      "t_mapping(t_bytes32,t_uint32)": {
        "encoding": "mapping",
        "key": "t_bytes32",
        "label": "mapping(bytes32 => uint32)",
        "numberOfBytes": "32",
        "value": "t_uint32"
      },
      "t_struct(TokenSwap)7250_storage": {
        "encoding": "inplace",
        "label": "struct TokenSwapModule.TokenSwap",
        "members": [
          {
            "astId": 7229,
            "contract": "contracts/modules/tokenswap/TokenSwapModule.sol:TokenSwapModule",
            "label": "daos",
            "offset": 0,
            "slot": "0",
            "type": "t_array(t_address)dyn_storage"
          },
          {
            "astId": 7232,
            "contract": "contracts/modules/tokenswap/TokenSwapModule.sol:TokenSwapModule",
            "label": "tokens",
            "offset": 0,
            "slot": "1",
            "type": "t_array(t_address)dyn_storage"
          },
          {
            "astId": 7236,
            "contract": "contracts/modules/tokenswap/TokenSwapModule.sol:TokenSwapModule",
            "label": "pathFrom",
            "offset": 0,
            "slot": "2",
            "type": "t_array(t_array(t_uint256)dyn_storage)dyn_storage"
          },
          {
            "astId": 7240,
            "contract": "contracts/modules/tokenswap/TokenSwapModule.sol:TokenSwapModule",
            "label": "pathTo",
            "offset": 0,
            "slot": "3",
            "type": "t_array(t_array(t_uint256)dyn_storage)dyn_storage"
          },
          {
            "astId": 7242,
            "contract": "contracts/modules/tokenswap/TokenSwapModule.sol:TokenSwapModule",
            "label": "deadline",
            "offset": 0,
            "slot": "4",
            "type": "t_uint32"
          },
          {
            "astId": 7244,
            "contract": "contracts/modules/tokenswap/TokenSwapModule.sol:TokenSwapModule",
            "label": "executionDate",
            "offset": 4,
            "slot": "4",
            "type": "t_uint32"
          },
          {
            "astId": 7246,
            "contract": "contracts/modules/tokenswap/TokenSwapModule.sol:TokenSwapModule",
            "label": "metadata",
            "offset": 0,
            "slot": "5",
            "type": "t_bytes32"
          },
          {
            "astId": 7249,
            "contract": "contracts/modules/tokenswap/TokenSwapModule.sol:TokenSwapModule",
            "label": "status",
            "offset": 0,
            "slot": "6",
            "type": "t_enum(Status)3925"
          }
        ],
        "numberOfBytes": "224"
      },
      "t_uint256": {
        "encoding": "inplace",
        "label": "uint256",
        "numberOfBytes": "32"
      },
      "t_uint32": {
        "encoding": "inplace",
        "label": "uint32",
        "numberOfBytes": "4"
      }
    }
  }
}