{
  "address": "0xeA61Ea57fB850C04Ff90636fB3CB6c2e4f54108a",
  "abi": [
    {
      "inputs": [
        {
          "internalType": "address",
          "name": "_dealManager",
          "type": "address"
        },
        {
          "internalType": "uint32",
          "name": "_dealId",
          "type": "uint32"
        }
      ],
      "stateMutability": "nonpayable",
      "type": "constructor"
    },
    {
      "anonymous": false,
      "inputs": [
        {
          "indexed": true,
          "internalType": "uint32",
          "name": "oldFee",
          "type": "uint32"
        },
        {
          "indexed": true,
          "internalType": "uint32",
          "name": "newFee",
          "type": "uint32"
        }
      ],
      "name": "FeeChanged",
      "type": "event"
    },
    {
      "anonymous": false,
      "inputs": [
        {
          "indexed": true,
          "internalType": "address",
          "name": "oldFeeWallet",
          "type": "address"
        },
        {
          "indexed": true,
          "internalType": "address",
          "name": "newFeeWallet",
          "type": "address"
        }
      ],
      "name": "FeeWalletChanged",
      "type": "event"
    },
    {
      "anonymous": false,
      "inputs": [
        {
          "indexed": true,
          "internalType": "address",
          "name": "module",
          "type": "address"
        },
        {
          "indexed": true,
          "internalType": "uint32",
          "name": "dealId",
          "type": "uint32"
        },
        {
          "indexed": true,
          "internalType": "bytes32",
          "name": "metadata",
          "type": "bytes32"
        },
        {
          "indexed": false,
          "internalType": "address[]",
          "name": "daos",
          "type": "address[]"
        },
        {
          "indexed": false,
          "internalType": "address[]",
          "name": "tokens",
          "type": "address[]"
        },
        {
          "indexed": false,
          "internalType": "uint256[][]",
          "name": "pathFrom",
          "type": "uint256[][]"
        },
        {
          "indexed": false,
          "internalType": "uint256[][]",
          "name": "pathTo",
          "type": "uint256[][]"
        },
        {
          "indexed": false,
          "internalType": "address[]",
          "name": "daoplomats",
          "type": "address[]"
        },
        {
          "indexed": false,
          "internalType": "uint256[][]",
          "name": "rewardPathTo",
          "type": "uint256[][]"
        },
        {
          "indexed": false,
          "internalType": "uint32",
          "name": "deadline",
          "type": "uint32"
        }
      ],
      "name": "TokenSwapCreated",
      "type": "event"
    },
    {
      "anonymous": false,
      "inputs": [
        {
          "indexed": true,
          "internalType": "address",
          "name": "module",
          "type": "address"
        },
        {
          "indexed": true,
          "internalType": "uint32",
          "name": "dealId",
          "type": "uint32"
        },
        {
          "indexed": true,
          "internalType": "bytes32",
          "name": "metadata",
          "type": "bytes32"
        }
      ],
      "name": "TokenSwapExecuted",
      "type": "event"
    },
    {
      "stateMutability": "payable",
      "type": "fallback"
    },
    {
      "inputs": [],
      "name": "BPS",
      "outputs": [
        {
          "internalType": "uint256",
          "name": "",
          "type": "uint256"
        }
      ],
      "stateMutability": "view",
      "type": "function"
    },
    {
      "inputs": [],
      "name": "MAX_DAOplomats",
      "outputs": [
        {
          "internalType": "uint256",
          "name": "",
          "type": "uint256"
        }
      ],
      "stateMutability": "view",
      "type": "function"
    },
    {
      "inputs": [],
      "name": "MAX_FEE",
      "outputs": [
        {
          "internalType": "uint32",
          "name": "",
          "type": "uint32"
        }
      ],
      "stateMutability": "view",
      "type": "function"
    },
    {
      "inputs": [],
      "name": "MAX_REWARD",
      "outputs": [
        {
          "internalType": "uint256",
          "name": "",
          "type": "uint256"
        }
      ],
      "stateMutability": "view",
      "type": "function"
    },
    {
      "inputs": [
        {
          "internalType": "uint32",
          "name": "_dealId",
          "type": "uint32"
        }
      ],
      "name": "checkExecutability",
      "outputs": [
        {
          "internalType": "bool",
          "name": "",
          "type": "bool"
        }
      ],
      "stateMutability": "view",
      "type": "function"
    },
    {
      "inputs": [
        {
          "internalType": "address[]",
          "name": "_daos",
          "type": "address[]"
        },
        {
          "internalType": "address[]",
          "name": "_tokens",
          "type": "address[]"
        },
        {
          "internalType": "uint256[][]",
          "name": "_pathFrom",
          "type": "uint256[][]"
        },
        {
          "internalType": "uint256[][]",
          "name": "_pathTo",
          "type": "uint256[][]"
        },
        {
          "internalType": "address[]",
          "name": "_daoplomats",
          "type": "address[]"
        },
        {
          "internalType": "uint256[][]",
          "name": "_rewardPathTo",
          "type": "uint256[][]"
        },
        {
          "internalType": "bytes32",
          "name": "_metadata",
          "type": "bytes32"
        },
        {
          "internalType": "uint32",
          "name": "_deadline",
          "type": "uint32"
        }
      ],
      "name": "createSwap",
      "outputs": [
        {
          "internalType": "uint32",
          "name": "",
          "type": "uint32"
        }
      ],
      "stateMutability": "nonpayable",
      "type": "function"
    },
    {
      "inputs": [],
      "name": "dealManager",
      "outputs": [
        {
          "internalType": "contract IDealManager",
          "name": "",
          "type": "address"
        }
      ],
      "stateMutability": "view",
      "type": "function"
    },
    {
      "inputs": [
        {
          "internalType": "uint32",
          "name": "_dealId",
          "type": "uint32"
        }
      ],
      "name": "executeSwap",
      "outputs": [],
      "stateMutability": "nonpayable",
      "type": "function"
    },
    {
      "inputs": [],
      "name": "feeInBasisPoints",
      "outputs": [
        {
          "internalType": "uint32",
          "name": "",
          "type": "uint32"
        }
      ],
      "stateMutability": "view",
      "type": "function"
    },
    {
      "inputs": [],
      "name": "feeWallet",
      "outputs": [
        {
          "internalType": "address",
          "name": "",
          "type": "address"
        }
      ],
      "stateMutability": "view",
      "type": "function"
    },
    {
      "inputs": [
        {
          "internalType": "bytes32",
          "name": "_metadata",
          "type": "bytes32"
        }
      ],
      "name": "getTokenswapFromMetadata",
      "outputs": [
        {
          "components": [
            {
              "internalType": "address[]",
              "name": "daos",
              "type": "address[]"
            },
            {
              "internalType": "address[]",
              "name": "tokens",
              "type": "address[]"
            },
            {
              "internalType": "uint256[][]",
              "name": "pathFrom",
              "type": "uint256[][]"
            },
            {
              "internalType": "uint256[][]",
              "name": "pathTo",
              "type": "uint256[][]"
            },
            {
              "internalType": "address[]",
              "name": "daoplomats",
              "type": "address[]"
            },
            {
              "internalType": "uint256[][]",
              "name": "rewardPathTo",
              "type": "uint256[][]"
            },
            {
              "internalType": "uint32",
              "name": "deadline",
              "type": "uint32"
            },
            {
              "internalType": "uint32",
              "name": "executionDate",
              "type": "uint32"
            },
            {
              "internalType": "bytes32",
              "name": "metadata",
              "type": "bytes32"
            },
            {
              "internalType": "bool",
              "name": "isExecuted",
              "type": "bool"
            }
          ],
          "internalType": "struct TokenSwapModule.TokenSwap",
          "name": "swap",
          "type": "tuple"
        }
      ],
      "stateMutability": "view",
      "type": "function"
    },
    {
      "inputs": [
        {
          "internalType": "uint32",
          "name": "_dealId",
          "type": "uint32"
        }
      ],
      "name": "hasDealExpired",
      "outputs": [
        {
          "internalType": "bool",
          "name": "",
          "type": "bool"
        }
      ],
      "stateMutability": "view",
      "type": "function"
    },
    {
      "inputs": [],
      "name": "lastDealId",
      "outputs": [
        {
          "internalType": "uint32",
          "name": "",
          "type": "uint32"
        }
      ],
      "stateMutability": "view",
      "type": "function"
    },
    {
      "inputs": [
        {
          "internalType": "bytes32",
          "name": "",
          "type": "bytes32"
        }
      ],
      "name": "metadataToDealId",
      "outputs": [
        {
          "internalType": "uint32",
          "name": "",
          "type": "uint32"
        }
      ],
      "stateMutability": "view",
      "type": "function"
    },
    {
      "inputs": [
        {
          "internalType": "uint32",
          "name": "_feeInBasisPoints",
          "type": "uint32"
        }
      ],
      "name": "setFee",
      "outputs": [],
      "stateMutability": "nonpayable",
      "type": "function"
    },
    {
      "inputs": [
        {
          "internalType": "address",
          "name": "_feeWallet",
          "type": "address"
        }
      ],
      "name": "setFeeWallet",
      "outputs": [],
      "stateMutability": "nonpayable",
      "type": "function"
    },
    {
      "inputs": [
        {
          "internalType": "uint32",
          "name": "",
          "type": "uint32"
        }
      ],
      "name": "tokenSwaps",
      "outputs": [
        {
          "internalType": "uint32",
          "name": "deadline",
          "type": "uint32"
        },
        {
          "internalType": "uint32",
          "name": "executionDate",
          "type": "uint32"
        },
        {
          "internalType": "bytes32",
          "name": "metadata",
          "type": "bytes32"
        },
        {
          "internalType": "bool",
          "name": "isExecuted",
          "type": "bool"
        }
      ],
      "stateMutability": "view",
      "type": "function"
    },
    {
      "stateMutability": "payable",
      "type": "receive"
    }
  ],
  "transactionHash": "0x7290c57885fb3e94de5d7ce4eeb9d69b7c3791252eea1efe1b1eecb5c102fe22",
  "args": [
    "0x1A49e850d0fe19C405dF4506191e51366F169329",
    0
  ],
  "numDeployments": 1,
  "solcInputHash": "0ac8263b96efe61404e28e9e9fc771ce",
  "bytecode": "0x6101206040526107d060a05261271060c0526101f460e0526008610100523480156200002a57600080fd5b5060405162003fbf38038062003fbf8339810160408190526200004d91620000e2565b81806001600160a01b038116620000aa5760405162461bcd60e51b815260206004820152601560248201527f4d6f64756c65426173653a204572726f72203130300000000000000000000000604482015260640160405180910390fd5b6001600160a01b0316608052506000805463ffffffff909216600160c01b0263ffffffff60c01b199092169190911790555062000134565b60008060408385031215620000f657600080fd5b82516001600160a01b03811681146200010e57600080fd5b602084015190925063ffffffff811681146200012957600080fd5b809150509250929050565b60805160a05160c05160e05161010051613dd6620001e96000396000818161035501526129370152600081816101620152612a8b0152600081816101c401528181612b8e01528181612ce401528181613079015281816130d6015261330501526000818161030101526105510152600081816101110152818161045b01528181610a4201528181610c8401528181610d2301528181610e3e015281816121c501528181612e0b01526131550152613dd66000f3fe6080604052600436106100f65760003560e01c8063b42132cd1161008f578063df5d2bfa11610061578063df5d2bfa14610343578063f25f4b5614610377578063fa23813714610397578063fb458ec3146103bb578063fe442f5d1461043857005b8063b42132cd1461029e578063b45edf47146102cb578063bc063e1a146102ef578063cfccd4bc1461032357005b8063251f02b4116100c8578063251f02b4146101e65780636f5eb9eb146102165780638730f3441461024b57806390d49b9d1461027e57005b806301df538d146100ff5780630e1505e0146101505780631ab971ab14610192578063249d39e9146101b257005b366100fd57005b005b34801561010b57600080fd5b506101337f000000000000000000000000000000000000000000000000000000000000000081565b6040516001600160a01b0390911681526020015b60405180910390f35b34801561015c57600080fd5b506101847f000000000000000000000000000000000000000000000000000000000000000081565b604051908152602001610147565b34801561019e57600080fd5b506100fd6101ad3660046135a7565b610458565b3480156101be57600080fd5b506101847f000000000000000000000000000000000000000000000000000000000000000081565b3480156101f257600080fd5b506102066102013660046135a7565b61063c565b6040519015158152602001610147565b34801561022257600080fd5b506102366102313660046137ef565b610c2d565b60405163ffffffff9091168152602001610147565b34801561025757600080fd5b5061023661026636600461393f565b60026020526000908152604090205463ffffffff1681565b34801561028a57600080fd5b506100fd610299366004613958565b610e3b565b3480156102aa57600080fd5b506102be6102b936600461393f565b610ffb565b6040516101479190613a35565b3480156102d757600080fd5b5060005461023690600160a01b900463ffffffff1681565b3480156102fb57600080fd5b506102367f000000000000000000000000000000000000000000000000000000000000000081565b34801561032f57600080fd5b5061020661033e3660046135a7565b61139f565b34801561034f57600080fd5b506101847f000000000000000000000000000000000000000000000000000000000000000081565b34801561038357600080fd5b50600054610133906001600160a01b031681565b3480156103a357600080fd5b5060005461023690600160c01b900463ffffffff1681565b3480156103c757600080fd5b5061040e6103d63660046135a7565b60016020526000908152604090206006810154600782015460089092015463ffffffff80831693600160201b90930416919060ff1684565b6040805163ffffffff95861681529490931660208501529183015215156060820152608001610147565b34801561044457600080fd5b506100fd6104533660046135a7565b611746565b337f00000000000000000000000000000000000000000000000000000000000000006001600160a01b0316638da5cb5b6040518163ffffffff1660e01b815260040160206040518083038186803b1580156104b257600080fd5b505afa1580156104c6573d6000803e3d6000fd5b505050506040513d601f19601f820116820180604052508101906104ea9190613b3a565b6001600160a01b0316816001600160a01b03161461054f5760405162461bcd60e51b815260206004820152601c60248201527f4d6f64756c6542617365576974684665653a204572726f72203232310000000060448201526064015b60405180910390fd5b7f000000000000000000000000000000000000000000000000000000000000000063ffffffff168263ffffffff1611156105cb5760405162461bcd60e51b815260206004820152601c60248201527f4d6f64756c6542617365576974684665653a204572726f7220323634000000006044820152606401610546565b60005463ffffffff838116600160a01b9092041614610638576000805463ffffffff60a01b1916600160a01b63ffffffff85811682810293909317808555604051939492900416917fdeab7ddf530f3309d7f88438b7fbb714e557a5a30d0c2d1cfc3c0da1dde409689190a35b5050565b63ffffffff811660009081526001602052604081206007015482906106735760405162461bcd60e51b815260040161054690613b57565b63ffffffff83166000908152600160209081526040808320815181546101609481028201850190935261014081018381529093919284928491908401828280156106e657602002820191906000526020600020905b81546001600160a01b031681526001909101906020018083116106c8575b505050505081526020016001820180548060200260200160405190810160405280929190818152602001828054801561074857602002820191906000526020600020905b81546001600160a01b0316815260019091019060200180831161072a575b5050505050815260200160028201805480602002602001604051908101604052809291908181526020016000905b828210156107e2576000848152602090819020830180546040805182850281018501909152818152928301828280156107ce57602002820191906000526020600020905b8154815260200190600101908083116107ba575b505050505081526020019060010190610776565b50505050815260200160038201805480602002602001604051908101604052809291908181526020016000905b8282101561087b5760008481526020908190208301805460408051828502810185019091528181529283018282801561086757602002820191906000526020600020905b815481526020019060010190808311610853575b50505050508152602001906001019061080f565b505050508152602001600482018054806020026020016040519081016040528092919081815260200182805480156108dc57602002820191906000526020600020905b81546001600160a01b031681526001909101906020018083116108be575b5050505050815260200160058201805480602002602001604051908101604052809291908181526020016000905b828210156109765760008481526020908190208301805460408051828502810185019091528181529283018282801561096257602002820191906000526020600020905b81548152602001906001019080831161094e575b50505050508152602001906001019061090a565b50505090825250600682015463ffffffff8082166020840152600160201b9091041660408201526007820154606082015260089091015460ff16151560809091015290506109c38461139f565b156109d2576000925050610c27565b6020810151805160005b81811015610c1e576000846040015182815181106109fc576109fc613b8e565b6020026020010151905060008151905060005b81811015610c0a57828181518110610a2957610a29613b8e565b602002602001015160001415610a3e57610bfa565b60007f00000000000000000000000000000000000000000000000000000000000000006001600160a01b03166371cfe49889600001518481518110610a8557610a85613b8e565b60200260200101516040518263ffffffff1660e01b8152600401610ab891906001600160a01b0391909116815260200190565b60206040518083038186803b158015610ad057600080fd5b505afa158015610ae4573d6000803e3d6000fd5b505050506040513d601f19601f82011682018060405250810190610b089190613b3a565b6001600160a01b031663246cd574308d8a8981518110610b2a57610b2a613b8e565b60200260200101516040518463ffffffff1660e01b8152600401610b74939291906001600160a01b03938416815263ffffffff929092166020830152909116604082015260600190565b60206040518083038186803b158015610b8c57600080fd5b505afa158015610ba0573d6000803e3d6000fd5b505050506040513d601f19601f82011682018060405250810190610bc49190613ba4565b9050838281518110610bd857610bd8613b8e565b6020026020010151811015610bf857600099505050505050505050610c27565b505b610c0381613bd3565b9050610a0f565b50505080610c1790613bd3565b90506109dc565b50600194505050505b50919050565b6000805b8c811015610d915760008e8e83818110610c4d57610c4d613b8e565b9050602002016020810190610c629190613958565b60405163c221e44b60e01b81526001600160a01b0380831660048301529192507f00000000000000000000000000000000000000000000000000000000000000009091169063c221e44b9060240160206040518083038186803b158015610cc857600080fd5b505afa158015610cdc573d6000803e3d6000fd5b505050506040513d601f19601f82011682018060405250810190610d009190613bee565b610d805760405163253feb5d60e21b81526001600160a01b0382811660048301527f000000000000000000000000000000000000000000000000000000000000000016906394ffad7490602401600060405180830381600087803b158015610d6757600080fd5b505af1158015610d7b573d6000803e3d6000fd5b505050505b50610d8a81613bd3565b9050610c31565b50610e2a8d8d80806020026020016040519081016040528093929190818152602001838360200280828437600081840152601f19601f820116905080830192505050505050508c8c80806020026020016040519081016040528093929190818152602001838360200280828437600092019190915250610e1792508d91508e9050613c10565b610e218a8c613c10565b89898989611dfe565b9d9c50505050505050505050505050565b337f00000000000000000000000000000000000000000000000000000000000000006001600160a01b0316638da5cb5b6040518163ffffffff1660e01b815260040160206040518083038186803b158015610e9557600080fd5b505afa158015610ea9573d6000803e3d6000fd5b505050506040513d601f19601f82011682018060405250810190610ecd9190613b3a565b6001600160a01b0316816001600160a01b031614610f2d5760405162461bcd60e51b815260206004820152601c60248201527f4d6f64756c6542617365576974684665653a204572726f7220323231000000006044820152606401610546565b6001600160a01b03821615801590610f4e57506001600160a01b0382163014155b610f9a5760405162461bcd60e51b815260206004820152601c60248201527f4d6f64756c6542617365576974684665653a204572726f7220313030000000006044820152606401610546565b6000546001600160a01b0383811691161461063857600080546001600160a01b0319166001600160a01b0384169081178255604051909182917f9f4f5dce3c4d197b5d7496cb96e25f0a89809167195964b0daa3ef5fed63c00a9190a35050565b60408051610140810182526060808252602082018190529181018290528181018290526080810182905260a0810191909152600060c0820181905260e08201819052610100820181905261012082015260008281526002602090815260408083205463ffffffff16835260018252918290208251815461016093810282018401909452610140810184815290939192849284918401828280156110c757602002820191906000526020600020905b81546001600160a01b031681526001909101906020018083116110a9575b505050505081526020016001820180548060200260200160405190810160405280929190818152602001828054801561112957602002820191906000526020600020905b81546001600160a01b0316815260019091019060200180831161110b575b5050505050815260200160028201805480602002602001604051908101604052809291908181526020016000905b828210156111c3576000848152602090819020830180546040805182850281018501909152818152928301828280156111af57602002820191906000526020600020905b81548152602001906001019080831161119b575b505050505081526020019060010190611157565b50505050815260200160038201805480602002602001604051908101604052809291908181526020016000905b8282101561125c5760008481526020908190208301805460408051828502810185019091528181529283018282801561124857602002820191906000526020600020905b815481526020019060010190808311611234575b5050505050815260200190600101906111f0565b505050508152602001600482018054806020026020016040519081016040528092919081815260200182805480156112bd57602002820191906000526020600020905b81546001600160a01b0316815260019091019060200180831161129f575b5050505050815260200160058201805480602002602001604051908101604052809291908181526020016000905b828210156113575760008481526020908190208301805460408051828502810185019091528181529283018282801561134357602002820191906000526020600020905b81548152602001906001019080831161132f575b5050505050815260200190600101906112eb565b50505090825250600682015463ffffffff8082166020840152600160201b9091041660408201526007820154606082015260089091015460ff16151560809091015292915050565b63ffffffff811660009081526001602052604081206007015482906113d65760405162461bcd60e51b815260040161054690613b57565b63ffffffff831660009081526001602090815260408083208151815461016094810282018501909352610140810183815290939192849284919084018282801561144957602002820191906000526020600020905b81546001600160a01b0316815260019091019060200180831161142b575b50505050508152602001600182018054806020026020016040519081016040528092919081815260200182805480156114ab57602002820191906000526020600020905b81546001600160a01b0316815260019091019060200180831161148d575b5050505050815260200160028201805480602002602001604051908101604052809291908181526020016000905b828210156115455760008481526020908190208301805460408051828502810185019091528181529283018282801561153157602002820191906000526020600020905b81548152602001906001019080831161151d575b5050505050815260200190600101906114d9565b50505050815260200160038201805480602002602001604051908101604052809291908181526020016000905b828210156115de576000848152602090819020830180546040805182850281018501909152818152928301828280156115ca57602002820191906000526020600020905b8154815260200190600101908083116115b6575b505050505081526020019060010190611572565b5050505081526020016004820180548060200260200160405190810160405280929190818152602001828054801561163f57602002820191906000526020600020905b81546001600160a01b03168152600190910190602001808311611621575b5050505050815260200160058201805480602002602001604051908101604052809291908181526020016000905b828210156116d9576000848152602090819020830180546040805182850281018501909152818152928301828280156116c557602002820191906000526020600020905b8154815260200190600101908083116116b1575b50505050508152602001906001019061166d565b50505090825250600682015463ffffffff8082166020840152600160201b9091041660408201526007820154606082015260089091015460ff1615156080909101526101208101519091508061173e57504263ffffffff168160c0015163ffffffff16105b949350505050565b63ffffffff8116600090815260016020526040902060070154819061177d5760405162461bcd60e51b815260040161054690613b57565b63ffffffff8216600090815260016020526040902060080154829060ff16156117e85760405162461bcd60e51b815260206004820152601a60248201527f546f6b656e537761704d6f64756c653a204572726f72203236360000000000006044820152606401610546565b63ffffffff831660009081526001602052604090206118068461063c565b6118525760405162461bcd60e51b815260206004820152601a60248201527f546f6b656e537761704d6f64756c653a204572726f72203236350000000000006044820152606401610546565b60088101805460ff1916600117905560068101805463ffffffff4216600160201b0267ffffffff00000000199091161790558054604080516020808402820181019092528281526000926119d99288929186918301828280156118de57602002820191906000526020600020905b81546001600160a01b031681526001909101906020018083116118c0575b50505050508460010180548060200260200160405190810160405280929190818152602001828054801561193b57602002820191906000526020600020905b81546001600160a01b0316815260019091019060200180831161191d575b505050505085600201805480602002602001604051908101604052809291908181526020016000905b828210156119d0576000848152602090819020830180546040805182850281018501909152818152928301828280156119bc57602002820191906000526020600020905b8154815260200190600101908083116119a8575b505050505081526020019060010190611964565b5050505061205c565b60408051845461016060208202830181019093526101408201818152939450600093611d18938792849291849190840182828015611a4057602002820191906000526020600020905b81546001600160a01b03168152600190910190602001808311611a22575b5050505050815260200160018201805480602002602001604051908101604052809291908181526020018280548015611aa257602002820191906000526020600020905b81546001600160a01b03168152600190910190602001808311611a84575b5050505050815260200160028201805480602002602001604051908101604052809291908181526020016000905b82821015611b3c57600084815260209081902083018054604080518285028101850190915281815292830182828015611b2857602002820191906000526020600020905b815481526020019060010190808311611b14575b505050505081526020019060010190611ad0565b50505050815260200160038201805480602002602001604051908101604052809291908181526020016000905b82821015611bd557600084815260209081902083018054604080518285028101850190915281815292830182828015611bc157602002820191906000526020600020905b815481526020019060010190808311611bad575b505050505081526020019060010190611b69565b50505050815260200160048201805480602002602001604051908101604052809291908181526020018280548015611c3657602002820191906000526020600020905b81546001600160a01b03168152600190910190602001808311611c18575b5050505050815260200160058201805480602002602001604051908101604052809291908181526020016000905b82821015611cd057600084815260209081902083018054604080518285028101850190915281815292830182828015611cbc57602002820191906000526020600020905b815481526020019060010190808311611ca8575b505050505081526020019060010190611c64565b50505090825250600682015463ffffffff8082166020840152600160201b9091041660408201526007820154606082015260089091015460ff1615156080909101528761234f565b600184015490915060005b81811015611dbc57828181518110611d3d57611d3d613b8e565b6020026020010151848281518110611d5757611d57613b8e565b602002602001015114611dac5760405162461bcd60e51b815260206004820152601a60248201527f546f6b656e537761704d6f64756c653a204572726f72203130330000000000006044820152606401610546565b611db581613bd3565b9050611d23565b50600784015460405163ffffffff89169030907fec8c89d1275fdc3512da61ea020e4d570bb3bf0fba7163f506a1ef7b5e55179a90600090a450505050505050565b6000611e10898989898989898961258e565b60006040518061014001604052808b81526020018a81526020018981526020018881526020018781526020018681526020018442611e4e9190613c1d565b63ffffffff168152602001600063ffffffff1681526020018581526020016000151581525090506000601881819054906101000a900463ffffffff16611e9390613c45565b82546101009290920a63ffffffff81810219909316918316021790915560008054600160c01b90049091168152600160209081526040909120825180518493611ee0928492910190613442565b506020828101518051611ef99260018501920190613442565b5060408201518051611f159160028401916020909101906134a7565b5060608201518051611f319160038401916020909101906134a7565b5060808201518051611f4d916004840191602090910190613442565b5060a08201518051611f699160058401916020909101906134a7565b5060c082015160068201805460e085015163ffffffff908116600160201b0267ffffffffffffffff19909216938116939093171790556101008301516007830155610120909201516008909101805491151560ff199092169190911790556000805486825260026020526040808320805463ffffffff1916600160c01b93849004861617905591549151879391909204169030907f0b384e06276811c2cdab172e77aacaaa16b3d344d23ab196a7523d0a8d40ca6190612036908f908f908f908f908f908f908e90613c69565b60405180910390a45050600054600160c01b900463ffffffff1698975050505050505050565b6060825167ffffffffffffffff81111561207857612078613615565b6040519080825280602002602001820160405280156120a1578160200160208202803683370190505b50905082518251146120ed5760405162461bcd60e51b815260206004820152601560248201527426b7b23ab632a130b9b29d1022b93937b91018981960591b6044820152606401610546565b825160005b8181101561234557600084828151811061210e5761210e613b8e565b6020026020010151905086518151146121615760405162461bcd60e51b815260206004820152601560248201527426b7b23ab632a130b9b29d1022b93937b91018981960591b6044820152606401610546565b805160005b8181101561233157600083828151811061218257612182613b8e565b60200260200101519050600081111561232057808786815181106121a8576121a8613b8e565b602002602001018181516121bc9190613cf9565b915081815250507f00000000000000000000000000000000000000000000000000000000000000006001600160a01b03166371cfe4988b848151811061220457612204613b8e565b60200260200101516040518263ffffffff1660e01b815260040161223791906001600160a01b0391909116815260200190565b60206040518083038186803b15801561224f57600080fd5b505afa158015612263573d6000803e3d6000fd5b505050506040513d601f19601f820116820180604052508101906122879190613b3a565b6001600160a01b0316632162a70c8c8b88815181106122a8576122a8613b8e565b60209081029190910101516040516001600160e01b031960e085901b16815263ffffffff9290921660048301526001600160a01b0316602482015260448101849052606401600060405180830381600087803b15801561230757600080fd5b505af115801561231b573d6000803e3d6000fd5b505050505b5061232a81613bd3565b9050612166565b5050508061233e90613bd3565b90506120f2565b5050949350505050565b606082602001515167ffffffffffffffff81111561236f5761236f613615565b604051908082528060200260200182016040528015612398578160200160208202803683370190505b5060208401515190915060005b81811015612586576000856060015182815181106123c5576123c5613b8e565b60200260200101519050600060028251901c90506000806000805b848110156124b6576124688b60200151888151811061240157612401613b8e565b60200260200101518c60000151838151811061241f5761241f613b8e565b602002602001015188848f60a0015160008151811061244057612440613b8e565b602002602001015160008151811061245a5761245a613b8e565b60200260200101518f612c0a565b80945081935050508189888151811061248357612483613b8e565b602002602001018181516124979190613cf9565b9052506124a48385613cf9565b93506124af81613bd3565b90506123e0565b5060008a60a001516000815181106124d0576124d0613b8e565b60200260200101516000815181106124ea576124ea613b8e565b60200260200101511115612570576125438a60200151878151811061251157612511613b8e565b6020026020010151848c608001518d60a0015160018151811061253657612536613b8e565b6020026020010151612cd3565b90508088878151811061255857612558613b8e565b6020026020010181815161256c9190613cf9565b9052505b50505050508061257f90613bd3565b90506123a5565b505092915050565b816125db5760405162461bcd60e51b815260206004820152601a60248201527f546f6b656e537761704d6f64756c653a204572726f72203130310000000000006044820152606401610546565b6125e482612d7f565b6126305760405162461bcd60e51b815260206004820152601a60248201527f546f6b656e537761704d6f64756c653a204572726f72203230330000000000006044820152606401610546565b6002885110156126825760405162461bcd60e51b815260206004820152601a60248201527f546f6b656e537761704d6f64756c653a204572726f72203230340000000000006044820152606401610546565b86516126d05760405162461bcd60e51b815260206004820152601a60248201527f546f6b656e537761704d6f64756c653a204572726f72203230350000000000006044820152606401610546565b63ffffffff81166127235760405162461bcd60e51b815260206004820152601a60248201527f546f6b656e537761704d6f64756c653a204572726f72203130310000000000006044820152606401610546565b85518751811480156127355750855181145b6127515760405162461bcd60e51b815260040161054690613d11565b60005b885181101561282b57600061276a826001613cf9565b90505b895181101561281a5789818151811061278857612788613b8e565b60200260200101516001600160a01b03168a83815181106127ab576127ab613b8e565b60200260200101516001600160a01b0316141561280a5760405162461bcd60e51b815260206004820152601a60248201527f546f6b656e537761704d6f64756c653a204572726f72203130340000000000006044820152606401610546565b61281381613bd3565b905061276d565b5061282481613bd3565b9050612754565b50885160005b828110156128ab578189828151811061284c5761284c613b8e565b60200260200101515114801561287f5750600282901b88828151811061287457612874613b8e565b602002602001015151145b61289b5760405162461bcd60e51b815260040161054690613d11565b6128a481613bd3565b9050612831565b508551801580156128f05750856000815181106128ca576128ca613b8e565b60200260200101516000815181106128e4576128e4613b8e565b60200260200101516000145b15612935578560018151811061290857612908613b8e565b6020026020010151516000146129305760405162461bcd60e51b815260040161054690613d11565b612bfd565b7f00000000000000000000000000000000000000000000000000000000000000008111156129a55760405162461bcd60e51b815260206004820152601a60248201527f546f6b656e537761704d6f64756c653a204572726f72203236370000000000006044820152606401610546565b80866001815181106129b9576129b9613b8e565b602002602001015151146129df5760405162461bcd60e51b815260040161054690613d11565b856000815181106129f2576129f2613b8e565b602002602001015151600114612a4a5760405162461bcd60e51b815260206004820152601a60248201527f546f6b656e537761704d6f64756c653a204572726f72203130350000000000006044820152606401610546565b600086600081518110612a5f57612a5f613b8e565b6020026020010151600081518110612a7957612a79613b8e565b6020026020010151118015612ae257507f000000000000000000000000000000000000000000000000000000000000000086600081518110612abd57612abd613b8e565b6020026020010151600081518110612ad757612ad7613b8e565b602002602001015111155b612b2e5760405162461bcd60e51b815260206004820152601a60248201527f546f6b656e537761704d6f64756c653a204572726f72203236380000000000006044820152606401610546565b6000805b82811015612b8b5787600181518110612b4d57612b4d613b8e565b60200260200101518181518110612b6657612b66613b8e565b602002602001015182612b799190613cf9565b9150612b8481613bd3565b9050612b32565b507f00000000000000000000000000000000000000000000000000000000000000008114612bfb5760405162461bcd60e51b815260206004820152601a60248201527f546f6b656e537761704d6f64756c653a204572726f72203130330000000000006044820152606401610546565b505b5050505050505050505050565b600080600086600287901b81518110612c2557612c25613b8e565b60200260200101519050600087600288901b6001612c439190613cf9565b81518110612c5357612c53613b8e565b602002602001015190506000806000841115612c9257612c758c8c868b612d98565b92509050612c838187613cf9565b9550612c8f8286613cf9565b94505b8215612cc457612ca78c8c8c8c878d8d612dc8565b92509050612cb58187613cf9565b9550612cc18286613cf9565b94505b50505050965096945050505050565b6000805b8351811015612d765760007f0000000000000000000000000000000000000000000000000000000000000000848381518110612d1557612d15613b8e565b602002602001015187612d289190613d48565b612d329190613d67565b9050612d5887868481518110612d4a57612d4a613b8e565b602002602001015183612ebd565b612d628184613cf9565b92505080612d6f90613bd3565b9050612cd7565b50949350505050565b600080612d8b83610ffb565b6101000151159392505050565b600080612da786868686613075565b612db19082613cf9565b9050612dbd8185613d89565b915094509492505050565b6000806000612dd88a87876130d0565b92509050612de68287613d89565b604051630e39fc9360e31b81526001600160a01b038b811660048301529194506000917f000000000000000000000000000000000000000000000000000000000000000016906371cfe4989060240160206040518083038186803b158015612e4d57600080fd5b505afa158015612e61573d6000803e3d6000fd5b505050506040513d601f19601f82011682018060405250810190612e859190613b3a565b90506001600160a01b038b1615612ea157612ea18b8b84613130565b612eaf8b82848c8c8a6131d5565b505097509795505050505050565b6001600160a01b03831615612fd55760405163a9059cbb60e01b81526001600160a01b0383811660048301526024820183905284169063a9059cbb90604401602060405180830381600087803b158015612f1657600080fd5b505af1925050508015612f46575060408051601f3d908101601f19168201909252612f4391810190613bee565b60015b612f8a5760405162461bcd60e51b81526020600482015260156024820152744d6f64756c65426173653a204572726f722032343160581b6044820152606401610546565b80612fcf5760405162461bcd60e51b81526020600482015260156024820152744d6f64756c65426173653a204572726f722032343160581b6044820152606401610546565b50505050565b6000826001600160a01b03168260405160006040518083038185875af1925050503d8060008114613022576040519150601f19603f3d011682016040523d82523d6000602084013e613027565b606091505b5050905080612fcf5760405162461bcd60e51b815260206004820152601560248201527426b7b23ab632a130b9b29d1022b93937b910191a1960591b6044820152606401610546565b505050565b60007f00000000000000000000000000000000000000000000000000000000000000006130a28385613d48565b6130ac9190613d67565b905060006130ba86856132d1565b9050612d7686866130cb8585613d89565b612ebd565b600080807f00000000000000000000000000000000000000000000000000000000000000006130ff8587613d48565b6131099190613d67565b9050600061311787876132d1565b90506131238282613d89565b9791965090945050505050565b604051630e39fc9360e31b81526001600160a01b0383811660048301526130709185917f000000000000000000000000000000000000000000000000000000000000000016906371cfe4989060240160206040518083038186803b15801561319757600080fd5b505afa1580156131ab573d6000803e3d6000fd5b505050506040513d601f19601f820116820180604052508101906131cf9190613b3a565b8361337c565b60006001600160a01b038716156131ed5760006131ef565b845b90506001600160a01b03861663d405929282848a898961321360028b811b90613cf9565b8151811061322357613223613b8e565b60200260200101518a60028b901b600361323d9190613cf9565b8151811061324d5761324d613b8e565b60209081029190910101516040516001600160e01b031960e089901b16815263ffffffff95861660048201526001600160a01b03909416602485015260448401929092528316606483015291909116608482015260a4016000604051808303818588803b1580156132bd57600080fd5b505af1158015612bfb573d6000803e3d6000fd5b600080546001600160a01b0316158015906132fa5750600054600160a01b900463ffffffff1615155b1561337357600080547f00000000000000000000000000000000000000000000000000000000000000009061333c90600160a01b900463ffffffff1685613d48565b6133469190613d67565b6000549091506133619085906001600160a01b031683612ebd565b61336b8184613d89565b915050613376565b50805b92915050565b60405163095ea7b360e01b81526001600160a01b0383811660048301526024820183905284169063095ea7b390604401602060405180830381600087803b1580156133c657600080fd5b505af11580156133da573d6000803e3d6000fd5b505050506040513d601f19601f820116820180604052508101906133fe9190613bee565b6130705760405162461bcd60e51b81526020600482015260156024820152744d6f64756c65426173653a204572726f722032343360581b6044820152606401610546565b828054828255906000526020600020908101928215613497579160200282015b8281111561349757825182546001600160a01b0319166001600160a01b03909116178255602090920191600190910190613462565b506134a3929150613500565b5090565b8280548282559060005260206000209081019282156134f4579160200282015b828111156134f457825180516134e4918491602090910190613515565b50916020019190600101906134c7565b506134a3929150613550565b5b808211156134a35760008155600101613501565b828054828255906000526020600020908101928215613497579160200282015b82811115613497578251825591602001919060010190613535565b808211156134a3576000613564828261356d565b50600101613550565b508054600082559060005260206000209081019061358b9190613500565b50565b803563ffffffff811681146135a257600080fd5b919050565b6000602082840312156135b957600080fd5b6135c28261358e565b9392505050565b60008083601f8401126135db57600080fd5b50813567ffffffffffffffff8111156135f357600080fd5b6020830191508360208260051b850101111561360e57600080fd5b9250929050565b634e487b7160e01b600052604160045260246000fd5b604051601f8201601f1916810167ffffffffffffffff8111828210171561365457613654613615565b604052919050565b600067ffffffffffffffff82111561367657613676613615565b5060051b60200190565b6001600160a01b038116811461358b57600080fd5b600082601f8301126136a657600080fd5b813560206136bb6136b68361365c565b61362b565b82815260059290921b840181019181810190868411156136da57600080fd5b8286015b848110156136fe5780356136f181613680565b83529183019183016136de565b509695505050505050565b60006137176136b68461365c565b8381529050602080820190600585811b85018781111561373657600080fd5b855b818110156137c357803567ffffffffffffffff8111156137585760008081fd5b8701601f81018a1361376a5760008081fd5b80356137786136b68261365c565b81815290851b8201860190868101908c8311156137955760008081fd5b928701925b828410156137b35783358252928701929087019061379a565b8852505050938301938301613738565b50505050509392505050565b600082601f8301126137e057600080fd5b6135c283833560208501613709565b6000806000806000806000806000806000806101008d8f03121561381257600080fd5b67ffffffffffffffff8d35111561382857600080fd5b6138358e8e358f016135c9565b909c509a5067ffffffffffffffff60208e0135111561385357600080fd5b6138638e60208f01358f016135c9565b909a50985067ffffffffffffffff60408e0135111561388157600080fd5b6138918e60408f01358f016135c9565b909850965067ffffffffffffffff60608e013511156138af57600080fd5b6138bf8e60608f01358f016135c9565b909650945067ffffffffffffffff60808e013511156138dd57600080fd5b6138ed8e60808f01358f01613695565b935067ffffffffffffffff60a08e0135111561390857600080fd5b6139188e60a08f01358f016137cf565b925060c08d0135915061392d60e08e0161358e565b90509295989b509295989b509295989b565b60006020828403121561395157600080fd5b5035919050565b60006020828403121561396a57600080fd5b81356135c281613680565b600081518084526020808501945080840160005b838110156139ae5781516001600160a01b031687529582019590820190600101613989565b509495945050505050565b600081518084526020808501808196508360051b810191508286016000805b86811015613a27578385038a52825180518087529087019087870190845b81811015613a12578351835292890192918901916001016139f6565b50509a87019a955050918501916001016139d8565b509298975050505050505050565b6020815260008251610140806020850152613a54610160850183613975565b91506020850151601f1980868503016040870152613a728483613975565b93506040870151915080868503016060870152613a8f84836139b9565b93506060870151915080868503016080870152613aac84836139b9565b935060808701519150808685030160a0870152613ac98483613975565b935060a08701519150808685030160c087015250613ae783826139b9565b92505060c0850151613b0160e086018263ffffffff169052565b5060e0850151610100613b1b8187018363ffffffff169052565b8601516101208681019190915290950151151593019290925250919050565b600060208284031215613b4c57600080fd5b81516135c281613680565b6020808252601a908201527f546f6b656e537761704d6f64756c653a204572726f7220323037000000000000604082015260600190565b634e487b7160e01b600052603260045260246000fd5b600060208284031215613bb657600080fd5b5051919050565b634e487b7160e01b600052601160045260246000fd5b6000600019821415613be757613be7613bbd565b5060010190565b600060208284031215613c0057600080fd5b815180151581146135c257600080fd5b60006135c2368484613709565b600063ffffffff808316818516808303821115613c3c57613c3c613bbd565b01949350505050565b600063ffffffff80831681811415613c5f57613c5f613bbd565b6001019392505050565b60e081526000613c7c60e083018a613975565b8281036020840152613c8e818a613975565b90508281036040840152613ca281896139b9565b90508281036060840152613cb681886139b9565b90508281036080840152613cca8187613975565b905082810360a0840152613cde81866139b9565b91505063ffffffff831660c083015298975050505050505050565b60008219821115613d0c57613d0c613bbd565b500190565b6020808252601a908201527f546f6b656e537761704d6f64756c653a204572726f7220313032000000000000604082015260600190565b6000816000190483118215151615613d6257613d62613bbd565b500290565b600082613d8457634e487b7160e01b600052601260045260246000fd5b500490565b600082821015613d9b57613d9b613bbd565b50039056fea26469706673582212201c790185aa9483984a623c2eb021ed3bc0555e11133069fc5cefe3ad97777b2764736f6c63430008090033",
  "devdoc": {
    "events": {
      "TokenSwapCreated(address,uint32,bytes32,address[],address[],uint256[][],uint256[][],address[],uint256[][],uint32)": {
        "params": {
          "daoplomats": "Array containing the DAOplomat address that will receive the DAOplomat reward.",
          "daos": "Array containing the DAOs that are involed in creating the token swap",
          "deadline": "The amount of time between the creation of the swap and the time when it can no longer be executed, in seconds",
          "dealId": "Deal id for the created token swap",
          "metadata": "Unique ID that is generated throught the Prime Deals frontend",
          "module": "Address of this module",
          "pathFrom": "Two-dimensional array containing the tokens flowing from the DAOs into the module",
          "pathTo": "Two-dimensional array containing the tokens flowing from the module to the DAOs",
          "rewardPathTo": "Array containing the amount of reward each DAOplomat receives.",
          "tokens": "Array containing the tokens that are involed in creating the token swap"
        }
      },
      "TokenSwapExecuted(address,uint32,bytes32)": {
        "params": {
          "dealId": "Deal id for the executed token swap",
          "metadata": "Unique ID that is generated throught the Prime Deals frontend",
          "module": "Address of this module"
        }
      }
    },
    "kind": "dev",
    "methods": {
      "checkExecutability(uint32)": {
        "params": {
          "_dealId": "The dealId of the action (key to the mapping)"
        },
        "returns": {
          "_0": "bool        A bool flag indiciating whether the action can be executed"
        }
      },
      "createSwap(address[],address[],uint256[][],uint256[][],address[],uint256[][],bytes32,uint32)": {
        "params": {
          "_daoplomats": "Array containing the DAOplomat address that will receive the DAOplomat reward. The sorting should match the `_rewardPathTo` array",
          "_daos": "Array containing the DAOs that are involed in this action",
          "_deadline": "The amount of time between the creation of the swap and the time when it can no longer be executed, in seconds",
          "_metadata": "Unique ID that is generated throught the Prime Deals frontend",
          "_pathFrom": "Two-dimensional array containing the tokens flowing from the DAOs into the module: - First array level is for each token - Second array level is for each dao - Detailed overview on how to configure the array can be found at the TokenSwap struct description",
          "_pathTo": "Two-dimensional array containing the tokens flowing from the module to the DAOs: - First array level is for each token - Second array level is for each dao - Detailed overview on how to configure the array can be found at the TokenSwap struct description",
          "_rewardPathTo": "Array containing the amount of reward each DAOplomat receives. The sorting should match the `_daoplomats` array",
          "_tokens": "Array containing the tokens that are involed in this action"
        },
        "returns": {
          "_0": "uin32           The dealId of the new token swap"
        }
      },
      "executeSwap(uint32)": {
        "params": {
          "_dealId": "The dealId of the action (key to the mapping)"
        }
      },
      "getTokenswapFromMetadata(bytes32)": {
        "params": {
          "_metadata": "Unique ID that is generated throught the Prime Deals frontend"
        },
        "returns": {
          "swap": "        Token swap struct associated with the metadata"
        }
      },
      "hasDealExpired(uint32)": {
        "params": {
          "_dealId": "The dealId of the action (key to the mapping)"
        },
        "returns": {
          "_0": "bool         A bool flag indiciating whether token swap has expired"
        }
      },
      "setFee(uint32)": {
        "params": {
          "_feeInBasisPoints": "Fee amount in basis points (1% = 100)"
        }
      },
      "setFeeWallet(address)": {
        "details": "The fee system will be inactive if the feeWallet is set to a zero-address",
        "params": {
          "_feeWallet": "Address of the new fee wallet"
        }
      }
    },
    "title": "PrimeDeals Token Swap Module",
    "version": 1
  },
  "userdoc": {
    "events": {
      "FeeChanged(uint32,uint32)": {
        "notice": "This event is emitted when the fee is updated"
      },
      "FeeWalletChanged(address,address)": {
        "notice": "This event is emitted when the fee wallet address is updated"
      },
      "TokenSwapCreated(address,uint32,bytes32,address[],address[],uint256[][],uint256[][],address[],uint256[][],uint32)": {
        "notice": "This event is emitted when a token swap is created"
      },
      "TokenSwapExecuted(address,uint32,bytes32)": {
        "notice": "This event is emitted when a token swap is executed"
      }
    },
    "kind": "user",
    "methods": {
      "MAX_DAOplomats()": {
        "notice": "Minimum DAOplomat reward (0.001%)"
      },
      "MAX_REWARD()": {
        "notice": "Maximum DAOplomat reward (5%)"
      },
      "checkExecutability(uint32)": {
        "notice": "Checks whether a token swap action can be executed, which is the case if all DAOs have deposited"
      },
      "createSwap(address[],address[],uint256[][],uint256[][],address[],uint256[][],bytes32,uint32)": {
        "notice": "Create a new token swap action and automatically creates Dao Deposit Manager for each DAO that does not have one"
      },
      "dealManager()": {
        "notice": "Address of the DealManager implementation"
      },
      "executeSwap(uint32)": {
        "notice": "Executes a token swap action"
      },
      "feeInBasisPoints()": {
        "notice": "Fee in basis points (100% = 10000)"
      },
      "feeWallet()": {
        "notice": "Wallet that is receiving the fees"
      },
      "getTokenswapFromMetadata(bytes32)": {
        "notice": "Returns the TokenSwap struct associated with the metadata"
      },
      "hasDealExpired(uint32)": {
        "notice": "Checks if the deal has been expired"
      },
      "metadataToDealId(bytes32)": {
        "notice": "Metadata => deal ID"
      },
      "setFee(uint32)": {
        "notice": "Sets a new fee"
      },
      "setFeeWallet(address)": {
        "notice": "Sets a new fee wallet"
      }
    },
    "notice": "Smart contract to handle token swap interactions for PrimeDeals",
    "version": 1
  },
  "storageLayout": {
    "storage": [
      {
        "astId": 3495,
        "contract": "contracts/modules/tokenswap/TokenSwapModule.sol:TokenSwapModule",
        "label": "feeWallet",
        "offset": 0,
        "slot": "0",
        "type": "t_address"
      },
      {
        "astId": 3498,
        "contract": "contracts/modules/tokenswap/TokenSwapModule.sol:TokenSwapModule",
        "label": "feeInBasisPoints",
        "offset": 20,
        "slot": "0",
        "type": "t_uint32"
      },
      {
        "astId": 6626,
        "contract": "contracts/modules/tokenswap/TokenSwapModule.sol:TokenSwapModule",
        "label": "lastDealId",
        "offset": 24,
        "slot": "0",
        "type": "t_uint32"
      },
      {
        "astId": 6631,
        "contract": "contracts/modules/tokenswap/TokenSwapModule.sol:TokenSwapModule",
        "label": "tokenSwaps",
        "offset": 0,
        "slot": "1",
        "type": "t_mapping(t_uint32,t_struct(TokenSwap)6683_storage)"
      },
      {
        "astId": 6636,
        "contract": "contracts/modules/tokenswap/TokenSwapModule.sol:TokenSwapModule",
        "label": "metadataToDealId",
        "offset": 0,
        "slot": "2",
        "type": "t_mapping(t_bytes32,t_uint32)"
      }
    ],
    "types": {
      "t_address": {
        "encoding": "inplace",
        "label": "address",
        "numberOfBytes": "20"
      },
      "t_array(t_address)dyn_storage": {
        "base": "t_address",
        "encoding": "dynamic_array",
        "label": "address[]",
        "numberOfBytes": "32"
      },
      "t_array(t_array(t_uint256)dyn_storage)dyn_storage": {
        "base": "t_array(t_uint256)dyn_storage",
        "encoding": "dynamic_array",
        "label": "uint256[][]",
        "numberOfBytes": "32"
      },
      "t_array(t_uint256)dyn_storage": {
        "base": "t_uint256",
        "encoding": "dynamic_array",
        "label": "uint256[]",
        "numberOfBytes": "32"
      },
      "t_bool": {
        "encoding": "inplace",
        "label": "bool",
        "numberOfBytes": "1"
      },
      "t_bytes32": {
        "encoding": "inplace",
        "label": "bytes32",
        "numberOfBytes": "32"
      },
      "t_mapping(t_bytes32,t_uint32)": {
        "encoding": "mapping",
        "key": "t_bytes32",
        "label": "mapping(bytes32 => uint32)",
        "numberOfBytes": "32",
        "value": "t_uint32"
      },
      "t_mapping(t_uint32,t_struct(TokenSwap)6683_storage)": {
        "encoding": "mapping",
        "key": "t_uint32",
        "label": "mapping(uint32 => struct TokenSwapModule.TokenSwap)",
        "numberOfBytes": "32",
        "value": "t_struct(TokenSwap)6683_storage"
      },
      "t_struct(TokenSwap)6683_storage": {
        "encoding": "inplace",
        "label": "struct TokenSwapModule.TokenSwap",
        "members": [
          {
            "astId": 6648,
            "contract": "contracts/modules/tokenswap/TokenSwapModule.sol:TokenSwapModule",
            "label": "daos",
            "offset": 0,
            "slot": "0",
            "type": "t_array(t_address)dyn_storage"
          },
          {
            "astId": 6652,
            "contract": "contracts/modules/tokenswap/TokenSwapModule.sol:TokenSwapModule",
            "label": "tokens",
            "offset": 0,
            "slot": "1",
            "type": "t_array(t_address)dyn_storage"
          },
          {
            "astId": 6657,
            "contract": "contracts/modules/tokenswap/TokenSwapModule.sol:TokenSwapModule",
            "label": "pathFrom",
            "offset": 0,
            "slot": "2",
            "type": "t_array(t_array(t_uint256)dyn_storage)dyn_storage"
          },
          {
            "astId": 6662,
            "contract": "contracts/modules/tokenswap/TokenSwapModule.sol:TokenSwapModule",
            "label": "pathTo",
            "offset": 0,
            "slot": "3",
            "type": "t_array(t_array(t_uint256)dyn_storage)dyn_storage"
          },
          {
            "astId": 6666,
            "contract": "contracts/modules/tokenswap/TokenSwapModule.sol:TokenSwapModule",
            "label": "daoplomats",
            "offset": 0,
            "slot": "4",
            "type": "t_array(t_address)dyn_storage"
          },
          {
            "astId": 6671,
            "contract": "contracts/modules/tokenswap/TokenSwapModule.sol:TokenSwapModule",
            "label": "rewardPathTo",
            "offset": 0,
            "slot": "5",
            "type": "t_array(t_array(t_uint256)dyn_storage)dyn_storage"
          },
          {
            "astId": 6674,
            "contract": "contracts/modules/tokenswap/TokenSwapModule.sol:TokenSwapModule",
            "label": "deadline",
            "offset": 0,
            "slot": "6",
            "type": "t_uint32"
          },
          {
            "astId": 6677,
            "contract": "contracts/modules/tokenswap/TokenSwapModule.sol:TokenSwapModule",
            "label": "executionDate",
            "offset": 4,
            "slot": "6",
            "type": "t_uint32"
          },
          {
            "astId": 6680,
            "contract": "contracts/modules/tokenswap/TokenSwapModule.sol:TokenSwapModule",
            "label": "metadata",
            "offset": 0,
            "slot": "7",
            "type": "t_bytes32"
          },
          {
            "astId": 6682,
            "contract": "contracts/modules/tokenswap/TokenSwapModule.sol:TokenSwapModule",
            "label": "isExecuted",
            "offset": 0,
            "slot": "8",
            "type": "t_bool"
          }
        ],
        "numberOfBytes": "288"
      },
      "t_uint256": {
        "encoding": "inplace",
        "label": "uint256",
        "numberOfBytes": "32"
      },
      "t_uint32": {
        "encoding": "inplace",
        "label": "uint32",
        "numberOfBytes": "4"
      }
    }
  }
}