{
  "address": "0x44251350E82B044a7c86DE0b25f63a52c4A2B8D5",
  "abi": [
    {
      "inputs": [
        {
          "internalType": "address",
          "name": "_daoDepositManager",
          "type": "address"
        },
        {
          "internalType": "address",
          "name": "_weth",
          "type": "address"
        }
      ],
      "stateMutability": "nonpayable",
      "type": "constructor"
    },
    {
      "anonymous": false,
      "inputs": [
        {
          "indexed": true,
          "internalType": "address",
          "name": "dao",
          "type": "address"
        },
        {
          "indexed": true,
          "internalType": "address",
          "name": "daoDepositManager",
          "type": "address"
        }
      ],
      "name": "DaoDepositManagerCreated",
      "type": "event"
    },
    {
      "anonymous": false,
      "inputs": [
        {
          "indexed": true,
          "internalType": "address",
          "name": "previousOwner",
          "type": "address"
        },
        {
          "indexed": true,
          "internalType": "address",
          "name": "newOwner",
          "type": "address"
        }
      ],
      "name": "OwnershipTransferred",
      "type": "event"
    },
    {
      "inputs": [
        {
          "internalType": "address",
          "name": "_moduleAddress",
          "type": "address"
        }
      ],
      "name": "activateModule",
      "outputs": [],
      "stateMutability": "nonpayable",
      "type": "function"
    },
    {
      "inputs": [
        {
          "internalType": "address",
          "name": "_dao",
          "type": "address"
        }
      ],
      "name": "createDaoDepositManager",
      "outputs": [],
      "stateMutability": "nonpayable",
      "type": "function"
    },
    {
      "inputs": [
        {
          "internalType": "address",
          "name": "",
          "type": "address"
        }
      ],
      "name": "daoDepositManager",
      "outputs": [
        {
          "internalType": "address",
          "name": "",
          "type": "address"
        }
      ],
      "stateMutability": "view",
      "type": "function"
    },
    {
      "inputs": [],
      "name": "daoDepositManagerImplementation",
      "outputs": [
        {
          "internalType": "address",
          "name": "",
          "type": "address"
        }
      ],
      "stateMutability": "view",
      "type": "function"
    },
    {
      "inputs": [
        {
          "internalType": "address",
          "name": "_moduleAddress",
          "type": "address"
        }
      ],
      "name": "deactivateModule",
      "outputs": [],
      "stateMutability": "nonpayable",
      "type": "function"
    },
    {
      "inputs": [
        {
          "internalType": "address",
          "name": "_dao",
          "type": "address"
        }
      ],
      "name": "getDaoDepositManager",
      "outputs": [
        {
          "internalType": "address",
          "name": "",
          "type": "address"
        }
      ],
      "stateMutability": "view",
      "type": "function"
    },
    {
      "inputs": [
        {
          "internalType": "address",
          "name": "_dao",
          "type": "address"
        }
      ],
      "name": "hasDaoDepositManager",
      "outputs": [
        {
          "internalType": "bool",
          "name": "",
          "type": "bool"
        }
      ],
      "stateMutability": "view",
      "type": "function"
    },
    {
      "inputs": [
        {
          "internalType": "address",
          "name": "",
          "type": "address"
        }
      ],
      "name": "isModule",
      "outputs": [
        {
          "internalType": "bool",
          "name": "",
          "type": "bool"
        }
      ],
      "stateMutability": "view",
      "type": "function"
    },
    {
      "inputs": [],
      "name": "owner",
      "outputs": [
        {
          "internalType": "address",
          "name": "",
          "type": "address"
        }
      ],
      "stateMutability": "view",
      "type": "function"
    },
    {
      "inputs": [],
      "name": "renounceOwnership",
      "outputs": [],
      "stateMutability": "nonpayable",
      "type": "function"
    },
    {
      "inputs": [
        {
          "internalType": "address",
          "name": "_newImplementation",
          "type": "address"
        }
      ],
      "name": "setDaoDepositManagerImplementation",
      "outputs": [],
      "stateMutability": "nonpayable",
      "type": "function"
    },
    {
      "inputs": [
        {
          "internalType": "address",
          "name": "_newDealManager",
          "type": "address"
        },
        {
          "internalType": "address",
          "name": "_module",
          "type": "address"
        }
      ],
      "name": "setDealManagerInModule",
      "outputs": [],
      "stateMutability": "nonpayable",
      "type": "function"
    },
    {
      "inputs": [
        {
          "internalType": "address",
          "name": "newOwner",
          "type": "address"
        }
      ],
      "name": "transferOwnership",
      "outputs": [],
      "stateMutability": "nonpayable",
      "type": "function"
    },
    {
      "inputs": [],
      "name": "weth",
      "outputs": [
        {
          "internalType": "address",
          "name": "",
          "type": "address"
        }
      ],
      "stateMutability": "view",
      "type": "function"
    }
  ],
  "transactionHash": "0x8795bfccb3d1e395e17c66e81008dfc33da3c38a2241720744960bd477dc4ed2",
  "args": [
    "0xB448335Ff3105145dc6Cf805e544F1e4a41B35ca",
    "0xC02aaA39b223FE8D0A0e5C4F27eAD9083C756Cc2"
  ],
  "numDeployments": 1,
  "solcInputHash": "7bfbbf30ca5a5618b1d18e7a63f720e7",
  "bytecode": "0x60a060405234801561001057600080fd5b50604051610d30380380610d3083398101604081905261002f916101a8565b6100383361013c565b6001600160a01b0382161580159061005957506001600160a01b0382163014155b6100aa5760405162461bcd60e51b815260206004820152601660248201527f4465616c4d616e616765723a204572726f72203130300000000000000000000060448201526064015b60405180910390fd5b6001600160a01b038116158015906100cb57506001600160a01b0381163014155b6101175760405162461bcd60e51b815260206004820152601660248201527f4465616c4d616e616765723a204572726f72203130300000000000000000000060448201526064016100a1565b600180546001600160a01b0319166001600160a01b03938416179055166080526101db565b600080546001600160a01b038381166001600160a01b0319831681178455604051919092169283917f8be0079c531659141344cd1fd0a4f28419497f9722a3daafe3b4186f6b6457e09190a35050565b80516001600160a01b03811681146101a357600080fd5b919050565b600080604083850312156101bb57600080fd5b6101c48361018c565b91506101d26020840161018c565b90509250929050565b608051610b3a6101f660003960006101750152610b3a6000f3fe608060405234801561001057600080fd5b50600436106100ea5760003560e01c806371cfe4981161008c578063c221e44b11610066578063c221e44b14610222578063e0daf0c914610235578063f2fde38b14610248578063fb22e0f21461025b57600080fd5b806371cfe498146101d25780638da5cb5b146101fe57806394ffad741461020f57600080fd5b80631bcf9e2f116100c85780631bcf9e2f1461015d5780633fc8cef31461017057806342f6e38914610197578063715018a6146101ca57600080fd5b80630c841231146100ef57806310096d2814610104578063167e0cbf1461014a575b600080fd5b6101026100fd366004610a25565b61026e565b005b61012d610112366004610a25565b6002602052600090815260409020546001600160a01b031681565b6040516001600160a01b0390911681526020015b60405180910390f35b610102610158366004610a49565b610300565b60015461012d906001600160a01b031681565b61012d7f000000000000000000000000000000000000000000000000000000000000000081565b6101ba6101a5366004610a25565b60036020526000908152604090205460ff1681565b6040519015158152602001610141565b6101026103c6565b61012d6101e0366004610a25565b6001600160a01b039081166000908152600260205260409020541690565b6000546001600160a01b031661012d565b61010261021d366004610a25565b6103fc565b6101ba610230366004610a25565b610676565b610102610243366004610a25565b6106ba565b610102610256366004610a25565b610742565b610102610269366004610a25565b6107dd565b6000546001600160a01b031633146102a15760405162461bcd60e51b815260040161029890610a82565b60405180910390fd5b6001600160a01b038116158015906102c257506001600160a01b0381163014155b6102de5760405162461bcd60e51b815260040161029890610ab7565b600180546001600160a01b0319166001600160a01b0392909216919091179055565b6000546001600160a01b0316331461032a5760405162461bcd60e51b815260040161029890610a82565b6001600160a01b0382161580159061034b57506001600160a01b0382163014155b6103675760405162461bcd60e51b815260040161029890610ab7565b6040516306858fa560e31b81526001600160a01b03838116600483015282169063342c7d2890602401600060405180830381600087803b1580156103aa57600080fd5b505af11580156103be573d6000803e3d6000fd5b505050505050565b6000546001600160a01b031633146103f05760405162461bcd60e51b815260040161029890610a82565b6103fa6000610923565b565b6001600160a01b0381161580159061041d57506001600160a01b0381163014155b6104395760405162461bcd60e51b815260040161029890610ab7565b6001600160a01b03818116600090815260026020526040902054161561049a5760405162461bcd60e51b81526020600482015260166024820152754465616c4d616e616765723a204572726f722030303160501b6044820152606401610298565b6001546001600160a01b03166104eb5760405162461bcd60e51b81526020600482015260166024820152754465616c4d616e616765723a204572726f722032363160501b6044820152606401610298565b600154600090610503906001600160a01b0316610973565b60405163189acdbd60e31b81526001600160a01b0384811660048301529192509082169063c4d66de890602401600060405180830381600087803b15801561054a57600080fd5b505af115801561055e573d6000803e3d6000fd5b50505050306001600160a01b0316816001600160a01b03166301df538d6040518163ffffffff1660e01b81526004016020604051808303816000875af11580156105ac573d6000803e3d6000fd5b505050506040513d601f19601f820116820180604052508101906105d09190610ae7565b6001600160a01b03161461061f5760405162461bcd60e51b815260206004820152601660248201527504465616c4d616e616765723a204572726f72203236360541b6044820152606401610298565b6001600160a01b0382811660008181526002602052604080822080546001600160a01b0319169486169485179055517f265a432561b8428849ed76059de69c1301cfed8e70b5f9a7fc54df536a85d5d19190a35050565b60008061069b836001600160a01b039081166000908152600260205260409020541690565b6001600160a01b031614156106b15760006106b4565b60015b92915050565b6000546001600160a01b031633146106e45760405162461bcd60e51b815260040161029890610a82565b6001600160a01b0381161580159061070557506001600160a01b0381163014155b6107215760405162461bcd60e51b815260040161029890610ab7565b6001600160a01b03166000908152600360205260409020805460ff19169055565b6000546001600160a01b0316331461076c5760405162461bcd60e51b815260040161029890610a82565b6001600160a01b0381166107d15760405162461bcd60e51b815260206004820152602660248201527f4f776e61626c653a206e6577206f776e657220697320746865207a65726f206160448201526564647265737360d01b6064820152608401610298565b6107da81610923565b50565b6000546001600160a01b031633146108075760405162461bcd60e51b815260040161029890610a82565b6001600160a01b0381161580159061082857506001600160a01b0381163014155b6108445760405162461bcd60e51b815260040161029890610ab7565b306001600160a01b0316816001600160a01b03166301df538d6040518163ffffffff1660e01b8152600401602060405180830381865afa15801561088c573d6000803e3d6000fd5b505050506040513d601f19601f820116820180604052508101906108b09190610ae7565b6001600160a01b0316146108ff5760405162461bcd60e51b815260206004820152601660248201527504465616c4d616e616765723a204572726f72203236360541b6044820152606401610298565b6001600160a01b03166000908152600360205260409020805460ff19166001179055565b600080546001600160a01b038381166001600160a01b0319831681178455604051919092169283917f8be0079c531659141344cd1fd0a4f28419497f9722a3daafe3b4186f6b6457e09190a35050565b6000604051733d602d80600a3d3981f3363d3d373d3d3d363d7360601b81528260601b60148201526e5af43d82803e903d91602b57fd5bf360881b60288201526037816000f09150506001600160a01b038116610a0b5760405162461bcd60e51b8152602060048201526016602482015275115490cc4c4d8dce8818dc99585d194819985a5b195960521b6044820152606401610298565b919050565b6001600160a01b03811681146107da57600080fd5b600060208284031215610a3757600080fd5b8135610a4281610a10565b9392505050565b60008060408385031215610a5c57600080fd5b8235610a6781610a10565b91506020830135610a7781610a10565b809150509250929050565b6020808252818101527f4f776e61626c653a2063616c6c6572206973206e6f7420746865206f776e6572604082015260600190565b60208082526016908201527504465616c4d616e616765723a204572726f72203130360541b604082015260600190565b600060208284031215610af957600080fd5b8151610a4281610a1056fea264697066735822122093cbd1537f831de71b1e3850083563aa0a5a8a6a900feabb83cac809c54ad63d64736f6c634300080a0033",
  "devdoc": {
    "events": {
      "DaoDepositManagerCreated(address,address)": {
        "params": {
          "dao": "DAO address to which the DaoDepositManager is linked",
          "daoDepositManager": "Newly created DaoDepositManager contract address"
        }
      }
    },
    "kind": "dev",
    "methods": {
      "activateModule(address)": {
        "params": {
          "_moduleAddress": "The address of a Deals module"
        }
      },
      "constructor": {
        "params": {
          "_daoDepositManager": "The address of the DaoDepositManager implementation"
        }
      },
      "createDaoDepositManager(address)": {
        "params": {
          "_dao": "Address of the DAO for the DaoDepositContract"
        }
      },
      "deactivateModule(address)": {
        "params": {
          "_moduleAddress": "The address of a Deals module"
        }
      },
      "getDaoDepositManager(address)": {
        "params": {
          "_dao": "DAO address for which to return the DaoDepositManger"
        },
        "returns": {
          "_0": "address      Address of the DaoDepositManager associated with the _dao"
        }
      },
      "hasDaoDepositManager(address)": {
        "params": {
          "_dao": "DAO address for which to check for an existing DaoDepositManger"
        },
        "returns": {
          "_0": "bool         A bool flag indicating whether a DaoDepositManager contract exists"
        }
      },
      "owner()": {
        "details": "Returns the address of the current owner."
      },
      "renounceOwnership()": {
        "details": "Leaves the contract without owner. It will not be possible to call `onlyOwner` functions anymore. Can only be called by the current owner. NOTE: Renouncing ownership will leave the contract without an owner, thereby removing any functionality that is only available to the owner."
      },
      "setDaoDepositManagerImplementation(address)": {
        "params": {
          "_newImplementation": "The new address of the DaoDepositManager"
        }
      },
      "transferOwnership(address)": {
        "details": "Transfers ownership of the contract to a new account (`newOwner`). Can only be called by the current owner."
      }
    },
    "title": "PrimeDeals Deal Manager",
    "version": 1
  },
  "userdoc": {
    "events": {
      "DaoDepositManagerCreated(address,address)": {
        "notice": "This event is emitted when a DaoDepositManager is created"
      }
    },
    "kind": "user",
    "methods": {
      "activateModule(address)": {
        "notice": "Activates a new Deals module"
      },
      "constructor": {
        "notice": "Constructor"
      },
      "createDaoDepositManager(address)": {
        "notice": "Creates a DaoDepositManager for a DAO"
      },
      "daoDepositManager(address)": {
        "notice": "Address DAO => address DaoDepositManager of the DAO"
      },
      "daoDepositManagerImplementation()": {
        "notice": "Address of the current implementation of the DaoDepositManager"
      },
      "deactivateModule(address)": {
        "notice": "Deactivates a Deals module"
      },
      "getDaoDepositManager(address)": {
        "notice": "Returns the DaoDepositManager of a DAO"
      },
      "hasDaoDepositManager(address)": {
        "notice": "Returns whether a DAO already has a DaoDepositManager"
      },
      "isModule(address)": {
        "notice": "module address => true/false"
      },
      "setDaoDepositManagerImplementation(address)": {
        "notice": "Sets a new address for the DaoDepositManager implementation"
      },
      "weth()": {
        "notice": "Address of the ETH wrapping contract"
      }
    },
    "notice": "Smart contract to serve as the manager for the PrimeDeals architecture",
    "version": 1
  },
  "storageLayout": {
    "storage": [
      {
        "astId": 7,
        "contract": "contracts/DealManager.sol:DealManager",
        "label": "_owner",
        "offset": 0,
        "slot": "0",
        "type": "t_address"
      },
      {
        "astId": 2576,
        "contract": "contracts/DealManager.sol:DealManager",
        "label": "daoDepositManagerImplementation",
        "offset": 0,
        "slot": "1",
        "type": "t_address"
      },
      {
        "astId": 2584,
        "contract": "contracts/DealManager.sol:DealManager",
        "label": "daoDepositManager",
        "offset": 0,
        "slot": "2",
        "type": "t_mapping(t_address,t_address)"
      },
      {
        "astId": 2589,
        "contract": "contracts/DealManager.sol:DealManager",
        "label": "isModule",
        "offset": 0,
        "slot": "3",
        "type": "t_mapping(t_address,t_bool)"
      }
    ],
    "types": {
      "t_address": {
        "encoding": "inplace",
        "label": "address",
        "numberOfBytes": "20"
      },
      "t_bool": {
        "encoding": "inplace",
        "label": "bool",
        "numberOfBytes": "1"
      },
      "t_mapping(t_address,t_address)": {
        "encoding": "mapping",
        "key": "t_address",
        "label": "mapping(address => address)",
        "numberOfBytes": "32",
        "value": "t_address"
      },
      "t_mapping(t_address,t_bool)": {
        "encoding": "mapping",
        "key": "t_address",
        "label": "mapping(address => bool)",
        "numberOfBytes": "32",
        "value": "t_bool"
      }
    }
  }
}